{
  "address": "0x68B1D87F95878fE05B998F19b66F4baba5De1aed",
  "abi": [
    {
      "inputs": [
        {
          "internalType": "uint256",
          "name": "baseRatePerYear",
          "type": "uint256"
        },
        {
          "internalType": "uint256",
          "name": "multiplierPerYear",
          "type": "uint256"
        }
      ],
      "payable": false,
      "stateMutability": "nonpayable",
      "type": "constructor"
    },
    {
      "anonymous": false,
      "inputs": [
        {
          "indexed": false,
          "internalType": "uint256",
          "name": "baseRatePerBlock",
          "type": "uint256"
        },
        {
          "indexed": false,
          "internalType": "uint256",
          "name": "multiplierPerBlock",
          "type": "uint256"
        }
      ],
      "name": "NewInterestParams",
      "type": "event"
    },
    {
      "constant": true,
      "inputs": [],
      "name": "baseRatePerBlock",
      "outputs": [
        {
          "internalType": "uint256",
          "name": "",
          "type": "uint256"
        }
      ],
      "payable": false,
      "stateMutability": "view",
      "type": "function"
    },
    {
      "constant": true,
      "inputs": [],
      "name": "blocksPerYear",
      "outputs": [
        {
          "internalType": "uint256",
          "name": "",
          "type": "uint256"
        }
      ],
      "payable": false,
      "stateMutability": "view",
      "type": "function"
    },
    {
      "constant": true,
      "inputs": [
        {
          "internalType": "uint256",
          "name": "cash",
          "type": "uint256"
        },
        {
          "internalType": "uint256",
          "name": "borrows",
          "type": "uint256"
        },
        {
          "internalType": "uint256",
          "name": "reserves",
          "type": "uint256"
        }
      ],
      "name": "getBorrowRate",
      "outputs": [
        {
          "internalType": "uint256",
          "name": "",
          "type": "uint256"
        }
      ],
      "payable": false,
      "stateMutability": "view",
      "type": "function"
    },
    {
      "constant": true,
      "inputs": [
        {
          "internalType": "uint256",
          "name": "_totalCash",
          "type": "uint256"
        },
        {
          "internalType": "uint256",
          "name": "_totalBorrows",
          "type": "uint256"
        },
        {
          "internalType": "uint256",
          "name": "_totalReserves",
          "type": "uint256"
        },
        {
          "internalType": "uint256",
          "name": "_totalSupply",
          "type": "uint256"
        },
        {
          "internalType": "uint256",
          "name": "_reserveFactorMantissa",
          "type": "uint256"
        }
      ],
      "name": "getExchangeRate",
      "outputs": [
        {
          "internalType": "enum CarefulMath.MathError",
          "name": "",
          "type": "uint8"
        },
        {
          "internalType": "uint256",
          "name": "",
          "type": "uint256"
        }
      ],
      "payable": false,
      "stateMutability": "view",
      "type": "function"
    },
    {
      "constant": true,
      "inputs": [
        {
          "internalType": "uint256",
          "name": "cash",
          "type": "uint256"
        },
        {
          "internalType": "uint256",
          "name": "borrows",
          "type": "uint256"
        },
        {
          "internalType": "uint256",
          "name": "reserves",
          "type": "uint256"
        },
        {
          "internalType": "uint256",
          "name": "reserveFactorMantissa",
          "type": "uint256"
        }
      ],
      "name": "getSupplyRate",
      "outputs": [
        {
          "internalType": "uint256",
          "name": "",
          "type": "uint256"
        }
      ],
      "payable": false,
      "stateMutability": "view",
      "type": "function"
    },
    {
      "constant": true,
      "inputs": [],
      "name": "isInterestRateModel",
      "outputs": [
        {
          "internalType": "bool",
          "name": "",
          "type": "bool"
        }
      ],
      "payable": false,
      "stateMutability": "view",
      "type": "function"
    },
    {
      "constant": true,
      "inputs": [],
      "name": "multiplierPerBlock",
      "outputs": [
        {
          "internalType": "uint256",
          "name": "",
          "type": "uint256"
        }
      ],
      "payable": false,
      "stateMutability": "view",
      "type": "function"
    },
    {
      "constant": true,
      "inputs": [
        {
          "internalType": "uint256",
          "name": "cash",
          "type": "uint256"
        },
        {
          "internalType": "uint256",
          "name": "borrows",
          "type": "uint256"
        },
        {
          "internalType": "uint256",
          "name": "reserves",
          "type": "uint256"
        }
      ],
      "name": "utilizationRate",
      "outputs": [
        {
          "internalType": "uint256",
          "name": "",
          "type": "uint256"
        }
      ],
      "payable": false,
      "stateMutability": "pure",
      "type": "function"
    }
  ],
  "transactionHash": "0x86eac9a59863c8637628b0d3e7a861938e179f8867ce6f7e26138db96c491fcd",
  "args": [
    "20000000000000000",
    "300000000000000000"
  ],
  "solcInputHash": "689bd9415ade6c70839a66716afe64b8",
  "bytecode": "0x608060405234801561001057600080fd5b5060405161098c38038061098c8339818101604052604081101561003357600080fd5b508051602091820151909161005690839062100a40906103db6100bc821b17901c565b6001556100718162100a406100bc602090811b6103db17901c565b600081905560015460408051918252602082019290925281517ff35fa19c15e9ba782633a5df62a98b20217151addc68e3ff2cd623a48d37ec27929181900390910190a150506101ad565b600061010483836040518060400160405280601a81526020017f536166654d6174683a206469766973696f6e206279207a65726f00000000000081525061010b60201b60201c565b9392505050565b600081836101975760405162461bcd60e51b81526004018080602001828103825283818151815260200191508051906020019080838360005b8381101561015c578181015183820152602001610144565b50505050905090810190601f1680156101895780820380516001836020036101000a031916815260200191505b509250505060405180910390fd5b5060008385816101a357fe5b0495945050505050565b6107d0806101bc6000396000f3fe608060405234801561001057600080fd5b50600436106100885760003560e01c8063a385fb961161005b578063a385fb9614610115578063b089e0c01461011d578063b81688161461017d578063f14039de146101ac57610088565b806315f240531461008d5780632191f92a146100c85780636e71e2d8146100e45780638726bb891461010d575b600080fd5b6100b6600480360360608110156100a357600080fd5b50803590602081013590604001356101b4565b60408051918252519081900360200190f35b6100d061020e565b604080519115158252519081900360200190f35b6100b6600480360360608110156100fa57600080fd5b5080359060208101359060400135610213565b6100b6610265565b6100b661026b565b610152600480360360a081101561013357600080fd5b5080359060208101359060408101359060608101359060800135610272565b6040518083600381111561016257fe5b60ff1681526020018281526020019250505060405180910390f35b6100b66004803603608081101561019357600080fd5b50803590602081013590604081013590606001356102f4565b6100b6610373565b6000806101c2858585610213565b90506102036001546101f7670de0b6b3a76400006101eb6000548661037990919063ffffffff16565b9063ffffffff6103db16565b9063ffffffff61041d16565b9150505b9392505050565b600181565b60008261022257506000610207565b61025d61024583610239878763ffffffff61041d16565b9063ffffffff61047716565b6101eb85670de0b6b3a764000063ffffffff61037916565b949350505050565b60005481565b62100a4081565b60008061027d610767565b60008061028b8a8a8a6104b9565b9092509050600082600381111561029e57fe5b146102b157509250600091506102ea9050565b6102bb8188610506565b9350915060008260038111156102cd57fe5b146102e057509250600091506102ea9050565b5050516000925090505b9550959350505050565b60008061030f670de0b6b3a76400008463ffffffff61047716565b9050600061031e8787876101b4565b9050600061033e670de0b6b3a76400006101eb848663ffffffff61037916565b9050610367670de0b6b3a76400006101eb8361035b8c8c8c610213565b9063ffffffff61037916565b98975050505050505050565b60015481565b600082610388575060006103d5565b8282028284828161039557fe5b04146103d25760405162461bcd60e51b815260040180806020018281038252602181526020018061077b6021913960400191505060405180910390fd5b90505b92915050565b60006103d283836040518060400160405280601a81526020017f536166654d6174683a206469766973696f6e206279207a65726f0000000000008152506105b8565b6000828201838110156103d2576040805162461bcd60e51b815260206004820152601b60248201527f536166654d6174683a206164646974696f6e206f766572666c6f770000000000604482015290519081900360640190fd5b60006103d283836040518060400160405280601f81526020017f536166654d6174683a207375627472616374696f6e20756e646572666c6f770081525061065a565b6000806000806104c987876106b4565b909250905060008260038111156104dc57fe5b146104ed57509150600090506104fe565b6104f781866106da565b9350935050505b935093915050565b6000610510610767565b60008061052586670de0b6b3a76400006106fd565b9092509050600082600381111561053857fe5b14610557575060408051602081019091526000815290925090506105b1565b600080610564838861073c565b9092509050600082600381111561057757fe5b14610599575060408051602081019091526000815290945092506105b1915050565b60408051602081019091529081526000955093505050505b9250929050565b600081836106445760405162461bcd60e51b81526004018080602001828103825283818151815260200191508051906020019080838360005b838110156106095781810151838201526020016105f1565b50505050905090810190601f1680156106365780820380516001836020036101000a031916815260200191505b509250505060405180910390fd5b50600083858161065057fe5b0495945050505050565b600081848411156106ac5760405162461bcd60e51b81526020600482018181528351602484015283519092839260449091019190850190808383600083156106095781810151838201526020016105f1565b505050900390565b6000808383018481106106cc576000925090506105b1565b5060029150600090506105b1565b6000808383116106f15750600090508183036105b1565b506003905060006105b1565b60008083610710575060009050806105b1565b8383028385828161071d57fe5b0414610731575060029150600090506105b1565b6000925090506105b1565b6000808261075057506001905060006105b1565b600083858161075b57fe5b04915091509250929050565b604051806020016040528060008152509056fe536166654d6174683a206d756c7469706c69636174696f6e206f766572666c6f77a265627a7a723158207f2b8640e9b9502a473fc965ee4869cd97b2078734803fee332dcbe18e36c83164736f6c63430005110032",
  "devdoc": {
    "author": "tropykus",
    "methods": {
      "constructor": {
        "params": {
          "baseRatePerYear": "The approximate target base APR, as a mantissa (scaled by 1e18)",
          "multiplierPerYear": "The rate of increase in interest rate wrt utilization (scaled by 1e18)"
        }
      },
      "getBorrowRate(uint256,uint256,uint256)": {
        "params": {
          "borrows": "The amount of borrows in the market",
          "cash": "The amount of cash in the market",
          "reserves": "The amount of reserves in the market"
        },
        "return": "The borrow rate percentage per block as a mantissa (scaled by 1e18)"
      },
      "getSupplyRate(uint256,uint256,uint256,uint256)": {
        "params": {
          "borrows": "The amount of borrows in the market",
          "cash": "The amount of cash in the market",
          "reserveFactorMantissa": "The current reserve factor for the market",
          "reserves": "The amount of reserves in the market"
        },
        "return": "The supply rate percentage per block as a mantissa (scaled by 1e18)"
      },
      "utilizationRate(uint256,uint256,uint256)": {
        "params": {
          "borrows": "The amount of borrows in the market",
          "cash": "The amount of cash in the market",
          "reserves": "The amount of reserves in the market (currently unused)"
        },
        "return": "The utilization rate as a mantissa between [0, 1e18]"
      }
    },
    "title": "tropykus WhitePaperInterestRateModel Contract"
  },
  "userdoc": {
    "methods": {
      "constructor": "Construct an interest rate model",
      "getBorrowRate(uint256,uint256,uint256)": {
        "notice": "Calculates the current borrow rate per block, with the error code expected by the market"
      },
      "getSupplyRate(uint256,uint256,uint256,uint256)": {
        "notice": "Calculates the current supply rate per block"
      },
      "utilizationRate(uint256,uint256,uint256)": {
        "notice": "Calculates the utilization rate of the market: `borrows / (cash + borrows - reserves)`"
      }
    },
    "notice": "The parameterized model described in section 2.4 of the original tropykus Protocol whitepaper"
  },
  "storageLayout": {
    "storage": [
      {
        "astId": 38360,
        "contract": "contracts/WhitePaperInterestRateModel.sol:WhitePaperInterestRateModel",
        "label": "multiplierPerBlock",
        "offset": 0,
        "slot": "0",
        "type": "t_uint256"
      },
      {
        "astId": 38362,
        "contract": "contracts/WhitePaperInterestRateModel.sol:WhitePaperInterestRateModel",
        "label": "baseRatePerBlock",
        "offset": 0,
        "slot": "1",
        "type": "t_uint256"
      }
    ],
    "types": {
      "t_uint256": {
        "encoding": "inplace",
        "label": "uint256",
        "numberOfBytes": "32"
      }
    }
  }
}