{
  "address": "0x851356ae760d987E095750cCeb3bC6014560891C",
  "abi": [
    {
      "inputs": [
        {
          "internalType": "contract ComptrollerInterface",
          "name": "comptroller_",
          "type": "address"
        },
        {
          "internalType": "contract InterestRateModel",
          "name": "interestRateModel_",
          "type": "address"
        },
        {
          "internalType": "uint256",
          "name": "initialExchangeRateMantissa_",
          "type": "uint256"
        },
        {
          "internalType": "string",
          "name": "name_",
          "type": "string"
        },
        {
          "internalType": "string",
          "name": "symbol_",
          "type": "string"
        },
        {
          "internalType": "uint8",
          "name": "decimals_",
          "type": "uint8"
        },
        {
          "internalType": "address payable",
          "name": "admin_",
          "type": "address"
        }
      ],
      "payable": false,
      "stateMutability": "nonpayable",
      "type": "constructor"
    },
    {
      "anonymous": false,
      "inputs": [
        {
          "indexed": false,
          "internalType": "uint256",
          "name": "cashPrior",
          "type": "uint256"
        },
        {
          "indexed": false,
          "internalType": "uint256",
          "name": "interestAccumulated",
          "type": "uint256"
        },
        {
          "indexed": false,
          "internalType": "uint256",
          "name": "borrowIndex",
          "type": "uint256"
        },
        {
          "indexed": false,
          "internalType": "uint256",
          "name": "totalBorrows",
          "type": "uint256"
        }
      ],
      "name": "AccrueInterest",
      "type": "event"
    },
    {
      "anonymous": false,
      "inputs": [
        {
          "indexed": true,
          "internalType": "address",
          "name": "owner",
          "type": "address"
        },
        {
          "indexed": true,
          "internalType": "address",
          "name": "spender",
          "type": "address"
        },
        {
          "indexed": false,
          "internalType": "uint256",
          "name": "amount",
          "type": "uint256"
        }
      ],
      "name": "Approval",
      "type": "event"
    },
    {
      "anonymous": false,
      "inputs": [
        {
          "indexed": true,
          "internalType": "address",
          "name": "borrower",
          "type": "address"
        },
        {
          "indexed": false,
          "internalType": "uint256",
          "name": "borrowAmount",
          "type": "uint256"
        },
        {
          "indexed": false,
          "internalType": "uint256",
          "name": "accountBorrows",
          "type": "uint256"
        },
        {
          "indexed": false,
          "internalType": "uint256",
          "name": "totalBorrows",
          "type": "uint256"
        }
      ],
      "name": "Borrow",
      "type": "event"
    },
    {
      "anonymous": false,
      "inputs": [
        {
          "indexed": false,
          "internalType": "uint256",
          "name": "error",
          "type": "uint256"
        },
        {
          "indexed": false,
          "internalType": "uint256",
          "name": "info",
          "type": "uint256"
        },
        {
          "indexed": false,
          "internalType": "uint256",
          "name": "detail",
          "type": "uint256"
        }
      ],
      "name": "Failure",
      "type": "event"
    },
    {
      "anonymous": false,
      "inputs": [
        {
          "indexed": true,
          "internalType": "address",
          "name": "liquidator",
          "type": "address"
        },
        {
          "indexed": true,
          "internalType": "address",
          "name": "borrower",
          "type": "address"
        },
        {
          "indexed": false,
          "internalType": "uint256",
          "name": "repayAmount",
          "type": "uint256"
        },
        {
          "indexed": true,
          "internalType": "address",
          "name": "cTokenCollateral",
          "type": "address"
        },
        {
          "indexed": false,
          "internalType": "uint256",
          "name": "seizeTokens",
          "type": "uint256"
        }
      ],
      "name": "LiquidateBorrow",
      "type": "event"
    },
    {
      "anonymous": false,
      "inputs": [
        {
          "indexed": true,
          "internalType": "address",
          "name": "minter",
          "type": "address"
        },
        {
          "indexed": false,
          "internalType": "uint256",
          "name": "mintAmount",
          "type": "uint256"
        },
        {
          "indexed": false,
          "internalType": "uint256",
          "name": "mintTokens",
          "type": "uint256"
        }
      ],
      "name": "Mint",
      "type": "event"
    },
    {
      "anonymous": false,
      "inputs": [
        {
          "indexed": false,
          "internalType": "address",
          "name": "oldAdmin",
          "type": "address"
        },
        {
          "indexed": false,
          "internalType": "address",
          "name": "newAdmin",
          "type": "address"
        }
      ],
      "name": "NewAdmin",
      "type": "event"
    },
    {
      "anonymous": false,
      "inputs": [
        {
          "indexed": false,
          "internalType": "contract ComptrollerInterface",
          "name": "oldComptroller",
          "type": "address"
        },
        {
          "indexed": false,
          "internalType": "contract ComptrollerInterface",
          "name": "newComptroller",
          "type": "address"
        }
      ],
      "name": "NewComptroller",
      "type": "event"
    },
    {
      "anonymous": false,
      "inputs": [
        {
          "indexed": false,
          "internalType": "contract InterestRateModel",
          "name": "oldInterestRateModel",
          "type": "address"
        },
        {
          "indexed": false,
          "internalType": "contract InterestRateModel",
          "name": "newInterestRateModel",
          "type": "address"
        }
      ],
      "name": "NewMarketInterestRateModel",
      "type": "event"
    },
    {
      "anonymous": false,
      "inputs": [
        {
          "indexed": false,
          "internalType": "address",
          "name": "oldPendingAdmin",
          "type": "address"
        },
        {
          "indexed": false,
          "internalType": "address",
          "name": "newPendingAdmin",
          "type": "address"
        }
      ],
      "name": "NewPendingAdmin",
      "type": "event"
    },
    {
      "anonymous": false,
      "inputs": [
        {
          "indexed": false,
          "internalType": "uint256",
          "name": "oldReserveFactorMantissa",
          "type": "uint256"
        },
        {
          "indexed": false,
          "internalType": "uint256",
          "name": "newReserveFactorMantissa",
          "type": "uint256"
        }
      ],
      "name": "NewReserveFactor",
      "type": "event"
    },
    {
      "anonymous": false,
      "inputs": [
        {
          "indexed": true,
          "internalType": "address",
          "name": "redeemer",
          "type": "address"
        },
        {
          "indexed": false,
          "internalType": "uint256",
          "name": "redeemAmount",
          "type": "uint256"
        },
        {
          "indexed": false,
          "internalType": "uint256",
          "name": "redeemTokens",
          "type": "uint256"
        }
      ],
      "name": "Redeem",
      "type": "event"
    },
    {
      "anonymous": false,
      "inputs": [
        {
          "indexed": true,
          "internalType": "address",
          "name": "payer",
          "type": "address"
        },
        {
          "indexed": true,
          "internalType": "address",
          "name": "borrower",
          "type": "address"
        },
        {
          "indexed": false,
          "internalType": "uint256",
          "name": "repayAmount",
          "type": "uint256"
        },
        {
          "indexed": false,
          "internalType": "uint256",
          "name": "accountBorrows",
          "type": "uint256"
        },
        {
          "indexed": false,
          "internalType": "uint256",
          "name": "totalBorrows",
          "type": "uint256"
        }
      ],
      "name": "RepayBorrow",
      "type": "event"
    },
    {
      "anonymous": false,
      "inputs": [
        {
          "indexed": false,
          "internalType": "address",
          "name": "benefactor",
          "type": "address"
        },
        {
          "indexed": false,
          "internalType": "uint256",
          "name": "addAmount",
          "type": "uint256"
        },
        {
          "indexed": false,
          "internalType": "uint256",
          "name": "newTotalReserves",
          "type": "uint256"
        }
      ],
      "name": "ReservesAdded",
      "type": "event"
    },
    {
      "anonymous": false,
      "inputs": [
        {
          "indexed": false,
          "internalType": "address",
          "name": "admin",
          "type": "address"
        },
        {
          "indexed": false,
          "internalType": "uint256",
          "name": "reduceAmount",
          "type": "uint256"
        },
        {
          "indexed": false,
          "internalType": "uint256",
          "name": "newTotalReserves",
          "type": "uint256"
        }
      ],
      "name": "ReservesReduced",
      "type": "event"
    },
    {
      "anonymous": false,
      "inputs": [
        {
          "indexed": false,
          "internalType": "address",
          "name": "benefactor",
          "type": "address"
        },
        {
          "indexed": false,
          "internalType": "uint256",
          "name": "addAmount",
          "type": "uint256"
        },
        {
          "indexed": false,
          "internalType": "uint256",
          "name": "newSubsidyFund",
          "type": "uint256"
        }
      ],
      "name": "SubsidyAdded",
      "type": "event"
    },
    {
      "anonymous": false,
      "inputs": [
        {
          "indexed": true,
          "internalType": "address",
          "name": "from",
          "type": "address"
        },
        {
          "indexed": true,
          "internalType": "address",
          "name": "to",
          "type": "address"
        },
        {
          "indexed": false,
          "internalType": "uint256",
          "name": "amount",
          "type": "uint256"
        }
      ],
      "name": "Transfer",
      "type": "event"
    },
    {
      "payable": true,
      "stateMutability": "payable",
      "type": "fallback"
    },
    {
      "constant": false,
      "inputs": [],
      "name": "_acceptAdmin",
      "outputs": [
        {
          "internalType": "uint256",
          "name": "",
          "type": "uint256"
        }
      ],
      "payable": false,
      "stateMutability": "nonpayable",
      "type": "function"
    },
    {
      "constant": false,
      "inputs": [
        {
          "internalType": "uint256",
          "name": "reduceAmount",
          "type": "uint256"
        }
      ],
      "name": "_reduceReserves",
      "outputs": [
        {
          "internalType": "uint256",
          "name": "",
          "type": "uint256"
        }
      ],
      "payable": false,
      "stateMutability": "nonpayable",
      "type": "function"
    },
    {
      "constant": false,
      "inputs": [
        {
          "internalType": "contract ComptrollerInterface",
          "name": "newComptroller",
          "type": "address"
        }
      ],
      "name": "_setComptroller",
      "outputs": [
        {
          "internalType": "uint256",
          "name": "",
          "type": "uint256"
        }
      ],
      "payable": false,
      "stateMutability": "nonpayable",
      "type": "function"
    },
    {
      "constant": false,
      "inputs": [
        {
          "internalType": "contract InterestRateModel",
          "name": "newInterestRateModel",
          "type": "address"
        }
      ],
      "name": "_setInterestRateModel",
      "outputs": [
        {
          "internalType": "uint256",
          "name": "",
          "type": "uint256"
        }
      ],
      "payable": false,
      "stateMutability": "nonpayable",
      "type": "function"
    },
    {
      "constant": false,
      "inputs": [
        {
          "internalType": "address payable",
          "name": "newPendingAdmin",
          "type": "address"
        }
      ],
      "name": "_setPendingAdmin",
      "outputs": [
        {
          "internalType": "uint256",
          "name": "",
          "type": "uint256"
        }
      ],
      "payable": false,
      "stateMutability": "nonpayable",
      "type": "function"
    },
    {
      "constant": false,
      "inputs": [
        {
          "internalType": "uint256",
          "name": "newReserveFactorMantissa",
          "type": "uint256"
        }
      ],
      "name": "_setReserveFactor",
      "outputs": [
        {
          "internalType": "uint256",
          "name": "",
          "type": "uint256"
        }
      ],
      "payable": false,
      "stateMutability": "nonpayable",
      "type": "function"
    },
    {
      "constant": true,
      "inputs": [],
      "name": "accrualBlockNumber",
      "outputs": [
        {
          "internalType": "uint256",
          "name": "",
          "type": "uint256"
        }
      ],
      "payable": false,
      "stateMutability": "view",
      "type": "function"
    },
    {
      "constant": false,
      "inputs": [],
      "name": "accrueInterest",
      "outputs": [
        {
          "internalType": "uint256",
          "name": "",
          "type": "uint256"
        }
      ],
      "payable": false,
      "stateMutability": "nonpayable",
      "type": "function"
    },
    {
      "constant": true,
      "inputs": [],
      "name": "admin",
      "outputs": [
        {
          "internalType": "address payable",
          "name": "",
          "type": "address"
        }
      ],
      "payable": false,
      "stateMutability": "view",
      "type": "function"
    },
    {
      "constant": true,
      "inputs": [
        {
          "internalType": "address",
          "name": "owner",
          "type": "address"
        },
        {
          "internalType": "address",
          "name": "spender",
          "type": "address"
        }
      ],
      "name": "allowance",
      "outputs": [
        {
          "internalType": "uint256",
          "name": "",
          "type": "uint256"
        }
      ],
      "payable": false,
      "stateMutability": "view",
      "type": "function"
    },
    {
      "constant": false,
      "inputs": [
        {
          "internalType": "address",
          "name": "spender",
          "type": "address"
        },
        {
          "internalType": "uint256",
          "name": "amount",
          "type": "uint256"
        }
      ],
      "name": "approve",
      "outputs": [
        {
          "internalType": "bool",
          "name": "",
          "type": "bool"
        }
      ],
      "payable": false,
      "stateMutability": "nonpayable",
      "type": "function"
    },
    {
      "constant": true,
      "inputs": [
        {
          "internalType": "address",
          "name": "owner",
          "type": "address"
        }
      ],
      "name": "balanceOf",
      "outputs": [
        {
          "internalType": "uint256",
          "name": "",
          "type": "uint256"
        }
      ],
      "payable": false,
      "stateMutability": "view",
      "type": "function"
    },
    {
      "constant": false,
      "inputs": [
        {
          "internalType": "address",
          "name": "owner",
          "type": "address"
        }
      ],
      "name": "balanceOfUnderlying",
      "outputs": [
        {
          "internalType": "uint256",
          "name": "",
          "type": "uint256"
        }
      ],
      "payable": false,
      "stateMutability": "nonpayable",
      "type": "function"
    },
    {
      "constant": false,
      "inputs": [
        {
          "internalType": "uint256",
          "name": "borrowAmount",
          "type": "uint256"
        }
      ],
      "name": "borrow",
      "outputs": [
        {
          "internalType": "uint256",
          "name": "",
          "type": "uint256"
        }
      ],
      "payable": false,
      "stateMutability": "nonpayable",
      "type": "function"
    },
    {
      "constant": false,
      "inputs": [
        {
          "internalType": "address",
          "name": "account",
          "type": "address"
        }
      ],
      "name": "borrowBalanceCurrent",
      "outputs": [
        {
          "internalType": "uint256",
          "name": "",
          "type": "uint256"
        }
      ],
      "payable": false,
      "stateMutability": "nonpayable",
      "type": "function"
    },
    {
      "constant": true,
      "inputs": [
        {
          "internalType": "address",
          "name": "account",
          "type": "address"
        }
      ],
      "name": "borrowBalanceStored",
      "outputs": [
        {
          "internalType": "uint256",
          "name": "",
          "type": "uint256"
        }
      ],
      "payable": false,
      "stateMutability": "view",
      "type": "function"
    },
    {
      "constant": true,
      "inputs": [],
      "name": "borrowIndex",
      "outputs": [
        {
          "internalType": "uint256",
          "name": "",
          "type": "uint256"
        }
      ],
      "payable": false,
      "stateMutability": "view",
      "type": "function"
    },
    {
      "constant": true,
      "inputs": [],
      "name": "borrowRatePerBlock",
      "outputs": [
        {
          "internalType": "uint256",
          "name": "",
          "type": "uint256"
        }
      ],
      "payable": false,
      "stateMutability": "view",
      "type": "function"
    },
    {
      "constant": true,
      "inputs": [],
      "name": "comptroller",
      "outputs": [
        {
          "internalType": "contract ComptrollerInterface",
          "name": "",
          "type": "address"
        }
      ],
      "payable": false,
      "stateMutability": "view",
      "type": "function"
    },
    {
      "constant": true,
      "inputs": [],
      "name": "decimals",
      "outputs": [
        {
          "internalType": "uint8",
          "name": "",
          "type": "uint8"
        }
      ],
      "payable": false,
      "stateMutability": "view",
      "type": "function"
    },
    {
      "constant": false,
      "inputs": [],
      "name": "exchangeRateCurrent",
      "outputs": [
        {
          "internalType": "uint256",
          "name": "",
          "type": "uint256"
        }
      ],
      "payable": false,
      "stateMutability": "nonpayable",
      "type": "function"
    },
    {
      "constant": true,
      "inputs": [],
      "name": "exchangeRateStored",
      "outputs": [
        {
          "internalType": "uint256",
          "name": "",
          "type": "uint256"
        }
      ],
      "payable": false,
      "stateMutability": "view",
      "type": "function"
    },
    {
      "constant": true,
      "inputs": [
        {
          "internalType": "address",
          "name": "account",
          "type": "address"
        }
      ],
      "name": "getAccountSnapshot",
      "outputs": [
        {
          "internalType": "uint256",
          "name": "",
          "type": "uint256"
        },
        {
          "internalType": "uint256",
          "name": "",
          "type": "uint256"
        },
        {
          "internalType": "uint256",
          "name": "",
          "type": "uint256"
        },
        {
          "internalType": "uint256",
          "name": "",
          "type": "uint256"
        }
      ],
      "payable": false,
      "stateMutability": "view",
      "type": "function"
    },
    {
      "constant": true,
      "inputs": [],
      "name": "getCash",
      "outputs": [
        {
          "internalType": "uint256",
          "name": "",
          "type": "uint256"
        }
      ],
      "payable": false,
      "stateMutability": "view",
      "type": "function"
    },
    {
      "constant": true,
      "inputs": [],
      "name": "initialExchangeRateMantissa",
      "outputs": [
        {
          "internalType": "uint256",
          "name": "",
          "type": "uint256"
        }
      ],
      "payable": false,
      "stateMutability": "view",
      "type": "function"
    },
    {
      "constant": false,
      "inputs": [
        {
          "internalType": "contract ComptrollerInterface",
          "name": "comptroller_",
          "type": "address"
        },
        {
          "internalType": "contract InterestRateModel",
          "name": "interestRateModel_",
          "type": "address"
        },
        {
          "internalType": "uint256",
          "name": "initialExchangeRateMantissa_",
          "type": "uint256"
        },
        {
          "internalType": "string",
          "name": "name_",
          "type": "string"
        },
        {
          "internalType": "string",
          "name": "symbol_",
          "type": "string"
        },
        {
          "internalType": "uint8",
          "name": "decimals_",
          "type": "uint8"
        }
      ],
      "name": "initialize",
      "outputs": [],
      "payable": false,
      "stateMutability": "nonpayable",
      "type": "function"
    },
    {
      "constant": true,
      "inputs": [],
      "name": "interestRateModel",
      "outputs": [
        {
          "internalType": "contract InterestRateModel",
          "name": "",
          "type": "address"
        }
      ],
      "payable": false,
      "stateMutability": "view",
      "type": "function"
    },
    {
      "constant": true,
      "inputs": [],
      "name": "isCToken",
      "outputs": [
        {
          "internalType": "bool",
          "name": "",
          "type": "bool"
        }
      ],
      "payable": false,
      "stateMutability": "view",
      "type": "function"
    },
    {
      "constant": false,
      "inputs": [
        {
          "internalType": "address",
          "name": "borrower",
          "type": "address"
        },
        {
          "internalType": "contract CToken",
          "name": "cTokenCollateral",
          "type": "address"
        }
      ],
      "name": "liquidateBorrow",
      "outputs": [],
      "payable": true,
      "stateMutability": "payable",
      "type": "function"
    },
    {
      "constant": false,
      "inputs": [],
      "name": "mint",
      "outputs": [],
      "payable": true,
      "stateMutability": "payable",
      "type": "function"
    },
    {
      "constant": true,
      "inputs": [],
      "name": "name",
      "outputs": [
        {
          "internalType": "string",
          "name": "",
          "type": "string"
        }
      ],
      "payable": false,
      "stateMutability": "view",
      "type": "function"
    },
    {
      "constant": true,
      "inputs": [],
      "name": "pendingAdmin",
      "outputs": [
        {
          "internalType": "address payable",
          "name": "",
          "type": "address"
        }
      ],
      "payable": false,
      "stateMutability": "view",
      "type": "function"
    },
    {
      "constant": false,
      "inputs": [
        {
          "internalType": "uint256",
          "name": "redeemTokens",
          "type": "uint256"
        }
      ],
      "name": "redeem",
      "outputs": [
        {
          "internalType": "uint256",
          "name": "",
          "type": "uint256"
        }
      ],
      "payable": false,
      "stateMutability": "nonpayable",
      "type": "function"
    },
    {
      "constant": false,
      "inputs": [
        {
          "internalType": "uint256",
          "name": "redeemAmount",
          "type": "uint256"
        }
      ],
      "name": "redeemUnderlying",
      "outputs": [
        {
          "internalType": "uint256",
          "name": "",
          "type": "uint256"
        }
      ],
      "payable": false,
      "stateMutability": "nonpayable",
      "type": "function"
    },
    {
      "constant": false,
      "inputs": [],
      "name": "repayBorrow",
      "outputs": [],
      "payable": true,
      "stateMutability": "payable",
      "type": "function"
    },
    {
      "constant": false,
      "inputs": [
        {
          "internalType": "address",
          "name": "borrower",
          "type": "address"
        }
      ],
      "name": "repayBorrowBehalf",
      "outputs": [],
      "payable": true,
      "stateMutability": "payable",
      "type": "function"
    },
    {
      "constant": true,
      "inputs": [],
      "name": "reserveFactorMantissa",
      "outputs": [
        {
          "internalType": "uint256",
          "name": "",
          "type": "uint256"
        }
      ],
      "payable": false,
      "stateMutability": "view",
      "type": "function"
    },
    {
      "constant": false,
      "inputs": [
        {
          "internalType": "address",
          "name": "liquidator",
          "type": "address"
        },
        {
          "internalType": "address",
          "name": "borrower",
          "type": "address"
        },
        {
          "internalType": "uint256",
          "name": "seizeTokens",
          "type": "uint256"
        }
      ],
      "name": "seize",
      "outputs": [
        {
          "internalType": "uint256",
          "name": "",
          "type": "uint256"
        }
      ],
      "payable": false,
      "stateMutability": "nonpayable",
      "type": "function"
    },
    {
      "constant": true,
      "inputs": [],
      "name": "subsidyFund",
      "outputs": [
        {
          "internalType": "uint256",
          "name": "",
          "type": "uint256"
        }
      ],
      "payable": false,
      "stateMutability": "view",
      "type": "function"
    },
    {
      "constant": true,
      "inputs": [],
      "name": "supplyRatePerBlock",
      "outputs": [
        {
          "internalType": "uint256",
          "name": "",
          "type": "uint256"
        }
      ],
      "payable": false,
      "stateMutability": "view",
      "type": "function"
    },
    {
      "constant": true,
      "inputs": [],
      "name": "symbol",
      "outputs": [
        {
          "internalType": "string",
          "name": "",
          "type": "string"
        }
      ],
      "payable": false,
      "stateMutability": "view",
      "type": "function"
    },
    {
      "constant": true,
      "inputs": [],
      "name": "totalBorrows",
      "outputs": [
        {
          "internalType": "uint256",
          "name": "",
          "type": "uint256"
        }
      ],
      "payable": false,
      "stateMutability": "view",
      "type": "function"
    },
    {
      "constant": false,
      "inputs": [],
      "name": "totalBorrowsCurrent",
      "outputs": [
        {
          "internalType": "uint256",
          "name": "",
          "type": "uint256"
        }
      ],
      "payable": false,
      "stateMutability": "nonpayable",
      "type": "function"
    },
    {
      "constant": true,
      "inputs": [],
      "name": "totalReserves",
      "outputs": [
        {
          "internalType": "uint256",
          "name": "",
          "type": "uint256"
        }
      ],
      "payable": false,
      "stateMutability": "view",
      "type": "function"
    },
    {
      "constant": true,
      "inputs": [],
      "name": "totalSupply",
      "outputs": [
        {
          "internalType": "uint256",
          "name": "",
          "type": "uint256"
        }
      ],
      "payable": false,
      "stateMutability": "view",
      "type": "function"
    },
    {
      "constant": false,
      "inputs": [
        {
          "internalType": "address",
          "name": "dst",
          "type": "address"
        },
        {
          "internalType": "uint256",
          "name": "amount",
          "type": "uint256"
        }
      ],
      "name": "transfer",
      "outputs": [
        {
          "internalType": "bool",
          "name": "",
          "type": "bool"
        }
      ],
      "payable": false,
      "stateMutability": "nonpayable",
      "type": "function"
    },
    {
      "constant": false,
      "inputs": [
        {
          "internalType": "address",
          "name": "src",
          "type": "address"
        },
        {
          "internalType": "address",
          "name": "dst",
          "type": "address"
        },
        {
          "internalType": "uint256",
          "name": "amount",
          "type": "uint256"
        }
      ],
      "name": "transferFrom",
      "outputs": [
        {
          "internalType": "bool",
          "name": "",
          "type": "bool"
        }
      ],
      "payable": false,
      "stateMutability": "nonpayable",
      "type": "function"
    }
  ],
  "transactionHash": "0x7703726ea7d83d9fac6b854103b0509c8652c86bf70ac4f15ca809d5b6f9522a",
  "args": [
    "0x9A676e781A523b5d0C0e43731313A708CB607508",
    "0x4ed7c70F96B99c776995fB64377f0d4aB3B0e1C1",
    "20000000000000000",
    "tropykus RBTC",
    "cRBTC",
    18,
    "0xf39Fd6e51aad88F6F4ce6aB8827279cffFb92266"
  ],
  "solcInputHash": "f248c35aedbb668446e4c5a0022a767b",
  "bytecode": "0x60806040523480156200001157600080fd5b50604051620060a4380380620060a4833981810160405260e08110156200003757600080fd5b8151602083015160408085015160608601805192519496939591949391820192846401000000008211156200006b57600080fd5b9083019060208201858111156200008157600080fd5b82516401000000008111828201881017156200009c57600080fd5b82525081516020918201929091019080838360005b83811015620000cb578181015183820152602001620000b1565b50505050905090810190601f168015620000f95780820380516001836020036101000a031916815260200191505b50604052602001805160405193929190846401000000008211156200011d57600080fd5b9083019060208201858111156200013357600080fd5b82516401000000008111828201881017156200014e57600080fd5b82525081516020918201929091019080838360005b838110156200017d57818101518382015260200162000163565b50505050905090810190601f168015620001ab5780820380516001836020036101000a031916815260200191505b506040908152602082015191015160038054610100600160a81b03191633610100021790559092509050620001e587878787878762000218565b600380546001600160a01b0390921661010002610100600160a81b03199092169190911790555062000853945050505050565b60035461010090046001600160a01b03163314620002685760405162461bcd60e51b81526004018080602001828103825260248152602001806200600b6024913960400191505060405180910390fd5b600954158015620002795750600a54155b620002b65760405162461bcd60e51b81526004018080602001828103825260238152602001806200602f6023913960400191505060405180910390fd5b600784905583620002f95760405162461bcd60e51b8152600401808060200182810382526030815260200180620060526030913960400191505060405180910390fd5b60006200030f876001600160e01b036200042e16565b9050801562000365576040805162461bcd60e51b815260206004820152601a60248201527f73657474696e6720636f6d7074726f6c6c6572206661696c6564000000000000604482015290519081900360640190fd5b620003786001600160e01b036200059616565b600955670de0b6b3a7640000600a556200039b866001600160e01b036200059b16565b90508015620003dc5760405162461bcd60e51b8152600401808060200182810382526022815260200180620060826022913960400191505060405180910390fd5b8351620003f1906001906020870190620007b1565b50825162000407906002906020860190620007b1565b50506003805460ff90921660ff199283161790556000805490911660011790555050505050565b60035460009061010090046001600160a01b031633146200046857620004606001603f6001600160e01b036200074116565b905062000591565b60055460408051623f1ee960e11b815290516001600160a01b0392831692851691627e3dd2916004808301926020929190829003018186803b158015620004ae57600080fd5b505afa158015620004c3573d6000803e3d6000fd5b505050506040513d6020811015620004da57600080fd5b50516200052e576040805162461bcd60e51b815260206004820152601c60248201527f6d61726b6572206d6574686f642072657475726e65642066616c736500000000604482015290519081900360640190fd5b600580546001600160a01b0319166001600160a01b03858116918217909255604080519284168352602083019190915280517f7ac369dbd14fa5ea3f473ed67cc9d598964a77501540ba6751eb0b3decf5870d9281900390910190a160005b9150505b919050565b435b90565b600354600090819061010090046001600160a01b03163314620005d857620005cf600160426001600160e01b036200074116565b91505062000591565b620005eb6001600160e01b036200059616565b600954146200060b57620005cf600a60416001600160e01b036200074116565b600660009054906101000a90046001600160a01b03169050826001600160a01b0316632191f92a6040518163ffffffff1660e01b815260040160206040518083038186803b1580156200065d57600080fd5b505afa15801562000672573d6000803e3d6000fd5b505050506040513d60208110156200068957600080fd5b5051620006dd576040805162461bcd60e51b815260206004820152601c60248201527f6d61726b6572206d6574686f642072657475726e65642066616c736500000000604482015290519081900360640190fd5b600680546001600160a01b0319166001600160a01b03858116918217909255604080519284168352602083019190915280517fedffc32e068c7c95dfd4bdfd5c4d939a084d6b11c4199eac8436ed234d72f9269281900390910190a160006200058d565b60007f45b96fe442630264581b197e84bbada861235052c5a1aadfff9ea4e40a969aa08360108111156200077157fe5b8360528111156200077e57fe5b604080519283526020830191909152600082820152519081900360600190a1826010811115620007aa57fe5b9392505050565b828054600181600116156101000203166002900490600052602060002090601f016020900481019282601f10620007f457805160ff191683800117855562000824565b8280016001018555821562000824579182015b828111156200082457825182559160200191906001019062000807565b506200083292915062000836565b5090565b6200059891905b808211156200083257600081556001016200083d565b6157a880620008636000396000f3fe6080604052600436106102885760003560e01c80638f840ddd1161015a578063c37f68e2116100c1578063f2b3abbd1161007a578063f2b3abbd14610a62578063f3fdb15a14610a95578063f851a44014610aaa578063f8f9da2814610abf578063fca7820b14610ad4578063fe9c44ae14610afe57610288565b8063c37f68e21461093f578063c5ebeaec14610998578063db006a75146109c2578063dd62ed3e146109ec578063e597461914610a27578063e9c714f214610a4d57610288565b8063aa5af0fd11610113578063aa5af0fd1461085c578063aae40a2a14610871578063ae9d70b01461089f578063b2a02ff1146108b4578063b71d1a0c146108f7578063bd6d894d1461092a57610288565b80638f840ddd1461065257806395d89b411461066757806395dd91931461067c57806399d8c1b4146106af578063a6afed951461080e578063a9059cbb1461082357610288565b80633af9e669116101fe578063601a0bf1116101b7578063601a0bf11461058c578063675d972c146105b65780636c540baf146105cb57806370a08231146105e057806373acee9814610613578063852a12e31461062857610288565b80633af9e669146104df5780633b1d21a2146105125780634576b5db1461052757806347bd37181461055a5780634e4d9fea1461056f5780635fe3b5671461057757610288565b806318160ddd1161025057806318160ddd14610401578063182df0f5146104165780631df0ba9d1461042b57806323b872dd146104405780632678224714610483578063313ce567146104b457610288565b806306fdde03146102c6578063095ea7b3146103505780631249c58b1461039d578063173b9904146103a757806317bfdfbc146103ce575b600061029334610b13565b5090506102c3816040518060400160405280600b81526020016a1b5a5b9d0819985a5b195960aa1b815250610bbb565b50005b3480156102d257600080fd5b506102db610dbb565b6040805160208082528351818301528351919283929083019185019080838360005b838110156103155781810151838201526020016102fd565b50505050905090810190601f1680156103425780820380516001836020036101000a031916815260200191505b509250505060405180910390f35b34801561035c57600080fd5b506103896004803603604081101561037357600080fd5b506001600160a01b038135169060200135610e48565b604080519115158252519081900360200190f35b6103a5610eb5565b005b3480156103b357600080fd5b506103bc610ef3565b60408051918252519081900360200190f35b3480156103da57600080fd5b506103bc600480360360208110156103f157600080fd5b50356001600160a01b0316610ef9565b34801561040d57600080fd5b506103bc610fb9565b34801561042257600080fd5b506103bc610fbf565b34801561043757600080fd5b506103bc611022565b34801561044c57600080fd5b506103896004803603606081101561046357600080fd5b506001600160a01b03813581169160208101359091169060400135611028565b34801561048f57600080fd5b5061049861109a565b604080516001600160a01b039092168252519081900360200190f35b3480156104c057600080fd5b506104c96110a9565b6040805160ff9092168252519081900360200190f35b3480156104eb57600080fd5b506103bc6004803603602081101561050257600080fd5b50356001600160a01b03166110b2565b34801561051e57600080fd5b506103bc61116a565b34801561053357600080fd5b506103bc6004803603602081101561054a57600080fd5b50356001600160a01b0316611179565b34801561056657600080fd5b506103bc6112ce565b6103a56112d4565b34801561058357600080fd5b50610498611316565b34801561059857600080fd5b506103bc600480360360208110156105af57600080fd5b5035611325565b3480156105c257600080fd5b506103bc6113c0565b3480156105d757600080fd5b506103bc6113c6565b3480156105ec57600080fd5b506103bc6004803603602081101561060357600080fd5b50356001600160a01b03166113cc565b34801561061f57600080fd5b506103bc6113e7565b34801561063457600080fd5b506103bc6004803603602081101561064b57600080fd5b503561149d565b34801561065e57600080fd5b506103bc6114a8565b34801561067357600080fd5b506102db6114ae565b34801561068857600080fd5b506103bc6004803603602081101561069f57600080fd5b50356001600160a01b0316611506565b3480156106bb57600080fd5b506103a5600480360360c08110156106d257600080fd5b6001600160a01b0382358116926020810135909116916040820135919081019060808101606082013564010000000081111561070d57600080fd5b82018360208201111561071f57600080fd5b8035906020019184600183028401116401000000008311171561074157600080fd5b91908080601f016020809104026020016040519081016040528093929190818152602001838380828437600092019190915250929594936020810193503591505064010000000081111561079457600080fd5b8201836020820111156107a657600080fd5b803590602001918460018302840111640100000000831117156107c857600080fd5b91908080601f0160208091040260200160405190810160405280939291908181526020018383808284376000920191909152509295505050903560ff1691506115639050565b34801561081a57600080fd5b506103bc61174a565b34801561082f57600080fd5b506103896004803603604081101561084657600080fd5b506001600160a01b038135169060200135611b59565b34801561086857600080fd5b506103bc611bca565b6103a56004803603604081101561088757600080fd5b506001600160a01b0381358116916020013516611bd0565b3480156108ab57600080fd5b506103bc611c1d565b3480156108c057600080fd5b506103bc600480360360608110156108d757600080fd5b506001600160a01b03813581169160208101359091169060400135611cbc565b34801561090357600080fd5b506103bc6004803603602081101561091a57600080fd5b50356001600160a01b0316611d2d565b34801561093657600080fd5b506103bc611db9565b34801561094b57600080fd5b506109726004803603602081101561096257600080fd5b50356001600160a01b0316611e75565b604080519485526020850193909352838301919091526060830152519081900360800190f35b3480156109a457600080fd5b506103bc600480360360208110156109bb57600080fd5b5035611f0a565b3480156109ce57600080fd5b506103bc600480360360208110156109e557600080fd5b5035611f15565b3480156109f857600080fd5b506103bc60048036036040811015610a0f57600080fd5b506001600160a01b0381358116916020013516611f20565b6103a560048036036020811015610a3d57600080fd5b50356001600160a01b0316611f4b565b348015610a5957600080fd5b506103bc611f99565b348015610a6e57600080fd5b506103bc60048036036020811015610a8557600080fd5b50356001600160a01b031661209c565b348015610aa157600080fd5b506104986120d6565b348015610ab657600080fd5b506104986120e5565b348015610acb57600080fd5b506103bc6120f9565b348015610ae057600080fd5b506103bc60048036036020811015610af757600080fd5b503561215d565b348015610b0a57600080fd5b506103896121db565b60008054819060ff16610b5a576040805162461bcd60e51b815260206004820152600a6024820152691c994b595b9d195c995960b21b604482015290519081900360640190fd5b6000805460ff19168155610b6c61174a565b90508015610b9757610b8a816010811115610b8357fe5b601e6121e0565b925060009150610ba79050565b610ba13385612246565b92509250505b6000805460ff191660011790559092909150565b81610bc557610db7565b606081516005016040519080825280601f01601f191660200182016040528015610bf6576020820181803883390190505b50905060005b8251811015610c4757828181518110610c1157fe5b602001015160f81c60f81b828281518110610c2857fe5b60200101906001600160f81b031916908160001a905350600101610bfc565b8151600160fd1b90839083908110610c5b57fe5b60200101906001600160f81b031916908160001a905350602860f81b828260010181518110610c8657fe5b60200101906001600160f81b031916908160001a905350600a840460300160f81b828260020181518110610cb657fe5b60200101906001600160f81b031916908160001a905350600a840660300160f81b828260030181518110610ce657fe5b60200101906001600160f81b031916908160001a905350602960f81b828260040181518110610d1157fe5b60200101906001600160f81b031916908160001a905350818415610db35760405162461bcd60e51b81526004018080602001828103825283818151815260200191508051906020019080838360005b83811015610d78578181015183820152602001610d60565b50505050905090810190601f168015610da55780820380516001836020036101000a031916815260200191505b509250505060405180910390fd5b5050505b5050565b60018054604080516020600284861615610100026000190190941693909304601f81018490048402820184019092528181529291830182828015610e405780601f10610e1557610100808354040283529160200191610e40565b820191906000526020600020905b815481529060010190602001808311610e2357829003601f168201915b505050505081565b3360008181526010602090815260408083206001600160a01b03871680855290835281842086905581518681529151939493909284927f8c5be1e5ebec7d5bd14f71427d1e84f3dd0314c0f7b2291e5b200ac8c7c3b925929081900390910190a360019150505b92915050565b6000610ec034610b13565b509050610ef0816040518060400160405280600b81526020016a1b5a5b9d0819985a5b195960aa1b815250610bbb565b50565b60085481565b6000805460ff16610f3e576040805162461bcd60e51b815260206004820152600a6024820152691c994b595b9d195c995960b21b604482015290519081900360640190fd5b6000805460ff19168155610f5061174a565b14610f9b576040805162461bcd60e51b81526020600482015260166024820152751858d8dc9d59481a5b9d195c995cdd0819985a5b195960521b604482015290519081900360640190fd5b610fa482611506565b90505b6000805460ff19166001179055919050565b600d5481565b6000806000610fcc612931565b90925090506000826003811115610fdf57fe5b1461101b5760405162461bcd60e51b81526004018080602001828103825260358152602001806156bf6035913960400191505060405180910390fd5b9150505b90565b600e5481565b6000805460ff1661106d576040805162461bcd60e51b815260206004820152600a6024820152691c994b595b9d195c995960b21b604482015290519081900360640190fd5b6000805460ff1916815561108333868686612a04565b1490506000805460ff191660011790559392505050565b6004546001600160a01b031681565b60035460ff1681565b60006110bc6153ad565b60405180602001604052806110cf611db9565b90526001600160a01b0384166000908152600f60205260408120549192509081906110fb908490612c92565b9092509050600082600381111561110e57fe5b14611160576040805162461bcd60e51b815260206004820152601f60248201527f62616c616e636520636f756c64206e6f742062652063616c63756c6174656400604482015290519081900360640190fd5b925050505b919050565b6000611174612ce5565b905090565b60035460009061010090046001600160a01b031633146111a65761119f6001603f6121e0565b9050611165565b60055460408051623f1ee960e11b815290516001600160a01b0392831692851691627e3dd2916004808301926020929190829003018186803b1580156111eb57600080fd5b505afa1580156111ff573d6000803e3d6000fd5b505050506040513d602081101561121557600080fd5b5051611268576040805162461bcd60e51b815260206004820152601c60248201527f6d61726b6572206d6574686f642072657475726e65642066616c736500000000604482015290519081900360640190fd5b600580546001600160a01b0319166001600160a01b03858116918217909255604080519284168352602083019190915280517f7ac369dbd14fa5ea3f473ed67cc9d598964a77501540ba6751eb0b3decf5870d9281900390910190a160005b9392505050565b600b5481565b60006112df34612dd6565b509050610ef081604051806040016040528060128152602001711c995c185e509bdc9c9bddc819985a5b195960721b815250610bbb565b6005546001600160a01b031681565b6000805460ff1661136a576040805162461bcd60e51b815260206004820152600a6024820152691c994b595b9d195c995960b21b604482015290519081900360640190fd5b6000805460ff1916815561137c61174a565b905080156113a25761139a81601081111561139357fe5b60306121e0565b915050610fa7565b6113ab83612e58565b9150506000805460ff19166001179055919050565b60075481565b60095481565b6001600160a01b03166000908152600f602052604090205490565b6000805460ff1661142c576040805162461bcd60e51b815260206004820152600a6024820152691c994b595b9d195c995960b21b604482015290519081900360640190fd5b6000805460ff1916815561143e61174a565b14611489576040805162461bcd60e51b81526020600482015260166024820152751858d8dc9d59481a5b9d195c995cdd0819985a5b195960521b604482015290519081900360640190fd5b50600b546000805460ff1916600117905590565b6000610eaf82612f8b565b600c5481565b6002805460408051602060018416156101000260001901909316849004601f81018490048402820184019092528181529291830182828015610e405780601f10610e1557610100808354040283529160200191610e40565b60008060006115148461300c565b9092509050600082600381111561152757fe5b146112c75760405162461bcd60e51b81526004018080602001828103825260378152602001806155ca6037913960400191505060405180910390fd5b60035461010090046001600160a01b031633146115b15760405162461bcd60e51b81526004018080602001828103825260248152602001806155066024913960400191505060405180910390fd5b6009541580156115c15750600a54155b6115fc5760405162461bcd60e51b815260040180806020018281038252602381526020018061552a6023913960400191505060405180910390fd5b60078490558361163d5760405162461bcd60e51b815260040180806020018281038252603081526020018061554d6030913960400191505060405180910390fd5b600061164887611179565b9050801561169d576040805162461bcd60e51b815260206004820152601a60248201527f73657474696e6720636f6d7074726f6c6c6572206661696c6564000000000000604482015290519081900360640190fd5b6116a56130c0565b600955670de0b6b3a7640000600a556116bd866130c4565b905080156116fc5760405162461bcd60e51b815260040180806020018281038252602281526020018061557d6022913960400191505060405180910390fd5b835161170f9060019060208701906153c0565b5082516117239060029060208601906153c0565b50506003805460ff90921660ff199283161790556000805490911660011790555050505050565b6000806117556130c0565b6009549091508082141561176e5760009250505061101f565b6000611778612ce5565b600b54600c54600a54600654604080516315f2405360e01b815260048101879052602481018690526044810185905290519596509394929391926000926001600160a01b03909216916315f24053916064808301926020929190829003018186803b1580156117e657600080fd5b505afa1580156117fa573d6000803e3d6000fd5b505050506040513d602081101561181057600080fd5b5051905065048c2739500081111561186f576040805162461bcd60e51b815260206004820152601c60248201527f626f72726f772072617465206973206162737572646c79206869676800000000604482015290519081900360640190fd5b60008061187c8989613239565b9092509050600082600381111561188f57fe5b146118e1576040805162461bcd60e51b815260206004820152601f60248201527f636f756c64206e6f742063616c63756c61746520626c6f636b2064656c746100604482015290519081900360640190fd5b6118e96153ad565b60008060008061190760405180602001604052808a8152508761325c565b9097509450600087600381111561191a57fe5b1461194c576119376009600689600381111561193257fe5b6132c4565b9e50505050505050505050505050505061101f565b611956858c612c92565b9097509350600087600381111561196957fe5b14611981576119376009600189600381111561193257fe5b61198b848c61332a565b9097509250600087600381111561199e57fe5b146119b6576119376009600489600381111561193257fe5b6119d16040518060200160405280600854815250858c613350565b909750915060008760038111156119e457fe5b146119fc576119376009600589600381111561193257fe5b600660009054906101000a90046001600160a01b03166001600160a01b031663e36c26e46040518163ffffffff1660e01b815260040160206040518083038186803b158015611a4a57600080fd5b505afa158015611a5e573d6000803e3d6000fd5b505050506040513d6020811015611a7457600080fd5b505115611ab357611a88888d8d8d886133ac565b90975091506000876003811115611a9b57fe5b14611ab3576119376009600589600381111561193257fe5b611abe858a8b613350565b90975090506000876003811115611ad157fe5b14611ae9576119376009600389600381111561193257fe5b60098e9055600a819055600b839055600c829055604080518d8152602081018690528082018390526060810185905290517f4dec04e750ca11537cabcd8a9eab06494de08da3735bc8871cd41250e190bc049181900360800190a160009e50505050505050505050505050505090565b6000805460ff16611b9e576040805162461bcd60e51b815260206004820152600a6024820152691c994b595b9d195c995960b21b604482015290519081900360640190fd5b6000805460ff19168155611bb433338686612a04565b1490506000805460ff1916600117905592915050565b600a5481565b6000611bdd833484613621565b509050611c1881604051806040016040528060168152602001751b1a5c5d5a59185d19509bdc9c9bddc819985a5b195960521b815250610bbb565b505050565b6006546000906001600160a01b031663b8168816611c39612ce5565b600b54600c546008546040518563ffffffff1660e01b81526004018085815260200184815260200183815260200182815260200194505050505060206040518083038186803b158015611c8b57600080fd5b505afa158015611c9f573d6000803e3d6000fd5b505050506040513d6020811015611cb557600080fd5b5051905090565b6000805460ff16611d01576040805162461bcd60e51b815260206004820152600a6024820152691c994b595b9d195c995960b21b604482015290519081900360640190fd5b6000805460ff19169055611d1733858585613753565b90506000805460ff191660011790559392505050565b60035460009061010090046001600160a01b03163314611d535761119f600160456121e0565b600480546001600160a01b038481166001600160a01b0319831681179093556040805191909216808252602082019390935281517fca4f2f25d0898edd99413412fb94012f9e54ec8142f9b093e7720646a95b16a9929181900390910190a160006112c7565b6000805460ff16611dfe576040805162461bcd60e51b815260206004820152600a6024820152691c994b595b9d195c995960b21b604482015290519081900360640190fd5b6000805460ff19168155611e1061174a565b14611e5b576040805162461bcd60e51b81526020600482015260166024820152751858d8dc9d59481a5b9d195c995cdd0819985a5b195960521b604482015290519081900360640190fd5b611e63610fbf565b90506000805460ff1916600117905590565b6001600160a01b0381166000908152600f6020526040812054819081908190818080611ea08961300c565b935090506000816003811115611eb257fe5b14611ed05760095b975060009650869550859450611f039350505050565b611ed8612931565b925090506000816003811115611eea57fe5b14611ef6576009611eba565b5060009650919450925090505b9193509193565b6000610eaf8261392f565b6000610eaf826139ae565b6001600160a01b03918216600090815260106020908152604080832093909416825291909152205490565b6000611f578234613a28565b509050610db7816040518060400160405280601881526020017f7265706179426f72726f77426568616c66206661696c65640000000000000000815250610bbb565b6004546000906001600160a01b031633141580611fb4575033155b15611fcc57611fc5600160006121e0565b905061101f565b60038054600480546001600160a01b03818116610100818102610100600160a81b0319871617968790556001600160a01b031990931690935560408051948390048216808652929095041660208401528351909391927ff9ffabca9c8276e99321725bcb43fb076a6c66a54b7f21c4e8146d8519b417dc92908290030190a1600454604080516001600160a01b038085168252909216602083015280517fca4f2f25d0898edd99413412fb94012f9e54ec8142f9b093e7720646a95b16a99281900390910190a160009250505090565b6000806120a761174a565b905080156120cd576120c58160108111156120be57fe5b60406121e0565b915050611165565b6112c7836130c4565b6006546001600160a01b031681565b60035461010090046001600160a01b031681565b6006546000906001600160a01b03166315f24053612115612ce5565b600b54600c546040518463ffffffff1660e01b815260040180848152602001838152602001828152602001935050505060206040518083038186803b158015611c8b57600080fd5b6000805460ff166121a2576040805162461bcd60e51b815260206004820152600a6024820152691c994b595b9d195c995960b21b604482015290519081900360640190fd5b6000805460ff191681556121b461174a565b905080156121d25761139a8160108111156121cb57fe5b60466121e0565b6113ab83613ad3565b600181565b60007f45b96fe442630264581b197e84bbada861235052c5a1aadfff9ea4e40a969aa083601081111561220f57fe5b83605281111561221b57fe5b604080519283526020830191909152600082820152519081900360600190a18260108111156112c757fe5b60055460408051634ef4c3e160e01b81523060048201526001600160a01b03858116602483015260448201859052915160009384938493911691634ef4c3e19160648082019260209290919082900301818787803b1580156122a757600080fd5b505af11580156122bb573d6000803e3d6000fd5b505050506040513d60208110156122d157600080fd5b5051905080156122f5576122e86003601f836132c4565b92506000915061292a9050565b6122fd6130c0565b60095414612311576122e8600a60226121e0565b61231961543e565b612321612931565b604083018190526020830182600381111561233857fe5b600381111561234357fe5b905250600090508160200151600381111561235a57fe5b1461238457612376600960218360200151600381111561193257fe5b93506000925061292a915050565b61238e8686613b7b565b60c08201819052604080516020810182529083015181526123af9190613c17565b60608301819052602083018260038111156123c657fe5b60038111156123d157fe5b90525060009050816020015160038111156123e857fe5b1461243a576040805162461bcd60e51b815260206004820181905260248201527f4d494e545f45584348414e47455f43414c43554c4154494f4e5f4641494c4544604482015290519081900360640190fd5b61244a600d54826060015161332a565b608083018190526020830182600381111561246157fe5b600381111561246c57fe5b905250600090508160200151600381111561248357fe5b146124bf5760405162461bcd60e51b81526004018080602001828103825260288152602001806156f46028913960400191505060405180910390fd5b6001600160a01b0386166000908152600f602052604090205460608201516124e7919061332a565b60a08301819052602083018260038111156124fe57fe5b600381111561250957fe5b905250600090508160200151600381111561252057fe5b1461255c5760405162461bcd60e51b815260040180806020018281038252602b81526020018061559f602b913960400191505060405180910390fd5b6006546000906001600160a01b031663b8168816612578612ce5565b600b54600c546008546040518563ffffffff1660e01b81526004018085815260200184815260200183815260200182815260200194505050505060206040518083038186803b1580156125ca57600080fd5b505afa1580156125de573d6000803e3d6000fd5b505050506040513d60208110156125f457600080fd5b5051600654604080516338db09b960e21b815290519293506000926001600160a01b039092169163e36c26e491600480820192602092909190829003018186803b15801561264157600080fd5b505afa158015612655573d6000803e3d6000fd5b505050506040513d602081101561266b57600080fd5b50516001600160a01b0389166000908152600f602052604090205490915015612843576126966153ad565b81156127b3576126a46153ad565b5060408051602080820183526001600160a01b038c166000818152600f8084529481206003810154855260095492825294909252600290930154919290916126ec9190613239565b9150506126f76153ad565b612701838361325c565b91505061270c6153ad565b61272c6040518060200160405280670de0b6b3a764000081525083613c2e565b6001600160a01b038f166000908152600f60209081526040808320600101548151928301909152808252929450919250906127679084613c68565b97509050600081600381111561277957fe5b146127a8576127916009602083600381111561193257fe5b9c5060009b5061292a9a5050505050505050505050565b505050505050612832565b6001600160a01b0389166000908152600f6020908152604080832054815180840183528181528251938401835291880151835292916127f29190613c68565b93509050600081600381111561280457fe5b1461282f5761281c6009602083600381111561193257fe5b98506000975061292a9650505050505050565b50505b805161283e908961332a565b985050505b608080840151600d5560408051918201815260a0850151825260208083018a815260095484840190815260608086018881526001600160a01b038f166000818152600f8752879020975188559351600188015591516002870155905160039095019490945560c087015193870151835194855291840191909152815190927f4c209b5fc8ad50758f13e2e1088ba56a560dff690a1c6fef26394f4c03821c4f92908290030190a2606083015160408051918252516001600160a01b038a1691309160008051602061563b8339815191529181900360200190a3505060c00151600093509150505b9250929050565b600d5460009081908061294c57505060075460009150612a00565b6000612956612ce5565b600654600b54600c54600d5460408051639dc8bea760e01b81526004810187905260248101949094526044840192909252606483015280519394506001600160a01b0390921692639dc8bea792608480840193919291829003018186803b1580156129c057600080fd5b505afa1580156129d4573d6000803e3d6000fd5b505050506040513d60408110156129ea57600080fd5b5080516020909101519094509250612a00915050565b9091565b600554604080516317b9b84b60e31b81523060048201526001600160a01b03868116602483015285811660448301526064820185905291516000938493169163bdcdc25891608480830192602092919082900301818787803b158015612a6957600080fd5b505af1158015612a7d573d6000803e3d6000fd5b505050506040513d6020811015612a9357600080fd5b505190508015612ab257612aaa6003604a836132c4565b915050612c8a565b836001600160a01b0316856001600160a01b03161415612ad857612aaa6002604b6121e0565b60006001600160a01b038781169087161415612af75750600019612b1f565b506001600160a01b038086166000908152601060209081526040808320938a16835292905220545b600080600080612b2f8589613239565b90945092506000846003811115612b4257fe5b14612b6057612b536009604b6121e0565b9650505050505050612c8a565b6001600160a01b038a166000908152600f6020526040902054612b839089613239565b90945091506000846003811115612b9657fe5b14612ba757612b536009604c6121e0565b6001600160a01b0389166000908152600f6020526040902054612bca908961332a565b90945090506000846003811115612bdd57fe5b14612bee57612b536009604d6121e0565b6001600160a01b03808b166000908152600f6020526040808220859055918b168152208190556000198514612c46576001600160a01b03808b166000908152601060209081526040808320938f168352929052208390555b886001600160a01b03168a6001600160a01b031660008051602061563b8339815191528a6040518082815260200191505060405180910390a3600096505050505050505b949350505050565b6000806000612c9f6153ad565b612ca9868661325c565b90925090506000826003811115612cbc57fe5b14612ccd575091506000905061292a565b6000612cd882613d51565b9350935050509250929050565b6000806000612cf44734613239565b91509150600660009054906101000a90046001600160a01b03166001600160a01b031663e36c26e46040518163ffffffff1660e01b815260040160206040518083038186803b158015612d4657600080fd5b505afa158015612d5a573d6000803e3d6000fd5b505050506040513d6020811015612d7057600080fd5b505115612d8957612d8381600e54613239565b90925090505b6000826003811115612d9757fe5b1461101b576040805162461bcd60e51b815260206004820152600a60248201526926b0ba341032b93937b960b11b604482015290519081900360640190fd5b60008054819060ff16612e1d576040805162461bcd60e51b815260206004820152600a6024820152691c994b595b9d195c995960b21b604482015290519081900360640190fd5b6000805460ff19168155612e2f61174a565b90508015612e4d57610b8a816010811115612e4657fe5b60366121e0565b610ba1333386613d60565b600354600090819061010090046001600160a01b03163314612e80576120c5600160316121e0565b612e886130c0565b60095414612e9c576120c5600a60336121e0565b82612ea5612ce5565b1015612eb7576120c5600e60326121e0565b600c54831115612ecd576120c5600260346121e0565b50600c5482810390811115612f135760405162461bcd60e51b81526004018080602001828103825260248152602001806157506024913960400191505060405180910390fd5b600c819055600354612f339061010090046001600160a01b0316846140a0565b600354604080516101009092046001600160a01b0316825260208201859052818101839052517f3bad0c59cf2f06e7314077049f48a93578cd16f5ef92329f1dab1420a99c177e916060908290030190a160006112c7565b6000805460ff16612fd0576040805162461bcd60e51b815260206004820152600a6024820152691c994b595b9d195c995960b21b604482015290519081900360640190fd5b6000805460ff19168155612fe261174a565b905080156130005761139a816010811115612ff957fe5b60276121e0565b6113ab336000856140d6565b6001600160a01b0381166000908152601160205260408120805482918291829182916130435750600094508493506130bb92505050565b6130538160000154600a54614a60565b9094509250600084600381111561306657fe5b1461307b5750919350600092506130bb915050565b613089838260010154614a9f565b9094509150600084600381111561309c57fe5b146130b15750919350600092506130bb915050565b5060009450925050505b915091565b4390565b600354600090819061010090046001600160a01b031633146130ec576120c5600160426121e0565b6130f46130c0565b60095414613108576120c5600a60416121e0565b600660009054906101000a90046001600160a01b03169050826001600160a01b0316632191f92a6040518163ffffffff1660e01b815260040160206040518083038186803b15801561315957600080fd5b505afa15801561316d573d6000803e3d6000fd5b505050506040513d602081101561318357600080fd5b50516131d6576040805162461bcd60e51b815260206004820152601c60248201527f6d61726b6572206d6574686f642072657475726e65642066616c736500000000604482015290519081900360640190fd5b600680546001600160a01b0319166001600160a01b03858116918217909255604080519284168352602083019190915280517fedffc32e068c7c95dfd4bdfd5c4d939a084d6b11c4199eac8436ed234d72f9269281900390910190a160006112c7565b60008083831161325057506000905081830361292a565b5060039050600061292a565b60006132666153ad565b600080613277866000015186614a60565b9092509050600082600381111561328a57fe5b146132a95750604080516020810190915260008152909250905061292a565b60408051602081019091529081526000969095509350505050565b60007f45b96fe442630264581b197e84bbada861235052c5a1aadfff9ea4e40a969aa08460108111156132f357fe5b8460528111156132ff57fe5b604080519283526020830191909152818101859052519081900360600190a1836010811115612c8a57fe5b6000808383018481106133425760009250905061292a565b50600291506000905061292a565b600080600061335d6153ad565b613367878761325c565b9092509050600082600381111561337a57fe5b1461338b57509150600090506133a4565b61339d61339782613d51565b8661332a565b9350935050505b935093915050565b60065460408051630dce3c5b60e31b815260048101879052602481018690526044810185905290516000928392839283926001600160a01b031691636e71e2d8916064808301926020929190829003018186803b15801561340c57600080fd5b505afa158015613420573d6000803e3d6000fd5b505050506040513d602081101561343657600080fd5b505160065460085460408051635c0b440b60e11b8152600481018d9052602481018c9052604481018b90526064810192909252519293506000926001600160a01b039092169163b816881691608480820192602092909190829003018186803b1580156134a257600080fd5b505afa1580156134b6573d6000803e3d6000fd5b505050506040513d60208110156134cc57600080fd5b50516006546040805163327a176d60e11b8152600481018d9052602481018c9052604481018b905290519293506001600160a01b03909116916364f42eda91606480820192602092909190829003018186803b15801561352b57600080fd5b505afa15801561353f573d6000803e3d6000fd5b505050506040513d602081101561355557600080fd5b50511561360b576135746040518060200160405280848152508b612c92565b9095509250600085600381111561358757fe5b14613599575060009250613617915050565b6135a38382613239565b909550925060008560038111156135b657fe5b146135c8575060009250613617915050565b6135e16040518060200160405280858152508789613350565b909550935060008560038111156135f457fe5b14613606575060009250613617915050565b613613565b600094508693505b5050505b9550959350505050565b60008054819060ff16613668576040805162461bcd60e51b815260206004820152600a6024820152691c994b595b9d195c995960b21b604482015290519081900360640190fd5b6000805460ff1916815561367a61174a565b905080156136a55761369881601081111561369157fe5b600f6121e0565b92506000915061373c9050565b836001600160a01b031663a6afed956040518163ffffffff1660e01b8152600401602060405180830381600087803b1580156136e057600080fd5b505af11580156136f4573d6000803e3d6000fd5b505050506040513d602081101561370a57600080fd5b50519050801561372a5761369881601081111561372357fe5b60106121e0565b61373633878787614aca565b92509250505b6000805460ff191660011790559094909350915050565b6005546040805163d02f735160e01b81523060048201526001600160a01b038781166024830152868116604483015285811660648301526084820185905291516000938493169163d02f73519160a480830192602092919082900301818787803b1580156137c057600080fd5b505af11580156137d4573d6000803e3d6000fd5b505050506040513d60208110156137ea57600080fd5b50519050801561380157612aaa6003601b836132c4565b846001600160a01b0316846001600160a01b0316141561382757612aaa6006601c6121e0565b6001600160a01b0384166000908152600f60205260408120548190819061384e9087613239565b9093509150600083600381111561386157fe5b14613884576138796009601a85600381111561193257fe5b945050505050612c8a565b6001600160a01b0388166000908152600f60205260409020546138a7908761332a565b909350905060008360038111156138ba57fe5b146138d2576138796009601985600381111561193257fe5b6001600160a01b038088166000818152600f60209081526040808320879055938c168083529184902085905583518a81529351919360008051602061563b833981519152929081900390910190a360009998505050505050505050565b6000805460ff16613974576040805162461bcd60e51b815260206004820152600a6024820152691c994b595b9d195c995960b21b604482015290519081900360640190fd5b6000805460ff1916815561398661174a565b905080156139a45761139a81601081111561399d57fe5b60086121e0565b6113ab3384614fc0565b6000805460ff166139f3576040805162461bcd60e51b815260206004820152600a6024820152691c994b595b9d195c995960b21b604482015290519081900360640190fd5b6000805460ff19168155613a0561174a565b90508015613a1c5761139a816010811115612ff957fe5b6113ab338460006140d6565b60008054819060ff16613a6f576040805162461bcd60e51b815260206004820152600a6024820152691c994b595b9d195c995960b21b604482015290519081900360640190fd5b6000805460ff19168155613a8161174a565b90508015613aac57613a9f816010811115613a9857fe5b60356121e0565b925060009150613abd9050565b613ab7338686613d60565b92509250505b6000805460ff1916600117905590939092509050565b60035460009061010090046001600160a01b03163314613af95761119f600160476121e0565b613b016130c0565b60095414613b155761119f600a60486121e0565b670de0b6b3a7640000821115613b315761119f600260496121e0565b6008805490839055604080518281526020810185905281517faaa68312e2ea9d50e16af5068410ab56e1a1fd06037b1a35664812c30f821460929181900390910190a160006112c7565b6000336001600160a01b03841614613bcc576040805162461bcd60e51b815260206004820152600f60248201526e0e6cadcc8cae440dad2e6dac2e8c6d608b1b604482015290519081900360640190fd5b813414613c11576040805162461bcd60e51b815260206004820152600e60248201526d0ecc2d8eaca40dad2e6dac2e8c6d60931b604482015290519081900360640190fd5b50919050565b6000806000613c246153ad565b612ca9868661524c565b6000613c386153ad565b600080613c4d8660000151866000015161332a565b60408051602081019091529081529097909650945050505050565b6000613c726153ad565b600080613c8786600001518660000151614a60565b90925090506000826003811115613c9a57fe5b14613cb95750604080516020810190915260008152909250905061292a565b600080613cce6706f05b59d3b200008461332a565b90925090506000826003811115613ce157fe5b14613d035750604080516020810190915260008152909450925061292a915050565b600080613d1883670de0b6b3a7640000614a9f565b90925090506000826003811115613d2b57fe5b14613d3257fe5b604080516020810190915290815260009a909950975050505050505050565b51670de0b6b3a7640000900490565b60055460408051631200453160e11b81523060048201526001600160a01b0386811660248301528581166044830152606482018590529151600093849384939116916324008a629160848082019260209290919082900301818787803b158015613dc957600080fd5b505af1158015613ddd573d6000803e3d6000fd5b505050506040513d6020811015613df357600080fd5b505190508015613e1757613e0a60036038836132c4565b9250600091506133a49050565b613e1f6130c0565b60095414613e3357613e0a600a60396121e0565b613e3b61547c565b6001600160a01b0386166000908152601160205260409020600101546060820152613e658661300c565b6080830181905260208301826003811115613e7c57fe5b6003811115613e8757fe5b9052506000905081602001516003811115613e9e57fe5b14613ec857613eba600960378360200151600381111561193257fe5b9350600092506133a4915050565b600019851415613ee15760808101516040820152613ee9565b604081018590525b613ef7878260400151613b7b565b60e082018190526080820151613f0c91613239565b60a0830181905260208301826003811115613f2357fe5b6003811115613f2e57fe5b9052506000905081602001516003811115613f4557fe5b14613f815760405162461bcd60e51b815260040180806020018281038252603a815260200180615601603a913960400191505060405180910390fd5b613f91600b548260e00151613239565b60c0830181905260208301826003811115613fa857fe5b6003811115613fb357fe5b9052506000905081602001516003811115613fca57fe5b146140065760405162461bcd60e51b815260040180806020018281038252603181526020018061565b6031913960400191505060405180910390fd5b60a0810180516001600160a01b03808916600081815260116020908152604091829020948555600a5460019095019490945560c0860151600b81905560e087015195518251968752948601949094528481019390935291519192908a16917f1a2a22cb034d26d1854bdc6666a5b91fe25efbbb5dcad3b0355478d6f5c362a19181900360600190a360e00151600097909650945050505050565b6040516001600160a01b0383169082156108fc029083906000818181858888f19350505050158015611c18573d6000803e3d6000fd5b60008215806140e3575081155b61411e5760405162461bcd60e51b815260040180806020018281038252603481526020018061571c6034913960400191505060405180910390fd5b61412661547c565b6001600160a01b0385166000908152600f60205260409020614146612931565b604084018190526020840182600381111561415d57fe5b600381111561416857fe5b905250600090508260200151600381111561417f57fe5b146141a45761419b6009602b8460200151600381111561193257fe5b925050506112c7565b6000806000600660009054906101000a90046001600160a01b03166001600160a01b031663e36c26e46040518163ffffffff1660e01b815260040160206040518083038186803b1580156141f757600080fd5b505afa15801561420b573d6000803e3d6000fd5b505050506040513d602081101561422157600080fd5b5051905080156142f15760038401546142386153ad565b6040518060200160405280838152509050600061425b6009548860020154613239565b9150506142666153ad565b614270838361325c565b91505061427b6153ad565b61429b6040518060200160405280670de0b6b3a764000081525083613c2e565b60018b015490925090506142ad6153ad565b5060408051602081019091528181526142c46153ad565b6142ce8483613c68565b805160018f018190559092506142e5915084613239565b9b505050505050505050505b60095460028501556006546001600160a01b031663b8168816614312612ce5565b600b54600c546008546040518563ffffffff1660e01b81526004018085815260200184815260200183815260200182815260200194505050505060206040518083038186803b15801561436457600080fd5b505afa158015614378573d6000803e3d6000fd5b505050506040513d602081101561438e57600080fd5b5051600385015580801561442c57506006546001600160a01b03166364f42eda6143b6612ce5565b600b54600c546040518463ffffffff1660e01b815260040180848152602001838152602001828152602001935050505060206040518083038186803b1580156143fe57600080fd5b505afa158015614412573d6000803e3d6000fd5b505050506040513d602081101561442857600080fd5b5051155b156145b2576006546000906001600160a01b03166315f2405361444d612ce5565b600b54600c546040518463ffffffff1660e01b815260040180848152602001838152602001828152602001935050505060206040518083038186803b15801561449557600080fd5b505afa1580156144a9573d6000803e3d6000fd5b505050506040513d60208110156144bf57600080fd5b50516006549091506000906001600160a01b0316636e71e2d86144e0612ce5565b600b54600c546040518463ffffffff1660e01b815260040180848152602001838152602001828152602001935050505060206040518083038186803b15801561452857600080fd5b505afa15801561453c573d6000803e3d6000fd5b505050506040513d602081101561455257600080fd5b505160408051602081019091528381529091506000906145729083612c92565b915050614583876003015482613239565b955061458f90506153ad565b61459d8689600301546152a7565b9150506145aa8188612c92565b965050505050505b871561468957606085018890528015614607576145cd6153ad565b6145df86606001518660010154615357565b9150506145ea6153ad565b6145f8828760000154615392565b51608089015250614684915050565b6146236040518060200160405280876040015181525089612c92565b608087018190526020870182600381111561463a57fe5b600381111561464557fe5b905250600090508560200151600381111561465c57fe5b1461468457614678600960298760200151600381111561193257fe5b955050505050506112c7565b614749565b6080850187905280156146d85761469e6153ad565b6146b086608001518660000154615357565b9150506146bb6153ad565b6146c9828760010154615392565b51606089015250614749915050565b6146f48760405180602001604052808860400151815250613c17565b606087018190526020870182600381111561470b57fe5b600381111561471657fe5b905250600090508560200151600381111561472d57fe5b14614749576146786009602a8760200151600381111561193257fe5b60055460608601516040805163eabe7d9160e01b81523060048201526001600160a01b038d8116602483015260448201939093529051600093929092169163eabe7d919160648082019260209290919082900301818787803b1580156147ae57600080fd5b505af11580156147c2573d6000803e3d6000fd5b505050506040513d60208110156147d857600080fd5b5051905080156147fc576147ef60036028836132c4565b96505050505050506112c7565b6148046130c0565b60095414614818576147ef600a602c6121e0565b614828600d548760600151613239565b60a088018190526020880182600381111561483f57fe5b600381111561484a57fe5b905250600090508660200151600381111561486157fe5b1461487d576147ef6009602e8860200151600381111561193257fe5b614889600e5484613239565b60e088015250845460608701516148a09190613239565b60c08801819052602088018260038111156148b757fe5b60038111156148c257fe5b90525060009050866020015160038111156148d957fe5b146148f5576147ef6009602d8860200151600381111561193257fe5b8560800151614902612ce5565b1015614914576147ef600e602f6121e0565b6149228a87608001516140a0565b60a0860151600d5560e0860151600e5560c0860151855560095460028601556060860151604080519182525130916001600160a01b038d169160008051602061563b8339815191529181900360200190a3896001600160a01b03167fe5b754fb1abb7f01b499791d0b820ae3b6af3424ac1c59768edb53f4ec31a92987608001518860600151604051808381526020018281526020019250505060405180910390a260055460808701516060880151604080516351dff98960e01b81523060048201526001600160a01b038f81166024830152604482019490945260648101929092525191909216916351dff98991608480830192600092919082900301818387803b158015614a3157600080fd5b505af1158015614a45573d6000803e3d6000fd5b5060009250614a52915050565b9a9950505050505050505050565b60008083614a735750600090508061292a565b83830283858281614a8057fe5b0414614a945750600291506000905061292a565b60009250905061292a565b60008082614ab3575060019050600061292a565b6000838581614abe57fe5b04915091509250929050565b60055460408051632fe3f38f60e11b81523060048201526001600160a01b0384811660248301528781166044830152868116606483015260848201869052915160009384938493911691635fc7e71e9160a48082019260209290919082900301818787803b158015614b3b57600080fd5b505af1158015614b4f573d6000803e3d6000fd5b505050506040513d6020811015614b6557600080fd5b505190508015614b8957614b7c60036012836132c4565b925060009150614fb79050565b614b916130c0565b60095414614ba557614b7c600a60166121e0565b614bad6130c0565b846001600160a01b0316636c540baf6040518163ffffffff1660e01b815260040160206040518083038186803b158015614be657600080fd5b505afa158015614bfa573d6000803e3d6000fd5b505050506040513d6020811015614c1057600080fd5b505114614c2357614b7c600a60116121e0565b866001600160a01b0316866001600160a01b03161415614c4957614b7c600660176121e0565b84614c5a57614b7c600760156121e0565b600019851415614c7057614b7c600760146121e0565b600080614c7e898989613d60565b90925090508115614cae57614c9f826010811115614c9857fe5b60186121e0565b945060009350614fb792505050565b6005546040805163c488847b60e01b81523060048201526001600160a01b038981166024830152604482018590528251600094859492169263c488847b926064808301939192829003018186803b158015614d0857600080fd5b505afa158015614d1c573d6000803e3d6000fd5b505050506040513d6040811015614d3257600080fd5b50805160209091015190925090508115614d7d5760405162461bcd60e51b815260040180806020018281038252603381526020018061568c6033913960400191505060405180910390fd5b80886001600160a01b03166370a082318c6040518263ffffffff1660e01b815260040180826001600160a01b03166001600160a01b0316815260200191505060206040518083038186803b158015614dd457600080fd5b505afa158015614de8573d6000803e3d6000fd5b505050506040513d6020811015614dfe57600080fd5b50511015614e53576040805162461bcd60e51b815260206004820152601860248201527f4c49515549444154455f5345495a455f544f4f5f4d5543480000000000000000604482015290519081900360640190fd5b60006001600160a01b038916301415614e7957614e72308d8d85613753565b9050614f03565b6040805163b2a02ff160e01b81526001600160a01b038e811660048301528d81166024830152604482018590529151918b169163b2a02ff1916064808201926020929091908290030181600087803b158015614ed457600080fd5b505af1158015614ee8573d6000803e3d6000fd5b505050506040513d6020811015614efe57600080fd5b505190505b8015614f4d576040805162461bcd60e51b81526020600482015260146024820152731d1bdad95b881cd95a5e9d5c994819985a5b195960621b604482015290519081900360640190fd5b886001600160a01b03168b6001600160a01b03168d6001600160a01b03167f298637f684da70674f26509b10f07ec2fbc77a335ab1e7d6215a4b2484d8bb528786604051808381526020018281526020019250505060405180910390a46000975092955050505050505b94509492505050565b6005546040805163368f515360e21b81523060048201526001600160a01b0385811660248301526044820185905291516000938493169163da3d454c91606480830192602092919082900301818787803b15801561501d57600080fd5b505af1158015615031573d6000803e3d6000fd5b505050506040513d602081101561504757600080fd5b5051905080156150665761505e6003600e836132c4565b915050610eaf565b61506e6130c0565b600954146150815761505e600a806121e0565b8261508a612ce5565b101561509c5761505e600e60096121e0565b6150a46154c2565b6150ad8561300c565b60208301819052828260038111156150c157fe5b60038111156150cc57fe5b90525060009050815160038111156150e057fe5b14615105576150fc600960078360000151600381111561193257fe5b92505050610eaf565b61511381602001518561332a565b604083018190528282600381111561512757fe5b600381111561513257fe5b905250600090508151600381111561514657fe5b14615162576150fc6009600c8360000151600381111561193257fe5b61516e600b548561332a565b606083018190528282600381111561518257fe5b600381111561518d57fe5b90525060009050815160038111156151a157fe5b146151bd576150fc6009600b8360000151600381111561193257fe5b6151c785856140a0565b604080820180516001600160a01b03881660008181526011602090815290859020928355600a54600190930192909255606080860151600b819055935185518a8152938401528285019390935292517f13ed6866d4e1ee6da46f845c46d7e54120883d75c5ea9a2dacc1c4ca8984ab80929181900390910190a2600095945050505050565b60006152566153ad565b60008061526b670de0b6b3a764000087614a60565b9092509050600082600381111561527e57fe5b1461529d5750604080516020810190915260008152909250905061292a565b612cd88186600001515b60006152b16153ad565b6000806152c686670de0b6b3a7640000614a60565b909250905060008260038111156152d957fe5b146152f85750604080516020810190915260008152909250905061292a565b6000806153058388614a9f565b9092509050600082600381111561531857fe5b1461533a5750604080516020810190915260008152909450925061292a915050565b604080516020810190915290815260009890975095505050505050565b60006153616153ad565b615387604051806020016040528086815250604051806020016040528086815250613c68565b915091509250929050565b600061539c6153ad565b600080613277866000015186614a9f565b6040518060200160405280600081525090565b828054600181600116156101000203166002900490600052602060002090601f016020900481019282601f1061540157805160ff191683800117855561542e565b8280016001018555821561542e579182015b8281111561542e578251825591602001919060010190615413565b5061543a9291506154eb565b5090565b6040805160e0810190915280600081526020016000815260200160008152602001600081526020016000815260200160008152602001600081525090565b6040805161010081019091528060008152602001600081526020016000815260200160008152602001600081526020016000815260200160008152602001600081525090565b604080516080810190915280600081526020016000815260200160008152602001600081525090565b61101f91905b8082111561543a57600081556001016154f156fe6f6e6c792061646d696e206d617920696e697469616c697a6520746865206d61726b65746d61726b6574206d6179206f6e6c7920626520696e697469616c697a6564206f6e6365696e697469616c2065786368616e67652072617465206d7573742062652067726561746572207468616e207a65726f2e73657474696e6720696e7465726573742072617465206d6f64656c206661696c65644d494e545f4e45575f4143434f554e545f42414c414e43455f43414c43554c4154494f4e5f4641494c4544626f72726f7742616c616e636553746f7265643a20626f72726f7742616c616e636553746f726564496e7465726e616c206661696c656452455041595f424f52524f575f4e45575f4143434f554e545f424f52524f575f42414c414e43455f43414c43554c4154494f4e5f4641494c4544ddf252ad1be2c89b69c2b068fc378daa952ba7f163c4a11628f55a4df523b3ef52455041595f424f52524f575f4e45575f544f54414c5f42414c414e43455f43414c43554c4154494f4e5f4641494c45444c49515549444154455f434f4d5054524f4c4c45525f43414c43554c4154455f414d4f554e545f5345495a455f4641494c454465786368616e67655261746553746f7265643a2065786368616e67655261746553746f726564496e7465726e616c206661696c65644d494e545f4e45575f544f54414c5f535550504c595f43414c43554c4154494f4e5f4641494c45446f6e65206f662072656465656d546f6b656e73496e206f722072656465656d416d6f756e74496e206d757374206265207a65726f72656475636520726573657276657320756e657870656374656420756e646572666c6f77a265627a7a72315820f4cfa53ab16b3ec8cc7d60ef15e1f575b02fa081794623b567ba8aa235b187bd64736f6c634300051100326f6e6c792061646d696e206d617920696e697469616c697a6520746865206d61726b65746d61726b6574206d6179206f6e6c7920626520696e697469616c697a6564206f6e6365696e697469616c2065786368616e67652072617465206d7573742062652067726561746572207468616e207a65726f2e73657474696e6720696e7465726573742072617465206d6f64656c206661696c6564",
  "devdoc": {
    "author": "tropykus",
    "methods": {
      "_acceptAdmin()": {
        "details": "Admin function for pending admin to accept role and update admin",
        "return": "uint 0=success, otherwise a failure (see ErrorReporter.sol for details)"
      },
      "_reduceReserves(uint256)": {
        "params": {
          "reduceAmount": "Amount of reduction to reserves"
        },
        "return": "uint 0=success, otherwise a failure (see ErrorReporter.sol for details)"
      },
      "_setComptroller(address)": {
        "details": "Admin function to set a new comptroller",
        "return": "uint 0=success, otherwise a failure (see ErrorReporter.sol for details)"
      },
      "_setInterestRateModel(address)": {
        "details": "Admin function to accrue interest and update the interest rate model",
        "params": {
          "newInterestRateModel": "the new interest rate model to use"
        },
        "return": "uint 0=success, otherwise a failure (see ErrorReporter.sol for details)"
      },
      "_setPendingAdmin(address)": {
        "details": "Admin function to begin change of admin. The newPendingAdmin must call `_acceptAdmin` to finalize the transfer.",
        "params": {
          "newPendingAdmin": "New pending admin."
        },
        "return": "uint 0=success, otherwise a failure (see ErrorReporter.sol for details)"
      },
      "_setReserveFactor(uint256)": {
        "details": "Admin function to accrue interest and set a new reserve factor",
        "return": "uint 0=success, otherwise a failure (see ErrorReporter.sol for details)"
      },
      "accrueInterest()": {
        "details": "This calculates interest accrued from the last checkpointed block  up to the current block and writes new checkpoint to storage."
      },
      "allowance(address,address)": {
        "params": {
          "owner": "The address of the account which owns the tokens to be spent",
          "spender": "The address of the account which may transfer tokens"
        },
        "return": "The number of tokens allowed to be spent (-1 means infinite)"
      },
      "approve(address,uint256)": {
        "details": "This will overwrite the approval amount for `spender` and is subject to issues noted [here](https://eips.ethereum.org/EIPS/eip-20#approve)",
        "params": {
          "amount": "The number of tokens that are approved (-1 means infinite)",
          "spender": "The address of the account which may transfer tokens"
        },
        "return": "Whether or not the approval succeeded"
      },
      "balanceOf(address)": {
        "params": {
          "owner": "The address of the account to query"
        },
        "return": "The number of tokens owned by `owner`"
      },
      "balanceOfUnderlying(address)": {
        "details": "This also accrues interest in a transaction",
        "params": {
          "owner": "The address of the account to query"
        },
        "return": "The amount of underlying owned by `owner`"
      },
      "borrow(uint256)": {
        "params": {
          "borrowAmount": "The amount of the underlying asset to borrow"
        },
        "return": "uint 0=success, otherwise a failure (see ErrorReporter.sol for details)"
      },
      "borrowBalanceCurrent(address)": {
        "params": {
          "account": "The address whose balance should be calculated after updating borrowIndex"
        },
        "return": "The calculated balance"
      },
      "borrowBalanceStored(address)": {
        "params": {
          "account": "The address whose balance should be calculated"
        },
        "return": "The calculated balance"
      },
      "borrowRatePerBlock()": {
        "return": "The borrow interest rate per block, scaled by 1e18"
      },
      "constructor": {
        "params": {
          "admin_": "Address of the administrator of this token",
          "comptroller_": "The address of the Comptroller",
          "decimals_": "ERC-20 decimal precision of this token",
          "initialExchangeRateMantissa_": "The initial exchange rate, scaled by 1e18",
          "interestRateModel_": "The address of the interest rate model",
          "name_": "ERC-20 name of this token",
          "symbol_": "ERC-20 symbol of this token"
        }
      },
      "exchangeRateCurrent()": {
        "return": "Calculated exchange rate scaled by 1e18"
      },
      "exchangeRateStored()": {
        "details": "This function does not accrue interest before calculating the exchange rate",
        "return": "Calculated exchange rate scaled by 1e18"
      },
      "getAccountSnapshot(address)": {
        "details": "This is used by comptroller to more efficiently perform liquidity checks.",
        "params": {
          "account": "Address of the account to snapshot"
        },
        "return": "(possible error, token balance, borrow balance, exchange rate mantissa)"
      },
      "getCash()": {
        "return": "The quantity of underlying asset owned by this contract"
      },
      "initialize(address,address,uint256,string,string,uint8)": {
        "params": {
          "comptroller_": "The address of the Comptroller",
          "decimals_": "EIP-20 decimal precision of this token",
          "initialExchangeRateMantissa_": "The initial exchange rate, scaled by 1e18",
          "interestRateModel_": "The address of the interest rate model",
          "name_": "EIP-20 name of this token",
          "symbol_": "EIP-20 symbol of this token"
        }
      },
      "liquidateBorrow(address,address)": {
        "details": "Reverts upon any failure",
        "params": {
          "borrower": "The borrower of this cToken to be liquidated",
          "cTokenCollateral": "The market in which to seize collateral from the borrower"
        }
      },
      "mint()": {
        "details": "Reverts upon any failure"
      },
      "redeem(uint256)": {
        "details": "Accrues interest whether or not the operation succeeds, unless reverted",
        "params": {
          "redeemTokens": "The number of cTokens to redeem into underlying"
        },
        "return": "uint 0=success, otherwise a failure (see ErrorReporter.sol for details)"
      },
      "redeemUnderlying(uint256)": {
        "details": "Accrues interest whether or not the operation succeeds, unless reverted",
        "params": {
          "redeemAmount": "The amount of underlying to redeem"
        },
        "return": "uint 0=success, otherwise a failure (see ErrorReporter.sol for details)"
      },
      "repayBorrow()": {
        "details": "Reverts upon any failure"
      },
      "repayBorrowBehalf(address)": {
        "details": "Reverts upon any failure",
        "params": {
          "borrower": "the account with the debt being payed off"
        }
      },
      "seize(address,address,uint256)": {
        "details": "Will fail unless called by another cToken during the process of liquidation. Its absolutely critical to use msg.sender as the borrowed cToken and not a parameter.",
        "params": {
          "borrower": "The account having collateral seized",
          "liquidator": "The account receiving seized collateral",
          "seizeTokens": "The number of cTokens to seize"
        },
        "return": "uint 0=success, otherwise a failure (see ErrorReporter.sol for details)"
      },
      "supplyRatePerBlock()": {
        "return": "The supply interest rate per block, scaled by 1e18"
      },
      "totalBorrowsCurrent()": {
        "return": "The total borrows with interest"
      },
      "transfer(address,uint256)": {
        "params": {
          "amount": "The number of tokens to transfer",
          "dst": "The address of the destination account"
        },
        "return": "Whether or not the transfer succeeded"
      },
      "transferFrom(address,address,uint256)": {
        "params": {
          "amount": "The number of tokens to transfer",
          "dst": "The address of the destination account",
          "src": "The address of the source account"
        },
        "return": "Whether or not the transfer succeeded"
      }
    },
    "title": "tropykus CRBTC Contract"
  },
  "userdoc": {
    "methods": {
      "_acceptAdmin()": {
        "notice": "Accepts transfer of admin rights. msg.sender must be pendingAdmin"
      },
      "_reduceReserves(uint256)": {
        "notice": "Accrues interest and reduces reserves by transferring to admin"
      },
      "_setComptroller(address)": {
        "notice": "Sets a new comptroller for the market"
      },
      "_setInterestRateModel(address)": {
        "notice": "accrues interest and updates the interest rate model using _setInterestRateModelFresh"
      },
      "_setPendingAdmin(address)": {
        "notice": "Begins transfer of admin rights. The newPendingAdmin must call `_acceptAdmin` to finalize the transfer."
      },
      "_setReserveFactor(uint256)": {
        "notice": "accrues interest and sets a new reserve factor for the protocol using _setReserveFactorFresh"
      },
      "accrueInterest()": {
        "notice": "Applies accrued interest to total borrows and reserves"
      },
      "allowance(address,address)": {
        "notice": "Get the current allowance from `owner` for `spender`"
      },
      "approve(address,uint256)": {
        "notice": "Approve `spender` to transfer up to `amount` from `src`"
      },
      "balanceOf(address)": {
        "notice": "Get the token balance of the `owner`"
      },
      "balanceOfUnderlying(address)": {
        "notice": "Get the underlying balance of the `owner`"
      },
      "borrow(uint256)": {
        "notice": "Sender borrows assets from the protocol to their own address"
      },
      "borrowBalanceCurrent(address)": {
        "notice": "Accrue interest to updated borrowIndex and then calculate account's borrow balance using the updated borrowIndex"
      },
      "borrowBalanceStored(address)": {
        "notice": "Return the borrow balance of account based on stored data"
      },
      "borrowRatePerBlock()": {
        "notice": "Returns the current per-block borrow interest rate for this cToken"
      },
      "constructor": "Construct a new CRBTC money market",
      "exchangeRateCurrent()": {
        "notice": "Accrue interest then return the up-to-date exchange rate"
      },
      "exchangeRateStored()": {
        "notice": "Calculates the exchange rate from the underlying to the CToken"
      },
      "getAccountSnapshot(address)": {
        "notice": "Get a snapshot of the account's balances, and the cached exchange rate"
      },
      "getCash()": {
        "notice": "Get cash balance of this cToken in the underlying asset"
      },
      "initialize(address,address,uint256,string,string,uint8)": {
        "notice": "Initialize the money market"
      },
      "liquidateBorrow(address,address)": {
        "notice": "The sender liquidates the borrowers collateral. The collateral seized is transferred to the liquidator."
      },
      "mint()": {
        "notice": "Sender supplies assets into the market and receives cTokens in exchange"
      },
      "redeem(uint256)": {
        "notice": "Sender redeems cTokens in exchange for the underlying asset"
      },
      "redeemUnderlying(uint256)": {
        "notice": "Sender redeems cTokens in exchange for a specified amount of underlying asset"
      },
      "repayBorrow()": {
        "notice": "Sender repays their own borrow"
      },
      "repayBorrowBehalf(address)": {
        "notice": "Sender repays a borrow belonging to borrower"
      },
      "seize(address,address,uint256)": {
        "notice": "Transfers collateral tokens (this market) to the liquidator."
      },
      "supplyRatePerBlock()": {
        "notice": "Returns the current per-block supply interest rate for this cToken"
      },
      "totalBorrowsCurrent()": {
        "notice": "Returns the current total borrows plus accrued interest"
      },
      "transfer(address,uint256)": {
        "notice": "Transfer `amount` tokens from `msg.sender` to `dst`"
      },
      "transferFrom(address,address,uint256)": {
        "notice": "Transfer `amount` tokens from `src` to `dst`"
      }
    },
    "notice": "CToken which wraps Ether"
  },
  "storageLayout": {
    "storage": [
      {
        "astId": 6450,
        "contract": "contracts/CRBTC.sol:CRBTC",
        "label": "_notEntered",
        "offset": 0,
        "slot": "0",
        "type": "t_bool"
      },
      {
        "astId": 6452,
        "contract": "contracts/CRBTC.sol:CRBTC",
        "label": "name",
        "offset": 0,
        "slot": "1",
        "type": "t_string_storage"
      },
      {
        "astId": 6454,
        "contract": "contracts/CRBTC.sol:CRBTC",
        "label": "symbol",
        "offset": 0,
        "slot": "2",
        "type": "t_string_storage"
      },
      {
        "astId": 6456,
        "contract": "contracts/CRBTC.sol:CRBTC",
        "label": "decimals",
        "offset": 0,
        "slot": "3",
        "type": "t_uint8"
      },
      {
        "astId": 6464,
        "contract": "contracts/CRBTC.sol:CRBTC",
        "label": "admin",
        "offset": 1,
        "slot": "3",
        "type": "t_address_payable"
      },
      {
        "astId": 6466,
        "contract": "contracts/CRBTC.sol:CRBTC",
        "label": "pendingAdmin",
        "offset": 0,
        "slot": "4",
        "type": "t_address_payable"
      },
      {
        "astId": 6468,
        "contract": "contracts/CRBTC.sol:CRBTC",
        "label": "comptroller",
        "offset": 0,
        "slot": "5",
        "type": "t_contract(ComptrollerInterface)30688"
      },
      {
        "astId": 6470,
        "contract": "contracts/CRBTC.sol:CRBTC",
        "label": "interestRateModel",
        "offset": 0,
        "slot": "6",
        "type": "t_contract(InterestRateModel)35666"
      },
      {
        "astId": 6472,
        "contract": "contracts/CRBTC.sol:CRBTC",
        "label": "initialExchangeRateMantissa",
        "offset": 0,
        "slot": "7",
        "type": "t_uint256"
      },
      {
        "astId": 6474,
        "contract": "contracts/CRBTC.sol:CRBTC",
        "label": "reserveFactorMantissa",
        "offset": 0,
        "slot": "8",
        "type": "t_uint256"
      },
      {
        "astId": 6476,
        "contract": "contracts/CRBTC.sol:CRBTC",
        "label": "accrualBlockNumber",
        "offset": 0,
        "slot": "9",
        "type": "t_uint256"
      },
      {
        "astId": 6478,
        "contract": "contracts/CRBTC.sol:CRBTC",
        "label": "borrowIndex",
        "offset": 0,
        "slot": "10",
        "type": "t_uint256"
      },
      {
        "astId": 6480,
        "contract": "contracts/CRBTC.sol:CRBTC",
        "label": "totalBorrows",
        "offset": 0,
        "slot": "11",
        "type": "t_uint256"
      },
      {
        "astId": 6482,
        "contract": "contracts/CRBTC.sol:CRBTC",
        "label": "totalReserves",
        "offset": 0,
        "slot": "12",
        "type": "t_uint256"
      },
      {
        "astId": 6484,
        "contract": "contracts/CRBTC.sol:CRBTC",
        "label": "totalSupply",
        "offset": 0,
        "slot": "13",
        "type": "t_uint256"
      },
      {
        "astId": 6486,
        "contract": "contracts/CRBTC.sol:CRBTC",
        "label": "subsidyFund",
        "offset": 0,
        "slot": "14",
        "type": "t_uint256"
      },
      {
        "astId": 6499,
        "contract": "contracts/CRBTC.sol:CRBTC",
        "label": "accountTokens",
        "offset": 0,
        "slot": "15",
        "type": "t_mapping(t_address,t_struct(SupplySnapshot)6495_storage)"
      },
      {
        "astId": 6505,
        "contract": "contracts/CRBTC.sol:CRBTC",
        "label": "transferAllowances",
        "offset": 0,
        "slot": "16",
        "type": "t_mapping(t_address,t_mapping(t_address,t_uint256))"
      },
      {
        "astId": 6514,
        "contract": "contracts/CRBTC.sol:CRBTC",
        "label": "accountBorrows",
        "offset": 0,
        "slot": "17",
        "type": "t_mapping(t_address,t_struct(BorrowSnapshot)6510_storage)"
      }
    ],
    "types": {
      "t_address": {
        "encoding": "inplace",
        "label": "address",
        "numberOfBytes": "20"
      },
      "t_address_payable": {
        "encoding": "inplace",
        "label": "address payable",
        "numberOfBytes": "20"
      },
      "t_bool": {
        "encoding": "inplace",
        "label": "bool",
        "numberOfBytes": "1"
      },
      "t_contract(ComptrollerInterface)30688": {
        "encoding": "inplace",
        "label": "contract ComptrollerInterface",
        "numberOfBytes": "20"
      },
      "t_contract(InterestRateModel)35666": {
        "encoding": "inplace",
        "label": "contract InterestRateModel",
        "numberOfBytes": "20"
      },
      "t_mapping(t_address,t_mapping(t_address,t_uint256))": {
        "encoding": "mapping",
        "key": "t_address",
        "label": "mapping(address => mapping(address => uint256))",
        "numberOfBytes": "32",
        "value": "t_mapping(t_address,t_uint256)"
      },
      "t_mapping(t_address,t_struct(BorrowSnapshot)6510_storage)": {
        "encoding": "mapping",
        "key": "t_address",
        "label": "mapping(address => struct CTokenStorage.BorrowSnapshot)",
        "numberOfBytes": "32",
        "value": "t_struct(BorrowSnapshot)6510_storage"
      },
      "t_mapping(t_address,t_struct(SupplySnapshot)6495_storage)": {
        "encoding": "mapping",
        "key": "t_address",
        "label": "mapping(address => struct CTokenStorage.SupplySnapshot)",
        "numberOfBytes": "32",
        "value": "t_struct(SupplySnapshot)6495_storage"
      },
      "t_mapping(t_address,t_uint256)": {
        "encoding": "mapping",
        "key": "t_address",
        "label": "mapping(address => uint256)",
        "numberOfBytes": "32",
        "value": "t_uint256"
      },
      "t_string_storage": {
        "encoding": "bytes",
        "label": "string",
        "numberOfBytes": "32"
      },
      "t_struct(BorrowSnapshot)6510_storage": {
        "encoding": "inplace",
        "label": "struct CTokenStorage.BorrowSnapshot",
        "members": [
          {
            "astId": 6507,
            "contract": "contracts/CRBTC.sol:CRBTC",
            "label": "principal",
            "offset": 0,
            "slot": "0",
            "type": "t_uint256"
          },
          {
            "astId": 6509,
            "contract": "contracts/CRBTC.sol:CRBTC",
            "label": "interestIndex",
            "offset": 0,
            "slot": "1",
            "type": "t_uint256"
          }
        ],
        "numberOfBytes": "64"
      },
      "t_struct(SupplySnapshot)6495_storage": {
        "encoding": "inplace",
        "label": "struct CTokenStorage.SupplySnapshot",
        "members": [
          {
            "astId": 6488,
            "contract": "contracts/CRBTC.sol:CRBTC",
            "label": "tokens",
            "offset": 0,
            "slot": "0",
            "type": "t_uint256"
          },
          {
            "astId": 6490,
            "contract": "contracts/CRBTC.sol:CRBTC",
            "label": "underlyingAmount",
            "offset": 0,
            "slot": "1",
            "type": "t_uint256"
          },
          {
            "astId": 6492,
            "contract": "contracts/CRBTC.sol:CRBTC",
            "label": "suppliedAt",
            "offset": 0,
            "slot": "2",
            "type": "t_uint256"
          },
          {
            "astId": 6494,
            "contract": "contracts/CRBTC.sol:CRBTC",
            "label": "promisedSupplyRate",
            "offset": 0,
            "slot": "3",
            "type": "t_uint256"
          }
        ],
        "numberOfBytes": "128"
      },
      "t_uint256": {
        "encoding": "inplace",
        "label": "uint256",
        "numberOfBytes": "32"
      },
      "t_uint8": {
        "encoding": "inplace",
        "label": "uint8",
        "numberOfBytes": "1"
      }
    }
  }
}