{
  "address": "0x59b670e9fA9D0A427751Af201D676719a970857b",
  "abi": [
    {
      "inputs": [
        {
          "internalType": "uint256",
          "name": "baseRatePerYear",
          "type": "uint256"
        },
        {
          "internalType": "uint256",
          "name": "multiplierPerYear",
          "type": "uint256"
        },
        {
          "internalType": "uint256",
          "name": "jumpMultiplierPerYear",
          "type": "uint256"
        },
        {
          "internalType": "uint256",
          "name": "kink_",
          "type": "uint256"
        },
        {
          "internalType": "address",
          "name": "owner_",
          "type": "address"
        }
      ],
      "payable": false,
      "stateMutability": "nonpayable",
      "type": "constructor"
    },
    {
      "anonymous": false,
      "inputs": [
        {
          "indexed": true,
          "internalType": "address",
          "name": "newAdmin",
          "type": "address"
        }
      ],
      "name": "NewAdmin",
      "type": "event"
    },
    {
      "anonymous": false,
      "inputs": [
        {
          "indexed": false,
          "internalType": "uint256",
          "name": "baseRatePerBlock",
          "type": "uint256"
        },
        {
          "indexed": false,
          "internalType": "uint256",
          "name": "multiplierPerBlock",
          "type": "uint256"
        },
        {
          "indexed": false,
          "internalType": "uint256",
          "name": "jumpMultiplierPerBlock",
          "type": "uint256"
        },
        {
          "indexed": false,
          "internalType": "uint256",
          "name": "kink",
          "type": "uint256"
        }
      ],
      "name": "NewInterestParams",
      "type": "event"
    },
    {
      "anonymous": false,
      "inputs": [
        {
          "indexed": true,
          "internalType": "address",
          "name": "newPendingAdmin",
          "type": "address"
        }
      ],
      "name": "NewPendingAdmin",
      "type": "event"
    },
    {
      "constant": false,
      "inputs": [],
      "name": "acceptAdmin",
      "outputs": [],
      "payable": false,
      "stateMutability": "nonpayable",
      "type": "function"
    },
    {
      "constant": true,
      "inputs": [],
      "name": "baseRatePerBlock",
      "outputs": [
        {
          "internalType": "uint256",
          "name": "",
          "type": "uint256"
        }
      ],
      "payable": false,
      "stateMutability": "view",
      "type": "function"
    },
    {
      "constant": true,
      "inputs": [],
      "name": "blocksPerYear",
      "outputs": [
        {
          "internalType": "uint256",
          "name": "",
          "type": "uint256"
        }
      ],
      "payable": false,
      "stateMutability": "view",
      "type": "function"
    },
    {
      "constant": true,
      "inputs": [
        {
          "internalType": "uint256",
          "name": "cash",
          "type": "uint256"
        },
        {
          "internalType": "uint256",
          "name": "borrows",
          "type": "uint256"
        },
        {
          "internalType": "uint256",
          "name": "reserves",
          "type": "uint256"
        }
      ],
      "name": "getBorrowRate",
      "outputs": [
        {
          "internalType": "uint256",
          "name": "",
          "type": "uint256"
        }
      ],
      "payable": false,
      "stateMutability": "view",
      "type": "function"
    },
    {
      "constant": true,
      "inputs": [
        {
          "internalType": "uint256",
          "name": "_totalCash",
          "type": "uint256"
        },
        {
          "internalType": "uint256",
          "name": "_totalBorrows",
          "type": "uint256"
        },
        {
          "internalType": "uint256",
          "name": "_totalReserves",
          "type": "uint256"
        },
        {
          "internalType": "uint256",
          "name": "_totalSupply",
          "type": "uint256"
        }
      ],
      "name": "getExchangeRate",
      "outputs": [
        {
          "internalType": "enum CarefulMath.MathError",
          "name": "",
          "type": "uint8"
        },
        {
          "internalType": "uint256",
          "name": "",
          "type": "uint256"
        }
      ],
      "payable": false,
      "stateMutability": "pure",
      "type": "function"
    },
    {
      "constant": true,
      "inputs": [
        {
          "internalType": "uint256",
          "name": "cash",
          "type": "uint256"
        },
        {
          "internalType": "uint256",
          "name": "borrows",
          "type": "uint256"
        },
        {
          "internalType": "uint256",
          "name": "reserves",
          "type": "uint256"
        },
        {
          "internalType": "uint256",
          "name": "reserveFactorMantissa",
          "type": "uint256"
        }
      ],
      "name": "getSupplyRate",
      "outputs": [
        {
          "internalType": "uint256",
          "name": "",
          "type": "uint256"
        }
      ],
      "payable": false,
      "stateMutability": "view",
      "type": "function"
    },
    {
      "constant": true,
      "inputs": [
        {
          "internalType": "uint256",
          "name": "cash",
          "type": "uint256"
        },
        {
          "internalType": "uint256",
          "name": "borrows",
          "type": "uint256"
        },
        {
          "internalType": "uint256",
          "name": "reserves",
          "type": "uint256"
        }
      ],
      "name": "isAboveOptimal",
      "outputs": [
        {
          "internalType": "bool",
          "name": "",
          "type": "bool"
        }
      ],
      "payable": false,
      "stateMutability": "view",
      "type": "function"
    },
    {
      "constant": true,
      "inputs": [],
      "name": "isInterestRateModel",
      "outputs": [
        {
          "internalType": "bool",
          "name": "",
          "type": "bool"
        }
      ],
      "payable": false,
      "stateMutability": "view",
      "type": "function"
    },
    {
      "constant": true,
      "inputs": [],
      "name": "isTropykusInterestRateModel",
      "outputs": [
        {
          "internalType": "bool",
          "name": "",
          "type": "bool"
        }
      ],
      "payable": false,
      "stateMutability": "view",
      "type": "function"
    },
    {
      "constant": true,
      "inputs": [],
      "name": "jumpMultiplierPerBlock",
      "outputs": [
        {
          "internalType": "uint256",
          "name": "",
          "type": "uint256"
        }
      ],
      "payable": false,
      "stateMutability": "view",
      "type": "function"
    },
    {
      "constant": true,
      "inputs": [],
      "name": "kink",
      "outputs": [
        {
          "internalType": "uint256",
          "name": "",
          "type": "uint256"
        }
      ],
      "payable": false,
      "stateMutability": "view",
      "type": "function"
    },
    {
      "constant": true,
      "inputs": [],
      "name": "multiplierPerBlock",
      "outputs": [
        {
          "internalType": "uint256",
          "name": "",
          "type": "uint256"
        }
      ],
      "payable": false,
      "stateMutability": "view",
      "type": "function"
    },
    {
      "constant": true,
      "inputs": [],
      "name": "owner",
      "outputs": [
        {
          "internalType": "address",
          "name": "",
          "type": "address"
        }
      ],
      "payable": false,
      "stateMutability": "view",
      "type": "function"
    },
    {
      "constant": true,
      "inputs": [],
      "name": "pendingAdmin",
      "outputs": [
        {
          "internalType": "address",
          "name": "",
          "type": "address"
        }
      ],
      "payable": false,
      "stateMutability": "view",
      "type": "function"
    },
    {
      "constant": false,
      "inputs": [
        {
          "internalType": "address",
          "name": "pendingAdmin_",
          "type": "address"
        }
      ],
      "name": "setPendingAdmin",
      "outputs": [],
      "payable": false,
      "stateMutability": "nonpayable",
      "type": "function"
    },
    {
      "constant": false,
      "inputs": [
        {
          "internalType": "uint256",
          "name": "baseRatePerYear",
          "type": "uint256"
        },
        {
          "internalType": "uint256",
          "name": "multiplierPerYear",
          "type": "uint256"
        },
        {
          "internalType": "uint256",
          "name": "jumpMultiplierPerYear",
          "type": "uint256"
        },
        {
          "internalType": "uint256",
          "name": "kink_",
          "type": "uint256"
        }
      ],
      "name": "updateJumpRateModel",
      "outputs": [],
      "payable": false,
      "stateMutability": "nonpayable",
      "type": "function"
    },
    {
      "constant": true,
      "inputs": [
        {
          "internalType": "uint256",
          "name": "cash",
          "type": "uint256"
        },
        {
          "internalType": "uint256",
          "name": "borrows",
          "type": "uint256"
        },
        {
          "internalType": "uint256",
          "name": "reserves",
          "type": "uint256"
        }
      ],
      "name": "utilizationRate",
      "outputs": [
        {
          "internalType": "uint256",
          "name": "",
          "type": "uint256"
        }
      ],
      "payable": false,
      "stateMutability": "pure",
      "type": "function"
    }
  ],
  "transactionHash": "0xd464919d7e6ceb399c0ffab411a1c7dbf5283243ff37434bae1aaadab4264e1f",
  "args": [
    "0",
    "40000000000000000",
    "1090000000000000000",
    "800000000000000000",
    "0x5FC8d32690cc91D4c39d9d3abcBD16989F875707"
  ],
  "solcInputHash": "f248c35aedbb668446e4c5a0022a767b",
  "bytecode": "0x60806040523480156200001157600080fd5b506040516200100238038062001002833981810160405260a08110156200003757600080fd5b50805160208201516040808401516060850151608090950151600080546001600160a01b0319166001600160a01b0380841691909117808355945196979596939594929388938893889388938893909116917f71614071b88dee5e0b2ae578a9dd7b2ebbe9ae832ba419dc0242cd065a290b6c91a2620000c3858585856001600160e01b03620000d316565b505050505050505050506200031d565b620000f062100a4085620001c560201b620008b21790919060201c565b600355620001486200011262100a408362000218602090811b6200085917901c565b62000134670de0b6b3a7640000866200021860201b620008591790919060201c565b620001c560201b620008b21790919060201c565b600255620001668262100a40620001c5602090811b620008b217901c565b60048190556005829055600354600254604080519283526020830191909152818101929092526060810183905290517f6960ab234c7ef4b0c9197100f5393cfcde7c453ac910a27bd2000aa1dd4c068d9181900360800190a150505050565b60006200020f83836040518060400160405280601a81526020017f536166654d6174683a206469766973696f6e206279207a65726f0000000000008152506200027660201b60201c565b90505b92915050565b600082620002295750600062000212565b828202828482816200023757fe5b04146200020f5760405162461bcd60e51b815260040180806020018281038252602181526020018062000fe16021913960400191505060405180910390fd5b60008183620003065760405162461bcd60e51b81526004018080602001828103825283818151815260200191508051906020019080838360005b83811015620002ca578181015183820152602001620002b0565b50505050905090810190601f168015620002f85780820380516001836020036101000a031916815260200191505b509250505060405180910390fd5b5060008385816200031357fe5b0495945050505050565b610cb4806200032d6000396000f3fe608060405234801561001057600080fd5b506004361061010b5760003560e01c80638726bb89116100a2578063b816881611610071578063b8168816146102ae578063b9f9850a146102dd578063e36c26e4146102e5578063f14039de146102ed578063fd2da339146102f55761010b565b80638726bb891461023c5780638da5cb5b146102445780639dc8bea71461024c578063a385fb96146102a65761010b565b806326782247116100de57806326782247146101a05780634dd18bf5146101c457806364f42eda146101ea5780636e71e2d8146102135761010b565b80630e18b6811461011057806315f240531461011a5780632037f3e7146101555780632191f92a14610184575b600080fd5b6101186102fd565b005b6101436004803603606081101561013057600080fd5b5080359060208101359060400135610399565b60408051918252519081900360200190f35b6101186004803603608081101561016b57600080fd5b50803590602081013590604081013590606001356103b0565b61018c61040b565b604080519115158252519081900360200190f35b6101a8610410565b604080516001600160a01b039092168252519081900360200190f35b610118600480360360208110156101da57600080fd5b50356001600160a01b031661041f565b61018c6004803603606081101561020057600080fd5b50803590602081013590604001356104b8565b6101436004803603606081101561022957600080fd5b50803590602081013590604001356104c1565b610143610517565b6101a861051d565b61027b6004803603608081101561026257600080fd5b508035906020810135906040810135906060013561052c565b6040518083600381111561028b57fe5b60ff1681526020018281526020019250505060405180910390f35b6101436105ad565b610143600480360360808110156102c457600080fd5b50803590602081013590604081013590606001356105b4565b610143610633565b61018c610639565b61014361063e565b610143610644565b6001546001600160a01b031633146103465760405162461bcd60e51b8152600401808060200182810382526043815260200180610bb66043913960600191505060405180910390fd5b60008054336001600160a01b031991821617808355600180549092169091556040516001600160a01b03909116917f71614071b88dee5e0b2ae578a9dd7b2ebbe9ae832ba419dc0242cd065a290b6c91a2565b60006103a684848461064a565b90505b9392505050565b6000546001600160a01b031633146103f95760405162461bcd60e51b8152600401808060200182810382526026815260200180610c5a6026913960400191505060405180910390fd5b61040584848484610713565b50505050565b600181565b6001546001600160a01b031681565b6000546001600160a01b031633146104685760405162461bcd60e51b8152600401808060200182810382526040815260200180610c1a6040913960400191505060405180910390fd5b600180546001600160a01b0319166001600160a01b0383811691909117918290556040519116907f69d78e38a01985fbb1462961809b4b2d65531bc93b2b94037f3334b82ca4a75690600090a250565b60009392505050565b6000826104d0575060006103a9565b6103a66104f3836104e7878763ffffffff6107b416565b9063ffffffff61081716565b61050b85670de0b6b3a764000063ffffffff61085916565b9063ffffffff6108b216565b60025481565b6000546001600160a01b031681565b600080610537610ba2565b6000806105458989896108f4565b9092509050600082600381111561055857fe5b1461056b57509250600091506105a49050565b6105758187610941565b93509150600082600381111561058757fe5b1461059a57509250600091506105a49050565b5050516000925090505b94509492505050565b62100a4081565b6000806105cf670de0b6b3a76400008463ffffffff61081716565b905060006105de87878761064a565b905060006105fe670de0b6b3a764000061050b848663ffffffff61085916565b9050610627670de0b6b3a764000061050b8361061b8c8c8c6104c1565b9063ffffffff61085916565b98975050505050505050565b60045481565b600081565b60035481565b60055481565b6000806106588585856104c1565b9050600554811161069e5761069660035461068a670de0b6b3a764000061050b6002548661085990919063ffffffff16565b9063ffffffff6107b416565b9150506103a9565b60006106c960035461068a670de0b6b3a764000061050b60025460055461085990919063ffffffff16565b905060006106e26005548461081790919063ffffffff16565b90506107098261068a670de0b6b3a764000061050b6004548661085990919063ffffffff16565b93505050506103a9565b6107268462100a4063ffffffff6108b216565b60035561073f6104f362100a408363ffffffff61085916565b6002556107558262100a4063ffffffff6108b216565b60048190556005829055600354600254604080519283526020830191909152818101929092526060810183905290517f6960ab234c7ef4b0c9197100f5393cfcde7c453ac910a27bd2000aa1dd4c068d9181900360800190a150505050565b60008282018381101561080e576040805162461bcd60e51b815260206004820152601b60248201527f536166654d6174683a206164646974696f6e206f766572666c6f770000000000604482015290519081900360640190fd5b90505b92915050565b600061080e83836040518060400160405280601f81526020017f536166654d6174683a207375627472616374696f6e20756e646572666c6f77008152506109f3565b60008261086857506000610811565b8282028284828161087557fe5b041461080e5760405162461bcd60e51b8152600401808060200182810382526021815260200180610bf96021913960400191505060405180910390fd5b600061080e83836040518060400160405280601a81526020017f536166654d6174683a206469766973696f6e206279207a65726f000000000000815250610a8a565b6000806000806109048787610aef565b9092509050600082600381111561091757fe5b146109285750915060009050610939565b6109328186610b15565b9350935050505b935093915050565b600061094b610ba2565b60008061096086670de0b6b3a7640000610b38565b9092509050600082600381111561097357fe5b14610992575060408051602081019091526000815290925090506109ec565b60008061099f8388610b77565b909250905060008260038111156109b257fe5b146109d4575060408051602081019091526000815290945092506109ec915050565b60408051602081019091529081526000955093505050505b9250929050565b60008184841115610a825760405162461bcd60e51b81526004018080602001828103825283818151815260200191508051906020019080838360005b83811015610a47578181015183820152602001610a2f565b50505050905090810190601f168015610a745780820380516001836020036101000a031916815260200191505b509250505060405180910390fd5b505050900390565b60008183610ad95760405162461bcd60e51b8152602060048201818152835160248401528351909283926044909101919085019080838360008315610a47578181015183820152602001610a2f565b506000838581610ae557fe5b0495945050505050565b600080838301848110610b07576000925090506109ec565b5060029150600090506109ec565b600080838311610b2c5750600090508183036109ec565b506003905060006109ec565b60008083610b4b575060009050806109ec565b83830283858281610b5857fe5b0414610b6c575060029150600090506109ec565b6000925090506109ec565b60008082610b8b57506001905060006109ec565b6000838581610b9657fe5b04915091509250929050565b604051806020016040528060008152509056fe426173654a756d70526174654d6f64656c56323a3a61636365707441646d696e3a2043616c6c206d75737420636f6d652066726f6d2070656e64696e6741646d696e2e536166654d6174683a206d756c7469706c69636174696f6e206f766572666c6f77426173654a756d70526174654d6f64656c56323a3a73657450656e64696e6741646d696e3a2043616c6c206d75737420636f6d652066726f6d206f776e65722e6f6e6c7920746865206f776e6572206d61792063616c6c20746869732066756e6374696f6e2ea265627a7a72315820989141aed1121419e1f5856e35093c4deac8abedf8efb83723e29c2b3569ddbe64736f6c63430005110032536166654d6174683a206d756c7469706c69636174696f6e206f766572666c6f77",
  "devdoc": {
    "author": "tropykus",
    "methods": {
      "getBorrowRate(uint256,uint256,uint256)": {
        "params": {
          "borrows": "The amount of borrows in the market",
          "cash": "The amount of cash in the market",
          "reserves": "The amount of reserves in the market"
        },
        "return": "The borrow rate percentage per block as a mantissa (scaled by 1e18)"
      },
      "getSupplyRate(uint256,uint256,uint256,uint256)": {
        "params": {
          "borrows": "The amount of borrows in the market",
          "cash": "The amount of cash in the market",
          "reserveFactorMantissa": "The current reserve factor for the market",
          "reserves": "The amount of reserves in the market"
        },
        "return": "The supply rate percentage per block as a mantissa (scaled by 1e18)"
      },
      "updateJumpRateModel(uint256,uint256,uint256,uint256)": {
        "params": {
          "baseRatePerYear": "The approximate target base APR, as a mantissa (scaled by 1e18)",
          "jumpMultiplierPerYear": "The multiplierPerBlock after hitting a specified utilization point",
          "kink_": "The utilization point at which the jump multiplier is applied",
          "multiplierPerYear": "The rate of increase in interest rate wrt utilization (scaled by 1e18)"
        }
      },
      "utilizationRate(uint256,uint256,uint256)": {
        "params": {
          "borrows": "The amount of borrows in the market",
          "cash": "The amount of cash in the market",
          "reserves": "The amount of reserves in the market (currently unused)"
        },
        "return": "The utilization rate as a mantissa between [0, 1e18]"
      }
    },
    "title": "tropykus JumpRateModel Contract V2 for V2 cTokens"
  },
  "userdoc": {
    "methods": {
      "getBorrowRate(uint256,uint256,uint256)": {
        "notice": "Calculates the current borrow rate per block"
      },
      "getSupplyRate(uint256,uint256,uint256,uint256)": {
        "notice": "Calculates the current supply rate per block"
      },
      "updateJumpRateModel(uint256,uint256,uint256,uint256)": {
        "notice": "Update the parameters of the interest rate model (only callable by owner, i.e. Timelock)"
      },
      "utilizationRate(uint256,uint256,uint256)": {
        "notice": "Calculates the utilization rate of the market: `borrows / (cash + borrows - reserves)`"
      }
    },
    "notice": "Supports only for V2 cTokens"
  },
  "storageLayout": {
    "storage": [
      {
        "astId": 24,
        "contract": "contracts/JumpRateModelV2.sol:JumpRateModelV2",
        "label": "owner",
        "offset": 0,
        "slot": "0",
        "type": "t_address"
      },
      {
        "astId": 26,
        "contract": "contracts/JumpRateModelV2.sol:JumpRateModelV2",
        "label": "pendingAdmin",
        "offset": 0,
        "slot": "1",
        "type": "t_address"
      },
      {
        "astId": 28,
        "contract": "contracts/JumpRateModelV2.sol:JumpRateModelV2",
        "label": "multiplierPerBlock",
        "offset": 0,
        "slot": "2",
        "type": "t_uint256"
      },
      {
        "astId": 30,
        "contract": "contracts/JumpRateModelV2.sol:JumpRateModelV2",
        "label": "baseRatePerBlock",
        "offset": 0,
        "slot": "3",
        "type": "t_uint256"
      },
      {
        "astId": 32,
        "contract": "contracts/JumpRateModelV2.sol:JumpRateModelV2",
        "label": "jumpMultiplierPerBlock",
        "offset": 0,
        "slot": "4",
        "type": "t_uint256"
      },
      {
        "astId": 34,
        "contract": "contracts/JumpRateModelV2.sol:JumpRateModelV2",
        "label": "kink",
        "offset": 0,
        "slot": "5",
        "type": "t_uint256"
      }
    ],
    "types": {
      "t_address": {
        "encoding": "inplace",
        "label": "address",
        "numberOfBytes": "20"
      },
      "t_uint256": {
        "encoding": "inplace",
        "label": "uint256",
        "numberOfBytes": "32"
      }
    }
  }
}