{
  "address": "0x851356ae760d987E095750cCeb3bC6014560891C",
  "abi": [
    {
      "inputs": [
        {
          "internalType": "address",
          "name": "guardian_",
          "type": "address"
        }
      ],
      "stateMutability": "nonpayable",
      "type": "constructor"
    },
    {
      "anonymous": false,
      "inputs": [
        {
          "indexed": false,
          "internalType": "address",
          "name": "oldGuardian",
          "type": "address"
        },
        {
          "indexed": false,
          "internalType": "address",
          "name": "newGuardian",
          "type": "address"
        }
      ],
      "name": "NewGuardian",
      "type": "event"
    },
    {
      "anonymous": false,
      "inputs": [
        {
          "indexed": false,
          "internalType": "address",
          "name": "oldPendingGuardian",
          "type": "address"
        },
        {
          "indexed": false,
          "internalType": "address",
          "name": "newPendingGuardian",
          "type": "address"
        }
      ],
      "name": "NewPendingGuardian",
      "type": "event"
    },
    {
      "inputs": [],
      "name": "_acceptAdmin",
      "outputs": [],
      "stateMutability": "nonpayable",
      "type": "function"
    },
    {
      "inputs": [
        {
          "internalType": "address",
          "name": "newPendingGuardian",
          "type": "address"
        }
      ],
      "name": "_setPendingAdmin",
      "outputs": [],
      "stateMutability": "nonpayable",
      "type": "function"
    },
    {
      "inputs": [],
      "name": "cTokenArrayCount",
      "outputs": [
        {
          "internalType": "uint256",
          "name": "",
          "type": "uint256"
        }
      ],
      "stateMutability": "view",
      "type": "function"
    },
    {
      "inputs": [
        {
          "internalType": "uint256",
          "name": "",
          "type": "uint256"
        }
      ],
      "name": "cTokensArray",
      "outputs": [
        {
          "internalType": "address",
          "name": "cToken",
          "type": "address"
        },
        {
          "internalType": "string",
          "name": "cTokenName",
          "type": "string"
        }
      ],
      "stateMutability": "view",
      "type": "function"
    },
    {
      "inputs": [
        {
          "internalType": "contract CToken",
          "name": "cToken",
          "type": "address"
        }
      ],
      "name": "getUnderlyingPrice",
      "outputs": [
        {
          "internalType": "uint256",
          "name": "",
          "type": "uint256"
        }
      ],
      "stateMutability": "view",
      "type": "function"
    },
    {
      "inputs": [],
      "name": "guardian",
      "outputs": [
        {
          "internalType": "address",
          "name": "",
          "type": "address"
        }
      ],
      "stateMutability": "view",
      "type": "function"
    },
    {
      "inputs": [],
      "name": "isPriceOracle",
      "outputs": [
        {
          "internalType": "bool",
          "name": "",
          "type": "bool"
        }
      ],
      "stateMutability": "view",
      "type": "function"
    },
    {
      "inputs": [],
      "name": "pendingGuardian",
      "outputs": [
        {
          "internalType": "address",
          "name": "",
          "type": "address"
        }
      ],
      "stateMutability": "view",
      "type": "function"
    },
    {
      "inputs": [
        {
          "internalType": "address",
          "name": "addressToken",
          "type": "address"
        },
        {
          "internalType": "address",
          "name": "addressAdapter",
          "type": "address"
        }
      ],
      "name": "setAdapterToToken",
      "outputs": [],
      "stateMutability": "nonpayable",
      "type": "function"
    },
    {
      "inputs": [
        {
          "internalType": "address",
          "name": "",
          "type": "address"
        }
      ],
      "name": "tokenAdapter",
      "outputs": [
        {
          "internalType": "address",
          "name": "",
          "type": "address"
        }
      ],
      "stateMutability": "view",
      "type": "function"
    }
  ],
  "transactionHash": "0x8641df4f10c70fd672e6a025ae1db1053e5bf9342ad7d5bd52d5c5be8a7903fd",
  "args": [
    "0xf39Fd6e51aad88F6F4ce6aB8827279cffFb92266"
  ],
  "solcInputHash": "3f2295c0e5923ce11cb0f26c6e52bee2",
  "bytecode": "0x608060405234801561001057600080fd5b50604051610b84380380610b8483398101604081905261002f91610054565b600080546001600160a01b0319166001600160a01b0392909216919091179055610084565b60006020828403121561006657600080fd5b81516001600160a01b038116811461007d57600080fd5b9392505050565b610af1806100936000396000f3fe608060405234801561001057600080fd5b506004361061009e5760003560e01c8063762c31ba11610066578063762c31ba146101335780637bdef09d14610146578063b71d1a0c1461016f578063e9c714f214610182578063fc57d4df1461018a57600080fd5b8063452a9320146100a3578063540399da146100d3578063639a0df7146100e557806366331bba1461010657806372a74ed51461011e575b600080fd5b6000546100b6906001600160a01b031681565b6040516001600160a01b0390911681526020015b60405180910390f35b6003545b6040519081526020016100ca565b6100f86100f336600461095b565b61019d565b6040516100ca92919061098d565b61010e600181565b60405190151581526020016100ca565b61013161012c366004610875565b61025f565b005b6001546100b6906001600160a01b031681565b6100b6610154366004610858565b6002602052600090815260409020546001600160a01b031681565b61013161017d366004610858565b6104e6565b6101316105e1565b6100d7610198366004610858565b610714565b600381815481106101ad57600080fd5b6000918252602090912060029091020180546001820180546001600160a01b039092169350906101dc90610a52565b80601f016020809104026020016040519081016040528092919081815260200182805461020890610a52565b80156102555780601f1061022a57610100808354040283529160200191610255565b820191906000526020600020905b81548152906001019060200180831161023857829003601f168201915b5050505050905082565b6000546001600160a01b031633146102925760405162461bcd60e51b8152600401610289906109cf565b60405180910390fd5b6001600160a01b0382166102fd5760405162461bcd60e51b815260206004820152602c60248201527f50726963654f7261636c6550726f78793a206164647265737320746f6b656e2060448201526b063616e206e6f7420626520360a41b6064820152608401610289565b6001600160a01b03811661036a5760405162461bcd60e51b815260206004820152602e60248201527f50726963654f7261636c6550726f78793a20616464726573732061646170746560448201526d0722063616e206e6f7420626520360941b6064820152608401610289565b6001600160a01b03828116600090815260026020526040902054166104b85760006040518060400160405280846001600160a01b03168152602001846001600160a01b03166395d89b416040518163ffffffff1660e01b815260040160006040518083038186803b1580156103de57600080fd5b505afa1580156103f2573d6000803e3d6000fd5b505050506040513d6000823e601f3d908101601f1916820160405261041a91908101906108ae565b905260038054600181018255600091909152815160029091027fc2575a0e9e593c00f959f8c92f12db2869c3395a3b0502d05e2516446f71f85b810180546001600160a01b039093166001600160a01b0319909316929092178255602080840151805194955085946104b3937fc2575a0e9e593c00f959f8c92f12db2869c3395a3b0502d05e2516446f71f85c019291909101906107bf565b505050505b6001600160a01b03918216600090815260026020526040902080546001600160a01b03191691909216179055565b6000546001600160a01b031633146105105760405162461bcd60e51b8152600401610289906109cf565b6001600160a01b03811661057b5760405162461bcd60e51b815260206004820152602c60248201527f50726963654f7261636c6550726f78793a20616464726573732061646d696e2060448201526b063616e206e6f7420626520360a41b6064820152608401610289565b600054600180546001600160a01b0319166001600160a01b0384811691821790925560408051929093168083526020830191909152917f82b7d5b540b091a495b35b109d1fff4d3128e7c81e8b8277c9167628f10a0e0b91015b60405180910390a15050565b6001546001600160a01b0316331461060b5760405162461bcd60e51b8152600401610289906109cf565b336106665760405162461bcd60e51b815260206004820152602560248201527f50726963654f7261636c6550726f78793a2073656e6465722063616e206e6f74604482015264020626520360dc1b6064820152608401610289565b60008054600180546001600160a01b038082166001600160a01b031980861682179096559490911690915560408051919092168082526020820184905292917f08fdaf06427a2010e5958f4329b566993472d14ce81d3f16ce7f2a2660da98e3910160405180910390a1600154604080516001600160a01b03808516825290921660208301527f82b7d5b540b091a495b35b109d1fff4d3128e7c81e8b8277c9167628f10a0e0b91016105d5565b6001600160a01b038082166000908152600260205260408120549091168061073f5750600092915050565b6040516317a6948f60e21b81526001600160a01b038481166004830152821690635e9a523c9060240160206040518083038186803b15801561078057600080fd5b505afa158015610794573d6000803e3d6000fd5b505050506040513d601f19601f820116820180604052508101906107b89190610974565b9392505050565b8280546107cb90610a52565b90600052602060002090601f0160209004810192826107ed5760008555610833565b82601f1061080657805160ff1916838001178555610833565b82800160010185558215610833579182015b82811115610833578251825591602001919060010190610818565b5061083f929150610843565b5090565b5b8082111561083f5760008155600101610844565b60006020828403121561086a57600080fd5b81356107b881610aa3565b6000806040838503121561088857600080fd5b823561089381610aa3565b915060208301356108a381610aa3565b809150509250929050565b6000602082840312156108c057600080fd5b815167ffffffffffffffff808211156108d857600080fd5b818401915084601f8301126108ec57600080fd5b8151818111156108fe576108fe610a8d565b604051601f8201601f19908116603f0116810190838211818310171561092657610926610a8d565b8160405282815287602084870101111561093f57600080fd5b610950836020830160208801610a22565b979650505050505050565b60006020828403121561096d57600080fd5b5035919050565b60006020828403121561098657600080fd5b5051919050565b60018060a01b038316815260406020820152600082518060408401526109ba816060850160208701610a22565b601f01601f1916919091016060019392505050565b60208082526033908201527f50726963654f7261636c6550726f78793a206f6e6c7920677561726469616e206040820152726d61792073657420746865206164647265737360681b606082015260800190565b60005b83811015610a3d578181015183820152602001610a25565b83811115610a4c576000848401525b50505050565b600181811c90821680610a6657607f821691505b60208210811415610a8757634e487b7160e01b600052602260045260246000fd5b50919050565b634e487b7160e01b600052604160045260246000fd5b6001600160a01b0381168114610ab857600080fd5b5056fea264697066735822122041982bfa8263db6f67b4cb31b2123dc88c94c4bddf1142a19a52222187f77b6364736f6c63430008060033",
  "devdoc": {
    "kind": "dev",
    "methods": {
      "_setPendingAdmin(address)": {
        "params": {
          "newPendingGuardian": "New pending gaurdian."
        }
      },
      "cTokenArrayCount()": {
        "returns": {
          "_0": "The length of cTokensArray"
        }
      },
      "constructor": {
        "params": {
          "guardian_": "The address of the guardian, which may set the"
        }
      },
      "getUnderlyingPrice(address)": {
        "params": {
          "cToken": "The cToken to get the underlying price of"
        },
        "returns": {
          "_0": "The underlying asset price mantissa (scaled by 1e18)"
        }
      },
      "setAdapterToToken(address,address)": {
        "params": {
          "addressAdapter": "Address of the OracleAdapter",
          "addressToken": "Address of the cToken"
        }
      }
    },
    "version": 1
  },
  "userdoc": {
    "events": {
      "NewGuardian(address,address)": {
        "notice": "Emitted when pendingGuardian is accepted, which means gaurdian is updated"
      },
      "NewPendingGuardian(address,address)": {
        "notice": "Emitted when pendingGuardian is changed"
      }
    },
    "kind": "user",
    "methods": {
      "_acceptAdmin()": {
        "notice": "Accepts transfer of gaurdian rights. msg.sender must be pendingGaurdian"
      },
      "_setPendingAdmin(address)": {
        "notice": "Begins transfer of gaurdian rights. The newPendingGaurdian must call `_acceptAdmin` to finalize the transfer."
      },
      "cTokenArrayCount()": {
        "notice": "Get the length of cTokensArray"
      },
      "cTokensArray(uint256)": {
        "notice": "Array of cTokensDetail"
      },
      "getUnderlyingPrice(address)": {
        "notice": "Get the underlying price of a listed cToken asset"
      },
      "guardian()": {
        "notice": "Address of the guardian"
      },
      "isPriceOracle()": {
        "notice": "Indicator that this is a PriceOracle contract (for inspection)"
      },
      "pendingGuardian()": {
        "notice": "Address of the pending guardian"
      },
      "setAdapterToToken(address,address)": {
        "notice": "Set the underlying price of a listed cToken asset"
      },
      "tokenAdapter(address)": {
        "notice": "Mapping of the cTokenAddress => adapterAddress"
      }
    },
    "version": 1
  },
  "storageLayout": {
    "storage": [
      {
        "astId": 40032,
        "contract": "contracts/PriceOracleProxy.sol:PriceOracleProxy",
        "label": "guardian",
        "offset": 0,
        "slot": "0",
        "type": "t_address"
      },
      {
        "astId": 40035,
        "contract": "contracts/PriceOracleProxy.sol:PriceOracleProxy",
        "label": "pendingGuardian",
        "offset": 0,
        "slot": "1",
        "type": "t_address"
      },
      {
        "astId": 40040,
        "contract": "contracts/PriceOracleProxy.sol:PriceOracleProxy",
        "label": "tokenAdapter",
        "offset": 0,
        "slot": "2",
        "type": "t_mapping(t_address,t_address)"
      },
      {
        "astId": 40064,
        "contract": "contracts/PriceOracleProxy.sol:PriceOracleProxy",
        "label": "cTokensArray",
        "offset": 0,
        "slot": "3",
        "type": "t_array(t_struct(CtokenDetail)40059_storage)dyn_storage"
      }
    ],
    "types": {
      "t_address": {
        "encoding": "inplace",
        "label": "address",
        "numberOfBytes": "20"
      },
      "t_array(t_struct(CtokenDetail)40059_storage)dyn_storage": {
        "base": "t_struct(CtokenDetail)40059_storage",
        "encoding": "dynamic_array",
        "label": "struct PriceOracleProxy.CtokenDetail[]",
        "numberOfBytes": "32"
      },
      "t_mapping(t_address,t_address)": {
        "encoding": "mapping",
        "key": "t_address",
        "label": "mapping(address => address)",
        "numberOfBytes": "32",
        "value": "t_address"
      },
      "t_string_storage": {
        "encoding": "bytes",
        "label": "string",
        "numberOfBytes": "32"
      },
      "t_struct(CtokenDetail)40059_storage": {
        "encoding": "inplace",
        "label": "struct PriceOracleProxy.CtokenDetail",
        "members": [
          {
            "astId": 40056,
            "contract": "contracts/PriceOracleProxy.sol:PriceOracleProxy",
            "label": "cToken",
            "offset": 0,
            "slot": "0",
            "type": "t_address"
          },
          {
            "astId": 40058,
            "contract": "contracts/PriceOracleProxy.sol:PriceOracleProxy",
            "label": "cTokenName",
            "offset": 0,
            "slot": "1",
            "type": "t_string_storage"
          }
        ],
        "numberOfBytes": "64"
      }
    }
  }
}