{
  "address": "0x8A791620dd6260079BF849Dc5567aDC3F2FdC318",
  "abi": [
    {
      "inputs": [
        {
          "internalType": "address",
          "name": "guardian_",
          "type": "address"
        }
      ],
      "payable": false,
      "stateMutability": "nonpayable",
      "type": "constructor"
    },
    {
      "anonymous": false,
      "inputs": [
        {
          "indexed": false,
          "internalType": "address",
          "name": "oldGuardian",
          "type": "address"
        },
        {
          "indexed": false,
          "internalType": "address",
          "name": "newGuardian",
          "type": "address"
        }
      ],
      "name": "NewGuardian",
      "type": "event"
    },
    {
      "anonymous": false,
      "inputs": [
        {
          "indexed": false,
          "internalType": "address",
          "name": "oldPendingGuardian",
          "type": "address"
        },
        {
          "indexed": false,
          "internalType": "address",
          "name": "newPendingGuardian",
          "type": "address"
        }
      ],
      "name": "NewPendingGuardian",
      "type": "event"
    },
    {
      "constant": false,
      "inputs": [],
      "name": "_acceptAdmin",
      "outputs": [],
      "payable": false,
      "stateMutability": "nonpayable",
      "type": "function"
    },
    {
      "constant": false,
      "inputs": [
        {
          "internalType": "address",
          "name": "newPendingGuardian",
          "type": "address"
        }
      ],
      "name": "_setPendingAdmin",
      "outputs": [],
      "payable": false,
      "stateMutability": "nonpayable",
      "type": "function"
    },
    {
      "constant": true,
      "inputs": [],
      "name": "cTokenArrayCount",
      "outputs": [
        {
          "internalType": "uint256",
          "name": "",
          "type": "uint256"
        }
      ],
      "payable": false,
      "stateMutability": "view",
      "type": "function"
    },
    {
      "constant": true,
      "inputs": [
        {
          "internalType": "uint256",
          "name": "",
          "type": "uint256"
        }
      ],
      "name": "cTokensArray",
      "outputs": [
        {
          "internalType": "address",
          "name": "cToken",
          "type": "address"
        },
        {
          "internalType": "string",
          "name": "cTokenName",
          "type": "string"
        }
      ],
      "payable": false,
      "stateMutability": "view",
      "type": "function"
    },
    {
      "constant": true,
      "inputs": [
        {
          "internalType": "contract CToken",
          "name": "cToken",
          "type": "address"
        }
      ],
      "name": "getUnderlyingPrice",
      "outputs": [
        {
          "internalType": "uint256",
          "name": "",
          "type": "uint256"
        }
      ],
      "payable": false,
      "stateMutability": "view",
      "type": "function"
    },
    {
      "constant": true,
      "inputs": [],
      "name": "guardian",
      "outputs": [
        {
          "internalType": "address",
          "name": "",
          "type": "address"
        }
      ],
      "payable": false,
      "stateMutability": "view",
      "type": "function"
    },
    {
      "constant": true,
      "inputs": [],
      "name": "isPriceOracle",
      "outputs": [
        {
          "internalType": "bool",
          "name": "",
          "type": "bool"
        }
      ],
      "payable": false,
      "stateMutability": "view",
      "type": "function"
    },
    {
      "constant": true,
      "inputs": [],
      "name": "pendingGuardian",
      "outputs": [
        {
          "internalType": "address",
          "name": "",
          "type": "address"
        }
      ],
      "payable": false,
      "stateMutability": "view",
      "type": "function"
    },
    {
      "constant": false,
      "inputs": [
        {
          "internalType": "address",
          "name": "addressToken",
          "type": "address"
        },
        {
          "internalType": "address",
          "name": "addressAdapter",
          "type": "address"
        }
      ],
      "name": "setAdapterToToken",
      "outputs": [],
      "payable": false,
      "stateMutability": "nonpayable",
      "type": "function"
    },
    {
      "constant": true,
      "inputs": [
        {
          "internalType": "address",
          "name": "",
          "type": "address"
        }
      ],
      "name": "tokenAdapter",
      "outputs": [
        {
          "internalType": "address",
          "name": "",
          "type": "address"
        }
      ],
      "payable": false,
      "stateMutability": "view",
      "type": "function"
    }
  ],
  "transactionHash": "0xee2348545d5079955f8e4282409bd54b9e68d0cfcb60396c4421b8a70d6c1ccb",
  "args": [
    "0xf39Fd6e51aad88F6F4ce6aB8827279cffFb92266"
  ],
  "solcInputHash": "f248c35aedbb668446e4c5a0022a767b",
  "bytecode": "0x608060405234801561001057600080fd5b50604051610b79380380610b798339818101604052602081101561003357600080fd5b5051600080546001600160a01b039092166001600160a01b0319909216919091179055610b14806100656000396000f3fe608060405234801561001057600080fd5b506004361061009e5760003560e01c8063762c31ba11610066578063762c31ba146101db5780637bdef09d146101e3578063b71d1a0c14610209578063e9c714f21461022f578063fc57d4df146102375761009e565b8063452a9320146100a3578063540399da146100c7578063639a0df7146100e157806366331bba1461018f57806372a74ed5146101ab575b600080fd5b6100ab61025d565b604080516001600160a01b039092168252519081900360200190f35b6100cf61026c565b60408051918252519081900360200190f35b6100fe600480360360208110156100f757600080fd5b5035610273565b60405180836001600160a01b03166001600160a01b0316815260200180602001828103825283818151815260200191508051906020019080838360005b8381101561015357818101518382015260200161013b565b50505050905090810190601f1680156101805780820380516001836020036101000a031916815260200191505b50935050505060405180910390f35b610197610335565b604080519115158252519081900360200190f35b6101d9600480360360408110156101c157600080fd5b506001600160a01b038135811691602001351661033a565b005b6100ab610641565b6100ab600480360360208110156101f957600080fd5b50356001600160a01b0316610650565b6101d96004803603602081101561021f57600080fd5b50356001600160a01b031661066b565b6101d961075e565b6100cf6004803603602081101561024d57600080fd5b50356001600160a01b031661089a565b6000546001600160a01b031681565b6003545b90565b6003818154811061028057fe5b600091825260209182902060029182020180546001808301805460408051601f600019958416156101000295909501909216969096049283018790048702810187019095528185526001600160a01b039092169550919390919083018282801561032b5780601f106103005761010080835404028352916020019161032b565b820191906000526020600020905b81548152906001019060200180831161030e57829003601f168201915b5050505050905082565b600181565b6000546001600160a01b031633146103835760405162461bcd60e51b8152600401808060200182810382526033815260200180610a2e6033913960400191505060405180910390fd5b6001600160a01b0382166103c85760405162461bcd60e51b815260040180806020018281038252602c815260200180610a02602c913960400191505060405180910390fd5b6001600160a01b03811661040d5760405162461bcd60e51b815260040180806020018281038252602e815260200180610a8d602e913960400191505060405180910390fd5b6001600160a01b038281166000908152600260205260409020541661061357610434610951565b6040518060400160405280846001600160a01b03168152602001846001600160a01b03166395d89b416040518163ffffffff1660e01b815260040160006040518083038186803b15801561048757600080fd5b505afa15801561049b573d6000803e3d6000fd5b505050506040513d6000823e601f3d908101601f1916820160405260208110156104c457600080fd5b81019080805160405193929190846401000000008211156104e457600080fd5b9083019060208201858111156104f957600080fd5b825164010000000081118282018810171561051357600080fd5b82525081516020918201929091019080838360005b83811015610540578181015183820152602001610528565b50505050905090810190601f16801561056d5780820380516001836020036101000a031916815260200191505b5060405250505090526003805460018101808355600092909252825160029091027fc2575a0e9e593c00f959f8c92f12db2869c3395a3b0502d05e2516446f71f85b810180546001600160a01b039093166001600160a01b031990931692909217825560208085015180519596509394869461060d937fc2575a0e9e593c00f959f8c92f12db2869c3395a3b0502d05e2516446f71f85c01920190610969565b50505050505b6001600160a01b03918216600090815260026020526040902080546001600160a01b03191691909216179055565b6001546001600160a01b031681565b6002602052600090815260409020546001600160a01b031681565b6000546001600160a01b031633146106b45760405162461bcd60e51b8152600401808060200182810382526033815260200180610a2e6033913960400191505060405180910390fd5b6001600160a01b0381166106f95760405162461bcd60e51b815260040180806020018281038252602c815260200180610a61602c913960400191505060405180910390fd5b600054600180546001600160a01b0319166001600160a01b0384811691821790925560408051929093168083526020830191909152825190927f82b7d5b540b091a495b35b109d1fff4d3128e7c81e8b8277c9167628f10a0e0b928290030190a15050565b6001546001600160a01b031633146107a75760405162461bcd60e51b8152600401808060200182810382526033815260200180610a2e6033913960400191505060405180910390fd5b336107e35760405162461bcd60e51b8152600401808060200182810382526025815260200180610abb6025913960400191505060405180910390fd5b60008054600180546001600160a01b038082166001600160a01b031980861682179687905590921690925560408051938316808552949092166020840152815190927f08fdaf06427a2010e5958f4329b566993472d14ce81d3f16ce7f2a2660da98e392908290030190a1600154604080516001600160a01b038085168252909216602083015280517f82b7d5b540b091a495b35b109d1fff4d3128e7c81e8b8277c9167628f10a0e0b9281900390910190a15050565b6001600160a01b03808216600090815260026020526040812054909116806108c657600091505061094c565b806001600160a01b0316635e9a523c846040518263ffffffff1660e01b815260040180826001600160a01b03166001600160a01b0316815260200191505060206040518083038186803b15801561091c57600080fd5b505afa158015610930573d6000803e3d6000fd5b505050506040513d602081101561094657600080fd5b50519150505b919050565b60408051808201909152600081526060602082015290565b828054600181600116156101000203166002900490600052602060002090601f016020900481019282601f106109aa57805160ff19168380011785556109d7565b828001600101855582156109d7579182015b828111156109d75782518255916020019190600101906109bc565b506109e39291506109e7565b5090565b61027091905b808211156109e357600081556001016109ed56fe50726963654f7261636c6550726f78793a206164647265737320746f6b656e2063616e206e6f74206265203050726963654f7261636c6550726f78793a206f6e6c7920677561726469616e206d61792073657420746865206164647265737350726963654f7261636c6550726f78793a20616464726573732061646d696e2063616e206e6f74206265203050726963654f7261636c6550726f78793a206164647265737320616461707465722063616e206e6f74206265203050726963654f7261636c6550726f78793a2073656e6465722063616e206e6f742062652030a265627a7a7231582070adbac59b4a0054abd44a9c8038c2f238873d1efe41c53ba5e73a739eb59eff64736f6c63430005110032",
  "devdoc": {
    "methods": {
      "_setPendingAdmin(address)": {
        "params": {
          "newPendingGuardian": "New pending gaurdian."
        }
      },
      "cTokenArrayCount()": {
        "return": "The length of cTokensArray"
      },
      "constructor": {
        "params": {
          "guardian_": "The address of the guardian, which may set the"
        }
      },
      "getUnderlyingPrice(address)": {
        "params": {
          "cToken": "The cToken to get the underlying price of"
        },
        "return": "The underlying asset price mantissa (scaled by 1e18)"
      },
      "setAdapterToToken(address,address)": {
        "params": {
          "addressAdapter": "Address of the OracleAdapter",
          "addressToken": "Address of the cToken"
        }
      }
    }
  },
  "userdoc": {
    "methods": {
      "_acceptAdmin()": {
        "notice": "Accepts transfer of gaurdian rights. msg.sender must be pendingGaurdian"
      },
      "_setPendingAdmin(address)": {
        "notice": "Begins transfer of gaurdian rights. The newPendingGaurdian must call `_acceptAdmin` to finalize the transfer."
      },
      "cTokenArrayCount()": {
        "notice": "Get the length of cTokensArray"
      },
      "getUnderlyingPrice(address)": {
        "notice": "Get the underlying price of a listed cToken asset"
      },
      "setAdapterToToken(address,address)": {
        "notice": "Set the underlying price of a listed cToken asset"
      }
    }
  },
  "storageLayout": {
    "storage": [
      {
        "astId": 37347,
        "contract": "contracts/PriceOracleProxy.sol:PriceOracleProxy",
        "label": "guardian",
        "offset": 0,
        "slot": "0",
        "type": "t_address"
      },
      {
        "astId": 37349,
        "contract": "contracts/PriceOracleProxy.sol:PriceOracleProxy",
        "label": "pendingGuardian",
        "offset": 0,
        "slot": "1",
        "type": "t_address"
      },
      {
        "astId": 37353,
        "contract": "contracts/PriceOracleProxy.sol:PriceOracleProxy",
        "label": "tokenAdapter",
        "offset": 0,
        "slot": "2",
        "type": "t_mapping(t_address,t_address)"
      },
      {
        "astId": 37373,
        "contract": "contracts/PriceOracleProxy.sol:PriceOracleProxy",
        "label": "cTokensArray",
        "offset": 0,
        "slot": "3",
        "type": "t_array(t_struct(CtokenDetail)37370_storage)dyn_storage"
      }
    ],
    "types": {
      "t_address": {
        "encoding": "inplace",
        "label": "address",
        "numberOfBytes": "20"
      },
      "t_array(t_struct(CtokenDetail)37370_storage)dyn_storage": {
        "base": "t_struct(CtokenDetail)37370_storage",
        "encoding": "dynamic_array",
        "label": "struct PriceOracleProxy.CtokenDetail[]",
        "numberOfBytes": "32"
      },
      "t_mapping(t_address,t_address)": {
        "encoding": "mapping",
        "key": "t_address",
        "label": "mapping(address => address)",
        "numberOfBytes": "32",
        "value": "t_address"
      },
      "t_string_storage": {
        "encoding": "bytes",
        "label": "string",
        "numberOfBytes": "32"
      },
      "t_struct(CtokenDetail)37370_storage": {
        "encoding": "inplace",
        "label": "struct PriceOracleProxy.CtokenDetail",
        "members": [
          {
            "astId": 37367,
            "contract": "contracts/PriceOracleProxy.sol:PriceOracleProxy",
            "label": "cToken",
            "offset": 0,
            "slot": "0",
            "type": "t_address"
          },
          {
            "astId": 37369,
            "contract": "contracts/PriceOracleProxy.sol:PriceOracleProxy",
            "label": "cTokenName",
            "offset": 0,
            "slot": "1",
            "type": "t_string_storage"
          }
        ],
        "numberOfBytes": "64"
      }
    }
  }
}