{
  "address": "0x67d269191c92Caf3cD7723F116c85e6E9bf55933",
  "abi": [
    {
      "inputs": [
        {
          "internalType": "address",
          "name": "guardian_",
          "type": "address"
        },
        {
          "internalType": "uint256",
          "name": "price",
          "type": "uint256"
        }
      ],
      "stateMutability": "nonpayable",
      "type": "constructor"
    },
    {
      "anonymous": false,
      "inputs": [
        {
          "indexed": false,
          "internalType": "uint256",
          "name": "oldPrice",
          "type": "uint256"
        },
        {
          "indexed": false,
          "internalType": "uint256",
          "name": "newPrice",
          "type": "uint256"
        }
      ],
      "name": "MockPriceProviderMoCUpdated",
      "type": "event"
    },
    {
      "inputs": [],
      "name": "guardian",
      "outputs": [
        {
          "internalType": "address",
          "name": "",
          "type": "address"
        }
      ],
      "stateMutability": "view",
      "type": "function"
    },
    {
      "inputs": [],
      "name": "peek",
      "outputs": [
        {
          "internalType": "bytes32",
          "name": "",
          "type": "bytes32"
        },
        {
          "internalType": "bool",
          "name": "",
          "type": "bool"
        }
      ],
      "stateMutability": "view",
      "type": "function"
    },
    {
      "inputs": [
        {
          "internalType": "uint256",
          "name": "price",
          "type": "uint256"
        }
      ],
      "name": "setPrice",
      "outputs": [],
      "stateMutability": "nonpayable",
      "type": "function"
    }
  ],
  "transactionHash": "0x2bfcd2a97331cec964e37eeb6170241fe18fee436349f3c2d47d1cc3404ce783",
  "args": [
    "0x09635F643e140090A9A8Dcd712eD6285858ceBef",
    "1050000000000000000"
  ],
  "solcInputHash": "3f2295c0e5923ce11cb0f26c6e52bee2",
  "bytecode": "0x608060405234801561001057600080fd5b506040516103aa3803806103aa83398101604081905261002f91610135565b6001600160a01b03821661009f5760405162461bcd60e51b815260206004820152602c60248201527f4d6f636b507269636550726f76696465724d6f433a206164647265737320636f60448201526b0756c64206e6f7420626520360a41b60648201526084015b60405180910390fd5b806100ff5760405162461bcd60e51b815260206004820152602a60248201527f4d6f636b507269636550726f76696465724d6f433a20707269636520636f756c604482015269064206e6f7420626520360b41b6064820152608401610096565b6001805460009290925560ff196001600160a01b0390931661010002929092166001600160a81b0319909116178117905561016f565b6000806040838503121561014857600080fd5b82516001600160a01b038116811461015f57600080fd5b6020939093015192949293505050565b61022c8061017e6000396000f3fe608060405234801561001057600080fd5b50600436106100415760003560e01c8063452a93201461004657806359e02dd71461007b57806391b7f5ed14610099575b600080fd5b60015461005e9061010090046001600160a01b031681565b6040516001600160a01b0390911681526020015b60405180910390f35b60005460015460ff1660408051928352901515602083015201610072565b6100ac6100a73660046101dd565b6100ae565b005b60015461010090046001600160a01b031633146101385760405162461bcd60e51b815260206004820152603760248201527f4d6f636b507269636550726f76696465724d6f433a206f6e6c7920677561726460448201527f69616e206d61792073657420746865206164647265737300000000000000000060648201526084015b60405180910390fd5b806101985760405162461bcd60e51b815260206004820152602a60248201527f4d6f636b507269636550726f76696465724d6f433a20707269636520636f756c604482015269064206e6f7420626520360b41b606482015260840161012f565b600080549082905560408051828152602081018490527f0f044c0280bacc38accfa21abc3ff4078e3acc7d7a14569f5db61f36870df047910160405180910390a15050565b6000602082840312156101ef57600080fd5b503591905056fea2646970667358221220f7515fbb2e55846cd982cf3d3ec4650f7c5c8cad8c3466ce1148d1d7ab30910064736f6c63430008060033",
  "devdoc": {
    "kind": "dev",
    "methods": {
      "setPrice(uint256)": {
        "params": {
          "price": "uint of price provider"
        }
      }
    },
    "title": "A mock price provider of Money on Chain (MoC)",
    "version": 1
  },
  "userdoc": {
    "events": {
      "MockPriceProviderMoCUpdated(uint256,uint256)": {
        "notice": "Event rbtcPrice updated"
      }
    },
    "kind": "user",
    "methods": {
      "guardian()": {
        "notice": "Address of the guardian"
      },
      "setPrice(uint256)": {
        "notice": "Set the rbtcPrice price provider"
      }
    },
    "notice": "You can use this contract for only simulation",
    "version": 1
  },
  "storageLayout": {
    "storage": [
      {
        "astId": 41911,
        "contract": "contracts/mocks/MockPriceProviderMoC.sol:MockPriceProviderMoC",
        "label": "rbtcPrice",
        "offset": 0,
        "slot": "0",
        "type": "t_bytes32"
      },
      {
        "astId": 41914,
        "contract": "contracts/mocks/MockPriceProviderMoC.sol:MockPriceProviderMoC",
        "label": "has",
        "offset": 0,
        "slot": "1",
        "type": "t_bool"
      },
      {
        "astId": 41917,
        "contract": "contracts/mocks/MockPriceProviderMoC.sol:MockPriceProviderMoC",
        "label": "guardian",
        "offset": 1,
        "slot": "1",
        "type": "t_address"
      }
    ],
    "types": {
      "t_address": {
        "encoding": "inplace",
        "label": "address",
        "numberOfBytes": "20"
      },
      "t_bool": {
        "encoding": "inplace",
        "label": "bool",
        "numberOfBytes": "1"
      },
      "t_bytes32": {
        "encoding": "inplace",
        "label": "bytes32",
        "numberOfBytes": "32"
      }
    }
  }
}