{
  "address": "0x9A9f2CCfdE556A7E9Ff0848998Aa4a0CFD8863AE",
  "abi": [
    {
      "inputs": [
        {
          "internalType": "uint256",
          "name": "baseRatePerYear",
          "type": "uint256"
        },
        {
          "internalType": "uint256",
          "name": "multiplierPerYear",
          "type": "uint256"
        },
        {
          "internalType": "uint256",
          "name": "jumpMultiplierPerYear",
          "type": "uint256"
        },
        {
          "internalType": "uint256",
          "name": "kink_",
          "type": "uint256"
        },
        {
          "internalType": "address",
          "name": "owner_",
          "type": "address"
        }
      ],
      "payable": false,
      "stateMutability": "nonpayable",
      "type": "constructor"
    },
    {
      "anonymous": false,
      "inputs": [
        {
          "indexed": true,
          "internalType": "address",
          "name": "newAdmin",
          "type": "address"
        }
      ],
      "name": "NewAdmin",
      "type": "event"
    },
    {
      "anonymous": false,
      "inputs": [
        {
          "indexed": false,
          "internalType": "uint256",
          "name": "baseRatePerBlock",
          "type": "uint256"
        },
        {
          "indexed": false,
          "internalType": "uint256",
          "name": "multiplierPerBlock",
          "type": "uint256"
        },
        {
          "indexed": false,
          "internalType": "uint256",
          "name": "jumpMultiplierPerBlock",
          "type": "uint256"
        },
        {
          "indexed": false,
          "internalType": "uint256",
          "name": "kink",
          "type": "uint256"
        }
      ],
      "name": "NewInterestParams",
      "type": "event"
    },
    {
      "anonymous": false,
      "inputs": [
        {
          "indexed": true,
          "internalType": "address",
          "name": "newPendingAdmin",
          "type": "address"
        }
      ],
      "name": "NewPendingAdmin",
      "type": "event"
    },
    {
      "constant": false,
      "inputs": [],
      "name": "acceptAdmin",
      "outputs": [],
      "payable": false,
      "stateMutability": "nonpayable",
      "type": "function"
    },
    {
      "constant": true,
      "inputs": [],
      "name": "baseRatePerBlock",
      "outputs": [
        {
          "internalType": "uint256",
          "name": "",
          "type": "uint256"
        }
      ],
      "payable": false,
      "stateMutability": "view",
      "type": "function"
    },
    {
      "constant": true,
      "inputs": [],
      "name": "blocksPerYear",
      "outputs": [
        {
          "internalType": "uint256",
          "name": "",
          "type": "uint256"
        }
      ],
      "payable": false,
      "stateMutability": "view",
      "type": "function"
    },
    {
      "constant": true,
      "inputs": [
        {
          "internalType": "uint256",
          "name": "cash",
          "type": "uint256"
        },
        {
          "internalType": "uint256",
          "name": "borrows",
          "type": "uint256"
        },
        {
          "internalType": "uint256",
          "name": "reserves",
          "type": "uint256"
        }
      ],
      "name": "getBorrowRate",
      "outputs": [
        {
          "internalType": "uint256",
          "name": "",
          "type": "uint256"
        }
      ],
      "payable": false,
      "stateMutability": "view",
      "type": "function"
    },
    {
      "constant": true,
      "inputs": [
        {
          "internalType": "uint256",
          "name": "_totalCash",
          "type": "uint256"
        },
        {
          "internalType": "uint256",
          "name": "_totalBorrows",
          "type": "uint256"
        },
        {
          "internalType": "uint256",
          "name": "_totalReserves",
          "type": "uint256"
        },
        {
          "internalType": "uint256",
          "name": "_totalSupply",
          "type": "uint256"
        },
        {
          "internalType": "uint256",
          "name": "_reserveFactorMantissa",
          "type": "uint256"
        }
      ],
      "name": "getExchangeRate",
      "outputs": [
        {
          "internalType": "enum CarefulMath.MathError",
          "name": "",
          "type": "uint8"
        },
        {
          "internalType": "uint256",
          "name": "",
          "type": "uint256"
        }
      ],
      "payable": false,
      "stateMutability": "view",
      "type": "function"
    },
    {
      "constant": true,
      "inputs": [
        {
          "internalType": "uint256",
          "name": "cash",
          "type": "uint256"
        },
        {
          "internalType": "uint256",
          "name": "borrows",
          "type": "uint256"
        },
        {
          "internalType": "uint256",
          "name": "reserves",
          "type": "uint256"
        },
        {
          "internalType": "uint256",
          "name": "reserveFactorMantissa",
          "type": "uint256"
        }
      ],
      "name": "getSupplyRate",
      "outputs": [
        {
          "internalType": "uint256",
          "name": "",
          "type": "uint256"
        }
      ],
      "payable": false,
      "stateMutability": "view",
      "type": "function"
    },
    {
      "constant": true,
      "inputs": [],
      "name": "isInterestRateModel",
      "outputs": [
        {
          "internalType": "bool",
          "name": "",
          "type": "bool"
        }
      ],
      "payable": false,
      "stateMutability": "view",
      "type": "function"
    },
    {
      "constant": true,
      "inputs": [],
      "name": "jumpMultiplierPerBlock",
      "outputs": [
        {
          "internalType": "uint256",
          "name": "",
          "type": "uint256"
        }
      ],
      "payable": false,
      "stateMutability": "view",
      "type": "function"
    },
    {
      "constant": true,
      "inputs": [],
      "name": "kink",
      "outputs": [
        {
          "internalType": "uint256",
          "name": "",
          "type": "uint256"
        }
      ],
      "payable": false,
      "stateMutability": "view",
      "type": "function"
    },
    {
      "constant": true,
      "inputs": [],
      "name": "multiplierPerBlock",
      "outputs": [
        {
          "internalType": "uint256",
          "name": "",
          "type": "uint256"
        }
      ],
      "payable": false,
      "stateMutability": "view",
      "type": "function"
    },
    {
      "constant": true,
      "inputs": [],
      "name": "owner",
      "outputs": [
        {
          "internalType": "address",
          "name": "",
          "type": "address"
        }
      ],
      "payable": false,
      "stateMutability": "view",
      "type": "function"
    },
    {
      "constant": true,
      "inputs": [],
      "name": "pendingAdmin",
      "outputs": [
        {
          "internalType": "address",
          "name": "",
          "type": "address"
        }
      ],
      "payable": false,
      "stateMutability": "view",
      "type": "function"
    },
    {
      "constant": false,
      "inputs": [
        {
          "internalType": "address",
          "name": "pendingAdmin_",
          "type": "address"
        }
      ],
      "name": "setPendingAdmin",
      "outputs": [],
      "payable": false,
      "stateMutability": "nonpayable",
      "type": "function"
    },
    {
      "constant": false,
      "inputs": [
        {
          "internalType": "uint256",
          "name": "baseRatePerYear",
          "type": "uint256"
        },
        {
          "internalType": "uint256",
          "name": "multiplierPerYear",
          "type": "uint256"
        },
        {
          "internalType": "uint256",
          "name": "jumpMultiplierPerYear",
          "type": "uint256"
        },
        {
          "internalType": "uint256",
          "name": "kink_",
          "type": "uint256"
        }
      ],
      "name": "updateJumpRateModel",
      "outputs": [],
      "payable": false,
      "stateMutability": "nonpayable",
      "type": "function"
    },
    {
      "constant": true,
      "inputs": [
        {
          "internalType": "uint256",
          "name": "cash",
          "type": "uint256"
        },
        {
          "internalType": "uint256",
          "name": "borrows",
          "type": "uint256"
        },
        {
          "internalType": "uint256",
          "name": "reserves",
          "type": "uint256"
        }
      ],
      "name": "utilizationRate",
      "outputs": [
        {
          "internalType": "uint256",
          "name": "",
          "type": "uint256"
        }
      ],
      "payable": false,
      "stateMutability": "pure",
      "type": "function"
    }
  ],
  "transactionHash": "0x49664f3ce38e5e902572b7c3124db26a7d327592f83b8fb91a54242234dafa97",
  "args": [
    "0",
    "40000000000000000",
    "1090000000000000000",
    "800000000000000000",
    "0xDc64a140Aa3E981100a9becA4E685f962f0cF6C9"
  ],
  "solcInputHash": "689bd9415ade6c70839a66716afe64b8",
  "bytecode": "0x60806040523480156200001157600080fd5b5060405162000fb438038062000fb4833981810160405260a08110156200003757600080fd5b50805160208201516040808401516060850151608090950151600080546001600160a01b0319166001600160a01b0380841691909117808355945196979596939594929388938893889388938893909116917f71614071b88dee5e0b2ae578a9dd7b2ebbe9ae832ba419dc0242cd065a290b6c91a2620000c3858585856001600160e01b03620000d316565b505050505050505050506200031d565b620000f062100a4085620001c560201b620008641790919060201c565b600355620001486200011262100a408362000218602090811b6200080b17901c565b62000134670de0b6b3a7640000866200021860201b6200080b1790919060201c565b620001c560201b620008641790919060201c565b600255620001668262100a40620001c5602090811b6200086417901c565b60048190556005829055600354600254604080519283526020830191909152818101929092526060810183905290517f6960ab234c7ef4b0c9197100f5393cfcde7c453ac910a27bd2000aa1dd4c068d9181900360800190a150505050565b60006200020f83836040518060400160405280601a81526020017f536166654d6174683a206469766973696f6e206279207a65726f0000000000008152506200027660201b60201c565b90505b92915050565b600082620002295750600062000212565b828202828482816200023757fe5b04146200020f5760405162461bcd60e51b815260040180806020018281038252602181526020018062000f936021913960400191505060405180910390fd5b60008183620003065760405162461bcd60e51b81526004018080602001828103825283818151815260200191508051906020019080838360005b83811015620002ca578181015183820152602001620002b0565b50505050905090810190601f168015620002f85780820380516001836020036101000a031916815260200191505b509250505060405180910390fd5b5060008385816200031357fe5b0495945050505050565b610c66806200032d6000396000f3fe608060405234801561001057600080fd5b50600436106100f55760003560e01c80638726bb8911610097578063b816881611610066578063b816881614610275578063b9f9850a146102a4578063f14039de146102ac578063fd2da339146102b4576100f5565b80638726bb89146101fd5780638da5cb5b14610205578063a385fb961461020d578063b089e0c014610215576100f5565b80632191f92a116100d35780632191f92a1461016e578063267822471461018a5780634dd18bf5146101ae5780636e71e2d8146101d4576100f5565b80630e18b681146100fa57806315f24053146101045780632037f3e71461013f575b600080fd5b6101026102bc565b005b61012d6004803603606081101561011a57600080fd5b5080359060208101359060400135610358565b60408051918252519081900360200190f35b6101026004803603608081101561015557600080fd5b508035906020810135906040810135906060013561036f565b6101766103ca565b604080519115158252519081900360200190f35b6101926103cf565b604080516001600160a01b039092168252519081900360200190f35b610102600480360360208110156101c457600080fd5b50356001600160a01b03166103de565b61012d600480360360608110156101ea57600080fd5b5080359060208101359060400135610477565b61012d6104cd565b6101926104d3565b61012d6104e2565b61024a600480360360a081101561022b57600080fd5b50803590602081013590604081013590606081013590608001356104e9565b6040518083600381111561025a57fe5b60ff1681526020018281526020019250505060405180910390f35b61012d6004803603608081101561028b57600080fd5b508035906020810135906040810135906060013561056b565b61012d6105ea565b61012d6105f0565b61012d6105f6565b6001546001600160a01b031633146103055760405162461bcd60e51b8152600401808060200182810382526043815260200180610b686043913960600191505060405180910390fd5b60008054336001600160a01b031991821617808355600180549092169091556040516001600160a01b03909116917f71614071b88dee5e0b2ae578a9dd7b2ebbe9ae832ba419dc0242cd065a290b6c91a2565b60006103658484846105fc565b90505b9392505050565b6000546001600160a01b031633146103b85760405162461bcd60e51b8152600401808060200182810382526026815260200180610c0c6026913960400191505060405180910390fd5b6103c4848484846106c5565b50505050565b600181565b6001546001600160a01b031681565b6000546001600160a01b031633146104275760405162461bcd60e51b8152600401808060200182810382526040815260200180610bcc6040913960400191505060405180910390fd5b600180546001600160a01b0319166001600160a01b0383811691909117918290556040519116907f69d78e38a01985fbb1462961809b4b2d65531bc93b2b94037f3334b82ca4a75690600090a250565b60008261048657506000610368565b6103656104a98361049d878763ffffffff61076616565b9063ffffffff6107c916565b6104c185670de0b6b3a764000063ffffffff61080b16565b9063ffffffff61086416565b60025481565b6000546001600160a01b031681565b62100a4081565b6000806104f4610b54565b6000806105028a8a8a6108a6565b9092509050600082600381111561051557fe5b1461052857509250600091506105619050565b61053281886108f3565b93509150600082600381111561054457fe5b1461055757509250600091506105619050565b5050516000925090505b9550959350505050565b600080610586670de0b6b3a76400008463ffffffff6107c916565b905060006105958787876105fc565b905060006105b5670de0b6b3a76400006104c1848663ffffffff61080b16565b90506105de670de0b6b3a76400006104c1836105d28c8c8c610477565b9063ffffffff61080b16565b98975050505050505050565b60045481565b60035481565b60055481565b60008061060a858585610477565b905060055481116106505761064860035461063c670de0b6b3a76400006104c16002548661080b90919063ffffffff16565b9063ffffffff61076616565b915050610368565b600061067b60035461063c670de0b6b3a76400006104c160025460055461080b90919063ffffffff16565b90506000610694600554846107c990919063ffffffff16565b90506106bb8261063c670de0b6b3a76400006104c16004548661080b90919063ffffffff16565b9350505050610368565b6106d88462100a4063ffffffff61086416565b6003556106f16104a962100a408363ffffffff61080b16565b6002556107078262100a4063ffffffff61086416565b60048190556005829055600354600254604080519283526020830191909152818101929092526060810183905290517f6960ab234c7ef4b0c9197100f5393cfcde7c453ac910a27bd2000aa1dd4c068d9181900360800190a150505050565b6000828201838110156107c0576040805162461bcd60e51b815260206004820152601b60248201527f536166654d6174683a206164646974696f6e206f766572666c6f770000000000604482015290519081900360640190fd5b90505b92915050565b60006107c083836040518060400160405280601f81526020017f536166654d6174683a207375627472616374696f6e20756e646572666c6f77008152506109a5565b60008261081a575060006107c3565b8282028284828161082757fe5b04146107c05760405162461bcd60e51b8152600401808060200182810382526021815260200180610bab6021913960400191505060405180910390fd5b60006107c083836040518060400160405280601a81526020017f536166654d6174683a206469766973696f6e206279207a65726f000000000000815250610a3c565b6000806000806108b68787610aa1565b909250905060008260038111156108c957fe5b146108da57509150600090506108eb565b6108e48186610ac7565b9350935050505b935093915050565b60006108fd610b54565b60008061091286670de0b6b3a7640000610aea565b9092509050600082600381111561092557fe5b146109445750604080516020810190915260008152909250905061099e565b6000806109518388610b29565b9092509050600082600381111561096457fe5b146109865750604080516020810190915260008152909450925061099e915050565b60408051602081019091529081526000955093505050505b9250929050565b60008184841115610a345760405162461bcd60e51b81526004018080602001828103825283818151815260200191508051906020019080838360005b838110156109f95781810151838201526020016109e1565b50505050905090810190601f168015610a265780820380516001836020036101000a031916815260200191505b509250505060405180910390fd5b505050900390565b60008183610a8b5760405162461bcd60e51b81526020600482018181528351602484015283519092839260449091019190850190808383600083156109f95781810151838201526020016109e1565b506000838581610a9757fe5b0495945050505050565b600080838301848110610ab95760009250905061099e565b50600291506000905061099e565b600080838311610ade57506000905081830361099e565b5060039050600061099e565b60008083610afd5750600090508061099e565b83830283858281610b0a57fe5b0414610b1e5750600291506000905061099e565b60009250905061099e565b60008082610b3d575060019050600061099e565b6000838581610b4857fe5b04915091509250929050565b604051806020016040528060008152509056fe426173654a756d70526174654d6f64656c56323a3a61636365707441646d696e3a2043616c6c206d75737420636f6d652066726f6d2070656e64696e6741646d696e2e536166654d6174683a206d756c7469706c69636174696f6e206f766572666c6f77426173654a756d70526174654d6f64656c56323a3a73657450656e64696e6741646d696e3a2043616c6c206d75737420636f6d652066726f6d206f776e65722e6f6e6c7920746865206f776e6572206d61792063616c6c20746869732066756e6374696f6e2ea265627a7a723158200751e42eb8de4438438168d39ab9b3dfec439eb81c9dda5205b726ef38ff45b564736f6c63430005110032536166654d6174683a206d756c7469706c69636174696f6e206f766572666c6f77",
  "devdoc": {
    "author": "tropykus",
    "methods": {
      "getBorrowRate(uint256,uint256,uint256)": {
        "params": {
          "borrows": "The amount of borrows in the market",
          "cash": "The amount of cash in the market",
          "reserves": "The amount of reserves in the market"
        },
        "return": "The borrow rate percentage per block as a mantissa (scaled by 1e18)"
      },
      "getSupplyRate(uint256,uint256,uint256,uint256)": {
        "params": {
          "borrows": "The amount of borrows in the market",
          "cash": "The amount of cash in the market",
          "reserveFactorMantissa": "The current reserve factor for the market",
          "reserves": "The amount of reserves in the market"
        },
        "return": "The supply rate percentage per block as a mantissa (scaled by 1e18)"
      },
      "updateJumpRateModel(uint256,uint256,uint256,uint256)": {
        "params": {
          "baseRatePerYear": "The approximate target base APR, as a mantissa (scaled by 1e18)",
          "jumpMultiplierPerYear": "The multiplierPerBlock after hitting a specified utilization point",
          "kink_": "The utilization point at which the jump multiplier is applied",
          "multiplierPerYear": "The rate of increase in interest rate wrt utilization (scaled by 1e18)"
        }
      },
      "utilizationRate(uint256,uint256,uint256)": {
        "params": {
          "borrows": "The amount of borrows in the market",
          "cash": "The amount of cash in the market",
          "reserves": "The amount of reserves in the market (currently unused)"
        },
        "return": "The utilization rate as a mantissa between [0, 1e18]"
      }
    },
    "title": "tropykus JumpRateModel Contract V2 for V2 cTokens"
  },
  "userdoc": {
    "methods": {
      "getBorrowRate(uint256,uint256,uint256)": {
        "notice": "Calculates the current borrow rate per block"
      },
      "getSupplyRate(uint256,uint256,uint256,uint256)": {
        "notice": "Calculates the current supply rate per block"
      },
      "updateJumpRateModel(uint256,uint256,uint256,uint256)": {
        "notice": "Update the parameters of the interest rate model (only callable by owner, i.e. Timelock)"
      },
      "utilizationRate(uint256,uint256,uint256)": {
        "notice": "Calculates the utilization rate of the market: `borrows / (cash + borrows - reserves)`"
      }
    },
    "notice": "Supports only for V2 cTokens"
  },
  "storageLayout": {
    "storage": [
      {
        "astId": 24,
        "contract": "contracts/JumpRateModelV2.sol:JumpRateModelV2",
        "label": "owner",
        "offset": 0,
        "slot": "0",
        "type": "t_address"
      },
      {
        "astId": 26,
        "contract": "contracts/JumpRateModelV2.sol:JumpRateModelV2",
        "label": "pendingAdmin",
        "offset": 0,
        "slot": "1",
        "type": "t_address"
      },
      {
        "astId": 28,
        "contract": "contracts/JumpRateModelV2.sol:JumpRateModelV2",
        "label": "multiplierPerBlock",
        "offset": 0,
        "slot": "2",
        "type": "t_uint256"
      },
      {
        "astId": 30,
        "contract": "contracts/JumpRateModelV2.sol:JumpRateModelV2",
        "label": "baseRatePerBlock",
        "offset": 0,
        "slot": "3",
        "type": "t_uint256"
      },
      {
        "astId": 32,
        "contract": "contracts/JumpRateModelV2.sol:JumpRateModelV2",
        "label": "jumpMultiplierPerBlock",
        "offset": 0,
        "slot": "4",
        "type": "t_uint256"
      },
      {
        "astId": 34,
        "contract": "contracts/JumpRateModelV2.sol:JumpRateModelV2",
        "label": "kink",
        "offset": 0,
        "slot": "5",
        "type": "t_uint256"
      }
    ],
    "types": {
      "t_address": {
        "encoding": "inplace",
        "label": "address",
        "numberOfBytes": "20"
      },
      "t_uint256": {
        "encoding": "inplace",
        "label": "uint256",
        "numberOfBytes": "32"
      }
    }
  }
}