{
  "address": "0xeF9a1856F3cd3b5da7104524065a3d6Cc9b7a4b3",
  "abi": [
    {
      "constant": false,
      "inputs": [
        {
          "internalType": "contract CToken",
          "name": "cToken",
          "type": "address"
        },
        {
          "internalType": "address payable",
          "name": "account",
          "type": "address"
        }
      ],
      "name": "cTokenBalances",
      "outputs": [
        {
          "components": [
            {
              "internalType": "address",
              "name": "cToken",
              "type": "address"
            },
            {
              "internalType": "uint256",
              "name": "balanceOf",
              "type": "uint256"
            },
            {
              "internalType": "uint256",
              "name": "borrowBalanceCurrent",
              "type": "uint256"
            },
            {
              "internalType": "uint256",
              "name": "balanceOfUnderlying",
              "type": "uint256"
            },
            {
              "internalType": "uint256",
              "name": "tokenBalance",
              "type": "uint256"
            },
            {
              "internalType": "uint256",
              "name": "tokenAllowance",
              "type": "uint256"
            }
          ],
          "internalType": "struct RlendingLens.CTokenBalances",
          "name": "",
          "type": "tuple"
        }
      ],
      "payable": false,
      "stateMutability": "nonpayable",
      "type": "function"
    },
    {
      "constant": false,
      "inputs": [
        {
          "internalType": "contract CToken[]",
          "name": "cTokens",
          "type": "address[]"
        },
        {
          "internalType": "address payable",
          "name": "account",
          "type": "address"
        }
      ],
      "name": "cTokenBalancesAll",
      "outputs": [
        {
          "components": [
            {
              "internalType": "address",
              "name": "cToken",
              "type": "address"
            },
            {
              "internalType": "uint256",
              "name": "balanceOf",
              "type": "uint256"
            },
            {
              "internalType": "uint256",
              "name": "borrowBalanceCurrent",
              "type": "uint256"
            },
            {
              "internalType": "uint256",
              "name": "balanceOfUnderlying",
              "type": "uint256"
            },
            {
              "internalType": "uint256",
              "name": "tokenBalance",
              "type": "uint256"
            },
            {
              "internalType": "uint256",
              "name": "tokenAllowance",
              "type": "uint256"
            }
          ],
          "internalType": "struct RlendingLens.CTokenBalances[]",
          "name": "",
          "type": "tuple[]"
        }
      ],
      "payable": false,
      "stateMutability": "nonpayable",
      "type": "function"
    },
    {
      "constant": false,
      "inputs": [
        {
          "internalType": "contract CToken",
          "name": "cToken",
          "type": "address"
        }
      ],
      "name": "cTokenMetadata",
      "outputs": [
        {
          "components": [
            {
              "internalType": "address",
              "name": "cToken",
              "type": "address"
            },
            {
              "internalType": "uint256",
              "name": "exchangeRateCurrent",
              "type": "uint256"
            },
            {
              "internalType": "uint256",
              "name": "supplyRatePerBlock",
              "type": "uint256"
            },
            {
              "internalType": "uint256",
              "name": "borrowRatePerBlock",
              "type": "uint256"
            },
            {
              "internalType": "uint256",
              "name": "reserveFactorMantissa",
              "type": "uint256"
            },
            {
              "internalType": "uint256",
              "name": "totalBorrows",
              "type": "uint256"
            },
            {
              "internalType": "uint256",
              "name": "totalReserves",
              "type": "uint256"
            },
            {
              "internalType": "uint256",
              "name": "totalSupply",
              "type": "uint256"
            },
            {
              "internalType": "uint256",
              "name": "totalCash",
              "type": "uint256"
            },
            {
              "internalType": "bool",
              "name": "isListed",
              "type": "bool"
            },
            {
              "internalType": "uint256",
              "name": "collateralFactorMantissa",
              "type": "uint256"
            },
            {
              "internalType": "address",
              "name": "underlyingAssetAddress",
              "type": "address"
            },
            {
              "internalType": "uint256",
              "name": "cTokenDecimals",
              "type": "uint256"
            },
            {
              "internalType": "uint256",
              "name": "underlyingDecimals",
              "type": "uint256"
            }
          ],
          "internalType": "struct RlendingLens.CTokenMetadata",
          "name": "",
          "type": "tuple"
        }
      ],
      "payable": false,
      "stateMutability": "nonpayable",
      "type": "function"
    },
    {
      "constant": false,
      "inputs": [
        {
          "internalType": "contract CToken[]",
          "name": "cTokens",
          "type": "address[]"
        }
      ],
      "name": "cTokenMetadataAll",
      "outputs": [
        {
          "components": [
            {
              "internalType": "address",
              "name": "cToken",
              "type": "address"
            },
            {
              "internalType": "uint256",
              "name": "exchangeRateCurrent",
              "type": "uint256"
            },
            {
              "internalType": "uint256",
              "name": "supplyRatePerBlock",
              "type": "uint256"
            },
            {
              "internalType": "uint256",
              "name": "borrowRatePerBlock",
              "type": "uint256"
            },
            {
              "internalType": "uint256",
              "name": "reserveFactorMantissa",
              "type": "uint256"
            },
            {
              "internalType": "uint256",
              "name": "totalBorrows",
              "type": "uint256"
            },
            {
              "internalType": "uint256",
              "name": "totalReserves",
              "type": "uint256"
            },
            {
              "internalType": "uint256",
              "name": "totalSupply",
              "type": "uint256"
            },
            {
              "internalType": "uint256",
              "name": "totalCash",
              "type": "uint256"
            },
            {
              "internalType": "bool",
              "name": "isListed",
              "type": "bool"
            },
            {
              "internalType": "uint256",
              "name": "collateralFactorMantissa",
              "type": "uint256"
            },
            {
              "internalType": "address",
              "name": "underlyingAssetAddress",
              "type": "address"
            },
            {
              "internalType": "uint256",
              "name": "cTokenDecimals",
              "type": "uint256"
            },
            {
              "internalType": "uint256",
              "name": "underlyingDecimals",
              "type": "uint256"
            }
          ],
          "internalType": "struct RlendingLens.CTokenMetadata[]",
          "name": "",
          "type": "tuple[]"
        }
      ],
      "payable": false,
      "stateMutability": "nonpayable",
      "type": "function"
    },
    {
      "constant": true,
      "inputs": [
        {
          "internalType": "contract CToken",
          "name": "cToken",
          "type": "address"
        }
      ],
      "name": "cTokenUnderlyingPrice",
      "outputs": [
        {
          "components": [
            {
              "internalType": "address",
              "name": "cToken",
              "type": "address"
            },
            {
              "internalType": "uint256",
              "name": "underlyingPrice",
              "type": "uint256"
            }
          ],
          "internalType": "struct RlendingLens.CTokenUnderlyingPrice",
          "name": "",
          "type": "tuple"
        }
      ],
      "payable": false,
      "stateMutability": "view",
      "type": "function"
    },
    {
      "constant": true,
      "inputs": [
        {
          "internalType": "contract CToken[]",
          "name": "cTokens",
          "type": "address[]"
        }
      ],
      "name": "cTokenUnderlyingPriceAll",
      "outputs": [
        {
          "components": [
            {
              "internalType": "address",
              "name": "cToken",
              "type": "address"
            },
            {
              "internalType": "uint256",
              "name": "underlyingPrice",
              "type": "uint256"
            }
          ],
          "internalType": "struct RlendingLens.CTokenUnderlyingPrice[]",
          "name": "",
          "type": "tuple[]"
        }
      ],
      "payable": false,
      "stateMutability": "view",
      "type": "function"
    },
    {
      "constant": true,
      "inputs": [
        {
          "internalType": "contract ComptrollerLensInterface",
          "name": "comptroller",
          "type": "address"
        },
        {
          "internalType": "address",
          "name": "account",
          "type": "address"
        }
      ],
      "name": "getAccountLimits",
      "outputs": [
        {
          "components": [
            {
              "internalType": "contract CToken[]",
              "name": "markets",
              "type": "address[]"
            },
            {
              "internalType": "uint256",
              "name": "liquidity",
              "type": "uint256"
            },
            {
              "internalType": "uint256",
              "name": "shortfall",
              "type": "uint256"
            }
          ],
          "internalType": "struct RlendingLens.AccountLimits",
          "name": "",
          "type": "tuple"
        }
      ],
      "payable": false,
      "stateMutability": "view",
      "type": "function"
    },
    {
      "constant": true,
      "inputs": [
        {
          "internalType": "contract RLEN",
          "name": "comp",
          "type": "address"
        },
        {
          "internalType": "address",
          "name": "account",
          "type": "address"
        }
      ],
      "name": "getCompBalanceMetadata",
      "outputs": [
        {
          "components": [
            {
              "internalType": "uint256",
              "name": "balance",
              "type": "uint256"
            },
            {
              "internalType": "uint256",
              "name": "votes",
              "type": "uint256"
            },
            {
              "internalType": "address",
              "name": "delegate",
              "type": "address"
            }
          ],
          "internalType": "struct RlendingLens.CompBalanceMetadata",
          "name": "",
          "type": "tuple"
        }
      ],
      "payable": false,
      "stateMutability": "view",
      "type": "function"
    },
    {
      "constant": false,
      "inputs": [
        {
          "internalType": "contract RLEN",
          "name": "comp",
          "type": "address"
        },
        {
          "internalType": "contract ComptrollerLensInterface",
          "name": "comptroller",
          "type": "address"
        },
        {
          "internalType": "address",
          "name": "account",
          "type": "address"
        }
      ],
      "name": "getCompBalanceMetadataExt",
      "outputs": [
        {
          "components": [
            {
              "internalType": "uint256",
              "name": "balance",
              "type": "uint256"
            },
            {
              "internalType": "uint256",
              "name": "votes",
              "type": "uint256"
            },
            {
              "internalType": "address",
              "name": "delegate",
              "type": "address"
            },
            {
              "internalType": "uint256",
              "name": "allocated",
              "type": "uint256"
            }
          ],
          "internalType": "struct RlendingLens.CompBalanceMetadataExt",
          "name": "",
          "type": "tuple"
        }
      ],
      "payable": false,
      "stateMutability": "nonpayable",
      "type": "function"
    },
    {
      "constant": true,
      "inputs": [
        {
          "internalType": "contract RLEN",
          "name": "comp",
          "type": "address"
        },
        {
          "internalType": "address",
          "name": "account",
          "type": "address"
        },
        {
          "internalType": "uint32[]",
          "name": "blockNumbers",
          "type": "uint32[]"
        }
      ],
      "name": "getCompVotes",
      "outputs": [
        {
          "components": [
            {
              "internalType": "uint256",
              "name": "blockNumber",
              "type": "uint256"
            },
            {
              "internalType": "uint256",
              "name": "votes",
              "type": "uint256"
            }
          ],
          "internalType": "struct RlendingLens.CompVotes[]",
          "name": "",
          "type": "tuple[]"
        }
      ],
      "payable": false,
      "stateMutability": "view",
      "type": "function"
    },
    {
      "constant": true,
      "inputs": [
        {
          "internalType": "contract GovernorAlpha",
          "name": "governor",
          "type": "address"
        },
        {
          "internalType": "uint256[]",
          "name": "proposalIds",
          "type": "uint256[]"
        }
      ],
      "name": "getGovProposals",
      "outputs": [
        {
          "components": [
            {
              "internalType": "uint256",
              "name": "proposalId",
              "type": "uint256"
            },
            {
              "internalType": "address",
              "name": "proposer",
              "type": "address"
            },
            {
              "internalType": "uint256",
              "name": "eta",
              "type": "uint256"
            },
            {
              "internalType": "address[]",
              "name": "targets",
              "type": "address[]"
            },
            {
              "internalType": "uint256[]",
              "name": "values",
              "type": "uint256[]"
            },
            {
              "internalType": "string[]",
              "name": "signatures",
              "type": "string[]"
            },
            {
              "internalType": "bytes[]",
              "name": "calldatas",
              "type": "bytes[]"
            },
            {
              "internalType": "uint256",
              "name": "startBlock",
              "type": "uint256"
            },
            {
              "internalType": "uint256",
              "name": "endBlock",
              "type": "uint256"
            },
            {
              "internalType": "uint256",
              "name": "forVotes",
              "type": "uint256"
            },
            {
              "internalType": "uint256",
              "name": "againstVotes",
              "type": "uint256"
            },
            {
              "internalType": "bool",
              "name": "canceled",
              "type": "bool"
            },
            {
              "internalType": "bool",
              "name": "executed",
              "type": "bool"
            }
          ],
          "internalType": "struct RlendingLens.GovProposal[]",
          "name": "",
          "type": "tuple[]"
        }
      ],
      "payable": false,
      "stateMutability": "view",
      "type": "function"
    },
    {
      "constant": true,
      "inputs": [
        {
          "internalType": "contract GovernorAlpha",
          "name": "governor",
          "type": "address"
        },
        {
          "internalType": "address",
          "name": "voter",
          "type": "address"
        },
        {
          "internalType": "uint256[]",
          "name": "proposalIds",
          "type": "uint256[]"
        }
      ],
      "name": "getGovReceipts",
      "outputs": [
        {
          "components": [
            {
              "internalType": "uint256",
              "name": "proposalId",
              "type": "uint256"
            },
            {
              "internalType": "bool",
              "name": "hasVoted",
              "type": "bool"
            },
            {
              "internalType": "bool",
              "name": "support",
              "type": "bool"
            },
            {
              "internalType": "uint96",
              "name": "votes",
              "type": "uint96"
            }
          ],
          "internalType": "struct RlendingLens.GovReceipt[]",
          "name": "",
          "type": "tuple[]"
        }
      ],
      "payable": false,
      "stateMutability": "view",
      "type": "function"
    }
  ],
  "transactionHash": "0xb8048f52a13a335134a2a1cd896ce1ea731b8ab4eb9d86c88e2138dd8e49e005",
  "args": [],
  "solcInputHash": "fda4edf483e67b25c3a5d44752ebcb04",
  "bytecode": "0x608060405234801561001057600080fd5b50613542806100206000396000f3fe608060405234801561001057600080fd5b50600436106100b45760003560e01c8063595642191161007157806359564219146101825780637dd8f6d9146101a257806396994869146101c2578063995ed99f146101e2578063bdf950c914610202578063c5ae593414610222576100b4565b80630972bf8b146100b9578063158eca8b146100e25780631ea63741146101025780632b2d5ed614610122578063416405d7146101425780634b70d84b14610162575b600080fd5b6100cc6100c73660046124c8565b610242565b6040516100d99190613293565b60405180910390f35b6100f56100f036600461258a565b6102e5565b6040516100d99190613347565b61011561011036600461270c565b610a6a565b6040516100d99190613364565b610135610130366004612487565b610df1565b6040516100d991906132b5565b6101556101503660046125a8565b610e8d565b6040516100d99190613372565b610175610170366004612487565b611036565b6040516100d991906132a4565b6101956101903660046126a5565b6110c7565b6040516100d991906132c6565b6101b56101b03660046125a8565b61121f565b6040516100d99190613328565b6101d56101d0366004612650565b611377565b6040516100d991906132d7565b6101f56101f03660046125f6565b611533565b6040516100d991906132e8565b6102156102103660046125a8565b61168d565b6040516100d99190613339565b61023561023036600461258a565b611a2d565b6040516100d99190613356565b6040805183815260208085028201019091526060908390829082801561028257816020015b61026f611d91565b8152602001906001900390816102675790505b50905060005b828110156102d9576102ba87878381811061029f57fe5b90506020020160206102b4919081019061258a565b8661168d565b8282815181106102c657fe5b6020908102919091010152600101610288565b509150505b9392505050565b6102ed611dd0565b6000826001600160a01b031663bd6d894d6040518163ffffffff1660e01b8152600401602060405180830381600087803b15801561032a57600080fd5b505af115801561033e573d6000803e3d6000fd5b505050506040513d601f19601f8201168201806040525061036291908101906127a1565b90506000836001600160a01b0316635fe3b5676040518163ffffffff1660e01b815260040160206040518083038186803b15801561039f57600080fd5b505afa1580156103b3573d6000803e3d6000fd5b505050506040513d601f19601f820116820180604052506103d791908101906125d8565b9050600080826001600160a01b0316638e8f294b876040518263ffffffff1660e01b81526004016104089190613241565b604080518083038186803b15801561041f57600080fd5b505afa158015610433573d6000803e3d6000fd5b505050506040513d601f19601f820116820180604052506104579190810190612550565b915091506000806104f9886001600160a01b03166395d89b416040518163ffffffff1660e01b815260040160006040518083038186803b15801561049a57600080fd5b505afa1580156104ae573d6000803e3d6000fd5b505050506040513d6000823e601f3d908101601f191682016040526104d6919081019061274f565b60405180604001604052806005815260200164635242544360d81b815250611bbf565b1561050a575060009050601261066a565b6000889050806001600160a01b0316636f307dc36040518163ffffffff1660e01b815260040160206040518083038186803b15801561054857600080fd5b505afa15801561055c573d6000803e3d6000fd5b505050506040513d601f19601f8201168201806040525061058091908101906123a5565b9250806001600160a01b0316636f307dc36040518163ffffffff1660e01b815260040160206040518083038186803b1580156105bb57600080fd5b505afa1580156105cf573d6000803e3d6000fd5b505050506040513d601f19601f820116820180604052506105f391908101906123a5565b6001600160a01b031663313ce5676040518163ffffffff1660e01b815260040160206040518083038186803b15801561062b57600080fd5b505afa15801561063f573d6000803e3d6000fd5b505050506040513d601f19601f8201168201806040525061066391908101906128e4565b60ff169150505b604051806101c00160405280896001600160a01b03168152602001878152602001896001600160a01b031663ae9d70b06040518163ffffffff1660e01b815260040160206040518083038186803b1580156106c457600080fd5b505afa1580156106d8573d6000803e3d6000fd5b505050506040513d601f19601f820116820180604052506106fc91908101906127a1565b8152602001896001600160a01b031663f8f9da286040518163ffffffff1660e01b815260040160206040518083038186803b15801561073a57600080fd5b505afa15801561074e573d6000803e3d6000fd5b505050506040513d601f19601f8201168201806040525061077291908101906127a1565b8152602001896001600160a01b031663173b99046040518163ffffffff1660e01b815260040160206040518083038186803b1580156107b057600080fd5b505afa1580156107c4573d6000803e3d6000fd5b505050506040513d601f19601f820116820180604052506107e891908101906127a1565b8152602001896001600160a01b03166347bd37186040518163ffffffff1660e01b815260040160206040518083038186803b15801561082657600080fd5b505afa15801561083a573d6000803e3d6000fd5b505050506040513d601f19601f8201168201806040525061085e91908101906127a1565b8152602001896001600160a01b0316638f840ddd6040518163ffffffff1660e01b815260040160206040518083038186803b15801561089c57600080fd5b505afa1580156108b0573d6000803e3d6000fd5b505050506040513d601f19601f820116820180604052506108d491908101906127a1565b8152602001896001600160a01b03166318160ddd6040518163ffffffff1660e01b815260040160206040518083038186803b15801561091257600080fd5b505afa158015610926573d6000803e3d6000fd5b505050506040513d601f19601f8201168201806040525061094a91908101906127a1565b8152602001896001600160a01b0316633b1d21a26040518163ffffffff1660e01b815260040160206040518083038186803b15801561098857600080fd5b505afa15801561099c573d6000803e3d6000fd5b505050506040513d601f19601f820116820180604052506109c091908101906127a1565b81526020018515158152602001848152602001836001600160a01b03168152602001896001600160a01b031663313ce5676040518163ffffffff1660e01b815260040160206040518083038186803b158015610a1b57600080fd5b505afa158015610a2f573d6000803e3d6000fd5b505050506040513d601f19601f82011682018060405250610a5391908101906128e4565b60ff16815260200191909152979650505050505050565b610a72611e53565b6040516370a0823160e01b81526000906001600160a01b038616906370a0823190610aa1908690600401613241565b60206040518083038186803b158015610ab957600080fd5b505afa158015610acd573d6000803e3d6000fd5b505050506040513d601f19601f82011682018060405250610af191908101906127a1565b6040516374d7814960e11b81529091506001600160a01b0385169063e9af029290610b20908690600401613241565b600060405180830381600087803b158015610b3a57600080fd5b505af1158015610b4e573d6000803e3d6000fd5b50506040516370a0823160e01b8152600092506001600160a01b03881691506370a0823190610b81908790600401613241565b60206040518083038186803b158015610b9957600080fd5b505afa158015610bad573d6000803e3d6000fd5b505050506040513d601f19601f82011682018060405250610bd191908101906127a1565b90506000856001600160a01b031663cc7ebdc4866040518263ffffffff1660e01b8152600401610c019190613241565b60206040518083038186803b158015610c1957600080fd5b505afa158015610c2d573d6000803e3d6000fd5b505050506040513d601f19601f82011682018060405250610c5191908101906127a1565b90506000610c8682846040518060400160405280600e81526020016d1cdd5b4818dbdb5c081d1bdd185b60921b815250611c18565b90506000610cba82866040518060400160405280600d81526020016c1cdd5888185b1b1bd8d85d1959609a1b815250611c3f565b905060405180608001604052808681526020018a6001600160a01b031663b4b5ea578a6040518263ffffffff1660e01b8152600401610cf99190613241565b60206040518083038186803b158015610d1157600080fd5b505afa158015610d25573d6000803e3d6000fd5b505050506040513d601f19601f82011682018060405250610d499190810190612902565b6001600160601b031681526020018a6001600160a01b031663587cde1e8a6040518263ffffffff1660e01b8152600401610d839190613241565b60206040518083038186803b158015610d9b57600080fd5b505afa158015610daf573d6000803e3d6000fd5b505050506040513d601f19601f82011682018060405250610dd391908101906123a5565b6001600160a01b031681526020019190915298975050505050505050565b60408051828152602080840282010190915260609082908290828015610e3157816020015b610e1e611e84565b815260200190600190039081610e165790505b50905060005b82811015610e8257610e63868683818110610e4e57fe5b9050602002016020610230919081019061258a565b828281518110610e6f57fe5b6020908102919091010152600101610e37565b509150505b92915050565b610e95611e9b565b6040805160608101918290526370a0823160e01b909152806001600160a01b0385166370a08231610ec98660648501613241565b60206040518083038186803b158015610ee157600080fd5b505afa158015610ef5573d6000803e3d6000fd5b505050506040513d601f19601f82011682018060405250610f1991908101906127a1565b8152602001846001600160a01b031663b4b5ea57856040518263ffffffff1660e01b8152600401610f4a9190613241565b60206040518083038186803b158015610f6257600080fd5b505afa158015610f76573d6000803e3d6000fd5b505050506040513d601f19601f82011682018060405250610f9a9190810190612902565b6001600160601b03168152602001846001600160a01b031663587cde1e856040518263ffffffff1660e01b8152600401610fd49190613241565b60206040518083038186803b158015610fec57600080fd5b505afa158015611000573d6000803e3d6000fd5b505050506040513d601f19601f8201168201806040525061102491908101906123a5565b6001600160a01b031690529392505050565b6040805182815260208084028201019091526060908290829082801561107657816020015b611063611dd0565b81526020019060019003908161105b5790505b50905060005b82811015610e82576110a886868381811061109357fe5b90506020020160206100f0919081019061258a565b8282815181106110b457fe5b602090810291909101015260010161107c565b6060808383905060405190808252806020026020018201604052801561110757816020015b6110f4611ec5565b8152602001906001900390816110ec5790505b50905060005b8381101561121557604051806040016040528086868481811061112c57fe5b905060200201602061114191908101906128c6565b63ffffffff168152602001886001600160a01b031663782d6fe18989898781811061116857fe5b905060200201602061117d91908101906128c6565b6040518363ffffffff1660e01b815260040161119a929190613278565b60206040518083038186803b1580156111b257600080fd5b505afa1580156111c6573d6000803e3d6000fd5b505050506040513d601f19601f820116820180604052506111ea9190810190612902565b6001600160601b031681525082828151811061120257fe5b602090810291909101015260010161110d565b5095945050505050565b611227611edf565b6000806000856001600160a01b0316635ec88c79866040518263ffffffff1660e01b81526004016112589190613241565b60606040518083038186803b15801561127057600080fd5b505afa158015611284573d6000803e3d6000fd5b505050506040513d601f19601f820116820180604052506112a89190810190612883565b925092509250826000146112d75760405162461bcd60e51b81526004016112ce90613318565b60405180910390fd5b604080516060810191829052632aff3bff60e21b909152806001600160a01b03881663abfceffc61130b8960648501613241565b60006040518083038186803b15801561132357600080fd5b505afa158015611337573d6000803e3d6000fd5b505050506040513d6000823e601f3d908101601f1916820160405261135f919081019061251c565b81526020810193909352604090920152949350505050565b606080838390506040519080825280602002602001820160405280156113b757816020015b6113a4611f00565b81526020019060019003908161139c5790505b50905060005b8381101561152a57606080606080896001600160a01b031663328dd9828a8a888181106113e657fe5b905060200201356040518263ffffffff1660e01b81526004016114099190613380565b60006040518083038186803b15801561142157600080fd5b505afa158015611435573d6000803e3d6000fd5b505050506040513d6000823e601f3d908101601f1916820160405261145d91908101906123cb565b9350935093509350604051806101a001604052806000815260200160006001600160a01b031681526020016000815260200185815260200184815260200183815260200182815260200160008152602001600081526020016000815260200160008152602001600015158152602001600015158152508686815181106114df57fe5b602002602001018190525061151a8686815181106114f957fe5b60200260200101518b8b8b8981811061150e57fe5b90506020020135611c6b565b5050600190920191506113bd9050565b50949350505050565b606060008251905060608160405190808252806020026020018201604052801561157757816020015b611564611f75565b81526020019060019003908161155c5790505b50905060005b828110156102d95761158d611f9c565b876001600160a01b031663e23a9a528784815181106115a857fe5b6020026020010151896040518363ffffffff1660e01b81526004016115ce92919061338e565b60606040518083038186803b1580156115e657600080fd5b505afa1580156115fa573d6000803e3d6000fd5b505050506040513d601f19601f8201168201806040525061161e9190810190612783565b9050604051806080016040528087848151811061163757fe5b6020026020010151815260200182600001511515815260200182602001511515815260200182604001516001600160601b031681525083838151811061167957fe5b60209081029190910101525060010161157d565b611695611d91565b6040516370a0823160e01b81526000906001600160a01b038516906370a08231906116c490869060040161324f565b60206040518083038186803b1580156116dc57600080fd5b505afa1580156116f0573d6000803e3d6000fd5b505050506040513d601f19601f8201168201806040525061171491908101906127a1565b90506000846001600160a01b03166317bfdfbc856040518263ffffffff1660e01b8152600401611744919061324f565b602060405180830381600087803b15801561175e57600080fd5b505af1158015611772573d6000803e3d6000fd5b505050506040513d601f19601f8201168201806040525061179691908101906127a1565b90506000856001600160a01b0316633af9e669866040518263ffffffff1660e01b81526004016117c6919061324f565b602060405180830381600087803b1580156117e057600080fd5b505af11580156117f4573d6000803e3d6000fd5b505050506040513d601f19601f8201168201806040525061181891908101906127a1565b9050600080611859886001600160a01b03166395d89b416040518163ffffffff1660e01b815260040160006040518083038186803b15801561049a57600080fd5b156118735750506001600160a01b038516803190316119f0565b60008890506000816001600160a01b0316636f307dc36040518163ffffffff1660e01b815260040160206040518083038186803b1580156118b357600080fd5b505afa1580156118c7573d6000803e3d6000fd5b505050506040513d601f19601f820116820180604052506118eb91908101906123a5565b6040516370a0823160e01b81529091506001600160a01b038216906370a082319061191a908c9060040161324f565b60206040518083038186803b15801561193257600080fd5b505afa158015611946573d6000803e3d6000fd5b505050506040513d601f19601f8201168201806040525061196a91908101906127a1565b604051636eb1769f60e11b81529094506001600160a01b0382169063dd62ed3e9061199b908c908e9060040161325d565b60206040518083038186803b1580156119b357600080fd5b505afa1580156119c7573d6000803e3d6000fd5b505050506040513d601f19601f820116820180604052506119eb91908101906127a1565b925050505b6040805160c0810182526001600160a01b039990991689526020890195909552938701929092526060860152608085015260a08401525090919050565b611a35611e84565b6000826001600160a01b0316635fe3b5676040518163ffffffff1660e01b815260040160206040518083038186803b158015611a7057600080fd5b505afa158015611a84573d6000803e3d6000fd5b505050506040513d601f19601f82011682018060405250611aa891908101906125d8565b90506000816001600160a01b0316637dc0d1d06040518163ffffffff1660e01b815260040160206040518083038186803b158015611ae557600080fd5b505afa158015611af9573d6000803e3d6000fd5b505050506040513d601f19601f82011682018060405250611b1d91908101906125d8565b90506040518060400160405280856001600160a01b03168152602001826001600160a01b031663fc57d4df876040518263ffffffff1660e01b8152600401611b6591906132f9565b60206040518083038186803b158015611b7d57600080fd5b505afa158015611b91573d6000803e3d6000fd5b505050506040513d601f19601f82011682018060405250611bb591908101906127a1565b9052949350505050565b600081604051602001611bd29190613235565b6040516020818303038152906040528051906020012083604051602001611bf99190613235565b6040516020818303038152906040528051906020012014905092915050565b6000838301828582101561152a5760405162461bcd60e51b81526004016112ce9190613307565b60008184841115611c635760405162461bcd60e51b81526004016112ce9190613307565b505050900390565b600080600080600080600080896001600160a01b031663013cf08b8a6040518263ffffffff1660e01b8152600401611ca39190613380565b6101206040518083038186803b158015611cbc57600080fd5b505afa158015611cd0573d6000803e3d6000fd5b505050506040513d601f19601f82011682018060405250611cf491908101906127bf565b9850985098509850985098509850985050888b6000018181525050878b602001906001600160a01b031690816001600160a01b031681525050868b6040018181525050858b60e0018181525050848b610100018181525050838b610120018181525050828b610140018181525050818b610160019015159081151581525050808b6101800190151590811515815250505050505050505050505050565b6040518060c0016040528060006001600160a01b0316815260200160008152602001600081526020016000815260200160008152602001600081525090565b604051806101c0016040528060006001600160a01b0316815260200160008152602001600081526020016000815260200160008152602001600081526020016000815260200160008152602001600081526020016000151581526020016000815260200160006001600160a01b0316815260200160008152602001600081525090565b6040518060800160405280600081526020016000815260200160006001600160a01b03168152602001600081525090565b604080518082019091526000808252602082015290565b6040518060600160405280600081526020016000815260200160006001600160a01b031681525090565b604051806040016040528060008152602001600081525090565b60405180606001604052806060815260200160008152602001600081525090565b604051806101a001604052806000815260200160006001600160a01b031681526020016000815260200160608152602001606081526020016060815260200160608152602001600081526020016000815260200160008152602001600081526020016000151581526020016000151581525090565b60408051608081018252600080825260208201819052918101829052606081019190915290565b604080516060810182526000808252602082018190529181019190915290565b8035610e87816134b2565b8051610e87816134b2565b600082601f830112611fe357600080fd5b8151611ff6611ff1826133c2565b61339c565b9150818183526020840193506020810190508385602084028201111561201b57600080fd5b60005b8381101561204757816120318882611fc7565b845250602092830192919091019060010161201e565b5050505092915050565b600082601f83011261206257600080fd5b8151612070611ff1826133c2565b81815260209384019390925082018360005b83811015612047578151860161209888826122ae565b8452506020928301929190910190600101612082565b60008083601f8401126120c057600080fd5b5081356001600160401b038111156120d757600080fd5b6020830191508360208202830111156120ef57600080fd5b9250929050565b600082601f83011261210757600080fd5b8151612115611ff1826133c2565b9150818183526020840193506020810190508385602084028201111561213a57600080fd5b60005b8381101561204757816121508882612308565b845250602092830192919091019060010161213d565b600082601f83011261217757600080fd5b8151612185611ff1826133c2565b81815260209384019390925082018360005b8381101561204757815186016121ad88826122ae565b8452506020928301929190910190600101612197565b600082601f8301126121d457600080fd5b81356121e2611ff1826133c2565b9150818183526020840193506020810190508385602084028201111561220757600080fd5b60005b83811015612047578161221d888261236e565b845250602092830192919091019060010161220a565b600082601f83011261224457600080fd5b8151612252611ff1826133c2565b9150818183526020840193506020810190508385602084028201111561227757600080fd5b60005b83811015612047578161228d8882612379565b845250602092830192919091019060010161227a565b8051610e87816134c9565b600082601f8301126122bf57600080fd5b81516122cd611ff1826133e2565b915080825260208301602083018583830111156122e957600080fd5b6122f483828461347c565b50505092915050565b8035610e87816134d2565b8051610e87816134d2565b60006060828403121561232557600080fd5b61232f606061339c565b9050600061233d84846122a3565b825250602061234e848483016122a3565b60208301525060406123628482850161239a565b60408301525092915050565b8035610e87816134db565b8051610e87816134db565b8035610e87816134e4565b8051610e87816134ed565b8051610e87816134f6565b6000602082840312156123b757600080fd5b60006123c38484611fc7565b949350505050565b600080600080608085870312156123e157600080fd5b84516001600160401b038111156123f757600080fd5b61240387828801611fd2565b94505060208501516001600160401b0381111561241f57600080fd5b61242b87828801612233565b93505060408501516001600160401b0381111561244757600080fd5b61245387828801612166565b92505060608501516001600160401b0381111561246f57600080fd5b61247b87828801612051565b91505092959194509250565b6000806020838503121561249a57600080fd5b82356001600160401b038111156124b057600080fd5b6124bc858286016120ae565b92509250509250929050565b6000806000604084860312156124dd57600080fd5b83356001600160401b038111156124f357600080fd5b6124ff868287016120ae565b9350935050602061251286828701611fbc565b9150509250925092565b60006020828403121561252e57600080fd5b81516001600160401b0381111561254457600080fd5b6123c3848285016120f6565b6000806040838503121561256357600080fd5b600061256f85856122a3565b925050602061258085828601612379565b9150509250929050565b60006020828403121561259c57600080fd5b60006123c384846122fd565b600080604083850312156125bb57600080fd5b60006125c785856122fd565b925050602061258085828601611fbc565b6000602082840312156125ea57600080fd5b60006123c38484612308565b60008060006060848603121561260b57600080fd5b600061261786866122fd565b935050602061262886828701611fbc565b92505060408401356001600160401b0381111561264457600080fd5b612512868287016121c3565b60008060006040848603121561266557600080fd5b600061267186866122fd565b93505060208401356001600160401b0381111561268d57600080fd5b612699868287016120ae565b92509250509250925092565b600080600080606085870312156126bb57600080fd5b60006126c787876122fd565b94505060206126d887828801611fbc565b93505060408501356001600160401b038111156126f457600080fd5b612700878288016120ae565b95989497509550505050565b60008060006060848603121561272157600080fd5b600061272d86866122fd565b935050602061273e868287016122fd565b925050604061251286828701611fbc565b60006020828403121561276157600080fd5b81516001600160401b0381111561277757600080fd5b6123c3848285016122ae565b60006060828403121561279557600080fd5b60006123c38484612313565b6000602082840312156127b357600080fd5b60006123c38484612379565b60008060008060008060008060006101208a8c0312156127de57600080fd5b60006127ea8c8c612379565b99505060206127fb8c828d01611fc7565b985050604061280c8c828d01612379565b975050606061281d8c828d01612379565b965050608061282e8c828d01612379565b95505060a061283f8c828d01612379565b94505060c06128508c828d01612379565b93505060e06128618c828d016122a3565b9250506101006128738c828d016122a3565b9150509295985092959850929598565b60008060006060848603121561289857600080fd5b60006128a48686612379565b93505060206128b586828701612379565b925050604061251286828701612379565b6000602082840312156128d857600080fd5b60006123c38484612384565b6000602082840312156128f657600080fd5b60006123c3848461238f565b60006020828403121561291457600080fd5b60006123c3848461239a565b600061292c83836129d0565b505060200190565b60006102de8383612d8d565b600061292c8383612dc5565b60006129588383612e70565b505060c00190565b600061296c8383612ee6565b50506101c00190565b60006129818383612ffb565b505060400190565b600061298183836130a0565b60006102de83836130b1565b60006129ad83836131d0565b505060800190565b600061292c838361321a565b6129ca81613466565b82525050565b6129ca81613421565b60006129e48261340f565b6129ee8185613413565b93506129f983613409565b8060005b83811015612a27578151612a118882612920565b9750612a1c83613409565b9250506001016129fd565b509495945050505050565b6000612a3d8261340f565b612a478185613413565b935083602082028501612a5985613409565b8060005b85811015612a935784840389528151612a768582612934565b9450612a8183613409565b60209a909a0199925050600101612a5d565b5091979650505050505050565b6000612aab8261340f565b612ab58185613413565b9350612ac083613409565b8060005b83811015612a27578151612ad88882612940565b9750612ae383613409565b925050600101612ac4565b6000612af98261340f565b612b038185613413565b935083602082028501612b1585613409565b8060005b85811015612a935784840389528151612b328582612934565b9450612b3d83613409565b60209a909a0199925050600101612b19565b6000612b5a8261340f565b612b648185613413565b9350612b6f83613409565b8060005b83811015612a27578151612b87888261294c565b9750612b9283613409565b925050600101612b73565b6000612ba88261340f565b612bb28185613413565b9350612bbd83613409565b8060005b83811015612a27578151612bd58882612960565b9750612be083613409565b925050600101612bc1565b6000612bf68261340f565b612c008185613413565b9350612c0b83613409565b8060005b83811015612a27578151612c238882612975565b9750612c2e83613409565b925050600101612c0f565b6000612c448261340f565b612c4e8185613413565b9350612c5983613409565b8060005b83811015612a27578151612c718882612989565b9750612c7c83613409565b925050600101612c5d565b6000612c928261340f565b612c9c8185613413565b935083602082028501612cae85613409565b8060005b85811015612a935784840389528151612ccb8582612995565b9450612cd683613409565b60209a909a0199925050600101612cb2565b6000612cf38261340f565b612cfd8185613413565b9350612d0883613409565b8060005b83811015612a27578151612d2088826129a1565b9750612d2b83613409565b925050600101612d0c565b6000612d418261340f565b612d4b8185613413565b9350612d5683613409565b8060005b83811015612a27578151612d6e88826129b5565b9750612d7983613409565b925050600101612d5a565b6129ca8161342c565b6000612d988261340f565b612da28185613413565b9350612db281856020860161347c565b612dbb816134a8565b9093019392505050565b6129ca81613431565b6000612dd98261340f565b612de3818561341c565b9350612df381856020860161347c565b9290920192915050565b6000612e0a600f83613413565b6e3634b8bab4b234ba3c9032b93937b960891b815260200192915050565b8051606080845260009190840190612e408282612aa0565b9150506020830151612e55602086018261321a565b506040830151612e68604086018261321a565b509392505050565b805160c0830190612e8184826129d0565b506020820151612e94602085018261321a565b506040820151612ea7604085018261321a565b506060820151612eba606085018261321a565b506080820151612ecd608085018261321a565b5060a0820151612ee060a085018261321a565b50505050565b80516101c0830190612ef884826129d0565b506020820151612f0b602085018261321a565b506040820151612f1e604085018261321a565b506060820151612f31606085018261321a565b506080820151612f44608085018261321a565b5060a0820151612f5760a085018261321a565b5060c0820151612f6a60c085018261321a565b5060e0820151612f7d60e085018261321a565b50610100820151612f9261010085018261321a565b50610120820151612fa7610120850182612d84565b50610140820151612fbc61014085018261321a565b50610160820151612fd16101608501826129d0565b50610180820151612fe661018085018261321a565b506101a0820151612ee06101a085018261321a565b8051604083019061300c84826129d0565b506020820151612ee0602085018261321a565b80516080830190613030848261321a565b506020820151613043602085018261321a565b50604082015161305660408501826129d0565b506060820151612ee0606085018261321a565b8051606083019061307a848261321a565b50602082015161308d602085018261321a565b506040820151612ee060408501826129d0565b8051604083019061300c848261321a565b80516000906101a08401906130c6858261321a565b5060208301516130d960208601826129d0565b5060408301516130ec604086018261321a565b506060830151848203606086015261310482826129d9565b9150506080830151848203608086015261311e8282612d36565b91505060a083015184820360a08601526131388282612aee565b91505060c083015184820360c08601526131528282612a32565b91505060e083015161316760e086018261321a565b5061010083015161317c61010086018261321a565b5061012083015161319161012086018261321a565b506101408301516131a661014086018261321a565b506101608301516131bb610160860182612d84565b50610180830151612e68610180860182612d84565b805160808301906131e1848261321a565b5060208201516131f46020850182612d84565b5060408201516132076040850182612d84565b506060820151612ee0606085018261322c565b6129ca81613448565b6129ca81613471565b6129ca8161345a565b60006102de8284612dce565b60208101610e8782846129d0565b60208101610e8782846129c1565b6040810161326b82856129c1565b6102de60208301846129d0565b6040810161328682856129d0565b6102de6020830184613223565b602080825281016102de8184612b4f565b602080825281016102de8184612b9d565b602080825281016102de8184612beb565b602080825281016102de8184612c39565b602080825281016102de8184612c87565b602080825281016102de8184612ce8565b60208101610e878284612dc5565b602080825281016102de8184612d8d565b60208082528101610e8781612dfd565b602080825281016102de8184612e28565b60c08101610e878284612e70565b6101c08101610e878284612ee6565b60408101610e878284612ffb565b60808101610e87828461301f565b60608101610e878284613069565b60208101610e87828461321a565b6040810161326b828561321a565b6040518181016001600160401b03811182821017156133ba57600080fd5b604052919050565b60006001600160401b038211156133d857600080fd5b5060209081020190565b60006001600160401b038211156133f857600080fd5b506020601f91909101601f19160190565b60200190565b5190565b90815260200190565b919050565b6000610e878261343c565b151590565b6000610e8782613421565b6001600160a01b031690565b90565b63ffffffff1690565b60ff1690565b6001600160601b031690565b6000610e8782613431565b6000610e878261344b565b60005b8381101561349757818101518382015260200161347f565b83811115612ee05750506000910152565b601f01601f191690565b6134bb81613421565b81146134c657600080fd5b50565b6134bb8161342c565b6134bb81613431565b6134bb81613448565b6134bb8161344b565b6134bb81613454565b6134bb8161345a56fea365627a7a7231582076a233b2b0bac98f1281a666f2088efa8f5e712e3c250a954cc943a6a8f96d6c6c6578706572696d656e74616cf564736f6c63430005110040",
  "devdoc": {
    "methods": {}
  },
  "userdoc": {
    "methods": {}
  },
  "storageLayout": {
    "storage": [],
    "types": null
  }
}