{
  "address": "0x5FbDB2315678afecb367f032d93F642f64180aa3",
  "abi": [
    {
      "inputs": [],
      "payable": false,
      "stateMutability": "nonpayable",
      "type": "constructor"
    },
    {
      "constant": true,
      "inputs": [],
      "name": "getOracle",
      "outputs": [
        {
          "internalType": "address",
          "name": "oracle",
          "type": "address"
        }
      ],
      "payable": false,
      "stateMutability": "view",
      "type": "function"
    }
  ],
  "transactionHash": "0xfb61649e45ffde1a777be31b915cade71b80512e996b21babd09e30beabed9a2",
  "args": [],
  "solcInputHash": "8f4c1d4875b9f183e34368e4ef1ab19a",
  "bytecode": "0x608060405234801561001057600080fd5b50600080546001600160a01b031916739d4b2c05818a0086e641437fcb64ab6098c7bbec179055610101806100466000396000f3fe6080604052348015600f57600080fd5b506004361060285760003560e01c8063833b1fce14602d575b600080fd5b6033604f565b604080516001600160a01b039092168252519081900360200190f35b60008060009054906101000a90046001600160a01b03166001600160a01b0316630a065fb66040518163ffffffff1660e01b815260040160206040518083038186803b158015609d57600080fd5b505afa15801560b0573d6000803e3d6000fd5b505050506040513d602081101560c557600080fd5b505191905056fea265627a7a72315820decf339885c2cf884abaa8563bd175a2ae048b80ae8c34556470af029854e96e64736f6c63430005110032",
  "devdoc": {
    "methods": {}
  },
  "userdoc": {
    "methods": {}
  },
  "storageLayout": {
    "storage": [
      {
        "astId": 27,
        "contract": "contracts/mocks/Discover.sol:Discover",
        "label": "IRoCState_addr",
        "offset": 0,
        "slot": "0",
        "type": "t_address"
      }
    ],
    "types": {
      "t_address": {
        "encoding": "inplace",
        "label": "address",
        "numberOfBytes": "20"
      }
    }
  }
}